{
  "address": "0xA362a7871dEFb74C9C0126669423fc85F4D2b598",
  "abi": [
    {
      "inputs": [
        {
          "internalType": "address",
          "name": "_governor",
          "type": "address"
        },
        {
          "internalType": "address",
          "name": "_guardian",
          "type": "address"
        },
        {
          "internalType": "address",
          "name": "_policy",
          "type": "address"
        },
        {
          "internalType": "address",
          "name": "_vault",
          "type": "address"
        }
      ],
      "stateMutability": "nonpayable",
      "type": "constructor"
    },
    {
      "anonymous": false,
      "inputs": [
        {
          "indexed": true,
          "internalType": "contract IOlympusAuthority",
          "name": "authority",
          "type": "address"
        }
      ],
      "name": "AuthorityUpdated",
      "type": "event"
    },
    {
      "anonymous": false,
      "inputs": [
        {
          "indexed": true,
          "internalType": "address",
          "name": "from",
          "type": "address"
        },
        {
          "indexed": true,
          "internalType": "address",
          "name": "to",
          "type": "address"
        }
      ],
      "name": "GovernorPulled",
      "type": "event"
    },
    {
      "anonymous": false,
      "inputs": [
        {
          "indexed": true,
          "internalType": "address",
          "name": "from",
          "type": "address"
        },
        {
          "indexed": true,
          "internalType": "address",
          "name": "to",
          "type": "address"
        },
        {
          "indexed": false,
          "internalType": "bool",
          "name": "_effectiveImmediately",
          "type": "bool"
        }
      ],
      "name": "GovernorPushed",
      "type": "event"
    },
    {
      "anonymous": false,
      "inputs": [
        {
          "indexed": true,
          "internalType": "address",
          "name": "from",
          "type": "address"
        },
        {
          "indexed": true,
          "internalType": "address",
          "name": "to",
          "type": "address"
        }
      ],
      "name": "GuardianPulled",
      "type": "event"
    },
    {
      "anonymous": false,
      "inputs": [
        {
          "indexed": true,
          "internalType": "address",
          "name": "from",
          "type": "address"
        },
        {
          "indexed": true,
          "internalType": "address",
          "name": "to",
          "type": "address"
        },
        {
          "indexed": false,
          "internalType": "bool",
          "name": "_effectiveImmediately",
          "type": "bool"
        }
      ],
      "name": "GuardianPushed",
      "type": "event"
    },
    {
      "anonymous": false,
      "inputs": [
        {
          "indexed": true,
          "internalType": "address",
          "name": "from",
          "type": "address"
        },
        {
          "indexed": true,
          "internalType": "address",
          "name": "to",
          "type": "address"
        }
      ],
      "name": "PolicyPulled",
      "type": "event"
    },
    {
      "anonymous": false,
      "inputs": [
        {
          "indexed": true,
          "internalType": "address",
          "name": "from",
          "type": "address"
        },
        {
          "indexed": true,
          "internalType": "address",
          "name": "to",
          "type": "address"
        },
        {
          "indexed": false,
          "internalType": "bool",
          "name": "_effectiveImmediately",
          "type": "bool"
        }
      ],
      "name": "PolicyPushed",
      "type": "event"
    },
    {
      "anonymous": false,
      "inputs": [
        {
          "indexed": true,
          "internalType": "address",
          "name": "from",
          "type": "address"
        },
        {
          "indexed": true,
          "internalType": "address",
          "name": "to",
          "type": "address"
        }
      ],
      "name": "VaultPulled",
      "type": "event"
    },
    {
      "anonymous": false,
      "inputs": [
        {
          "indexed": true,
          "internalType": "address",
          "name": "from",
          "type": "address"
        },
        {
          "indexed": true,
          "internalType": "address",
          "name": "to",
          "type": "address"
        },
        {
          "indexed": false,
          "internalType": "bool",
          "name": "_effectiveImmediately",
          "type": "bool"
        }
      ],
      "name": "VaultPushed",
      "type": "event"
    },
    {
      "inputs": [
        {
          "internalType": "address",
          "name": "_address",
          "type": "address"
        }
      ],
      "name": "addMinter",
      "outputs": [],
      "stateMutability": "nonpayable",
      "type": "function"
    },
    {
      "inputs": [],
      "name": "authority",
      "outputs": [
        {
          "internalType": "contract IOlympusAuthority",
          "name": "",
          "type": "address"
        }
      ],
      "stateMutability": "view",
      "type": "function"
    },
    {
      "inputs": [],
      "name": "governor",
      "outputs": [
        {
          "internalType": "address",
          "name": "",
          "type": "address"
        }
      ],
      "stateMutability": "view",
      "type": "function"
    },
    {
      "inputs": [],
      "name": "guardian",
      "outputs": [
        {
          "internalType": "address",
          "name": "",
          "type": "address"
        }
      ],
      "stateMutability": "view",
      "type": "function"
    },
    {
      "inputs": [
        {
          "internalType": "address",
          "name": "",
          "type": "address"
        }
      ],
      "name": "minters",
      "outputs": [
        {
          "internalType": "bool",
          "name": "",
          "type": "bool"
        }
      ],
      "stateMutability": "view",
      "type": "function"
    },
    {
      "inputs": [],
      "name": "newGovernor",
      "outputs": [
        {
          "internalType": "address",
          "name": "",
          "type": "address"
        }
      ],
      "stateMutability": "view",
      "type": "function"
    },
    {
      "inputs": [],
      "name": "newGuardian",
      "outputs": [
        {
          "internalType": "address",
          "name": "",
          "type": "address"
        }
      ],
      "stateMutability": "view",
      "type": "function"
    },
    {
      "inputs": [],
      "name": "newPolicy",
      "outputs": [
        {
          "internalType": "address",
          "name": "",
          "type": "address"
        }
      ],
      "stateMutability": "view",
      "type": "function"
    },
    {
      "inputs": [],
      "name": "newVault",
      "outputs": [
        {
          "internalType": "address",
          "name": "",
          "type": "address"
        }
      ],
      "stateMutability": "view",
      "type": "function"
    },
    {
      "inputs": [],
      "name": "policy",
      "outputs": [
        {
          "internalType": "address",
          "name": "",
          "type": "address"
        }
      ],
      "stateMutability": "view",
      "type": "function"
    },
    {
      "inputs": [],
      "name": "pullGovernor",
      "outputs": [],
      "stateMutability": "nonpayable",
      "type": "function"
    },
    {
      "inputs": [],
      "name": "pullGuardian",
      "outputs": [],
      "stateMutability": "nonpayable",
      "type": "function"
    },
    {
      "inputs": [],
      "name": "pullPolicy",
      "outputs": [],
      "stateMutability": "nonpayable",
      "type": "function"
    },
    {
      "inputs": [],
      "name": "pullVault",
      "outputs": [],
      "stateMutability": "nonpayable",
      "type": "function"
    },
    {
      "inputs": [
        {
          "internalType": "address",
          "name": "_newGovernor",
          "type": "address"
        },
        {
          "internalType": "bool",
          "name": "_effectiveImmediately",
          "type": "bool"
        }
      ],
      "name": "pushGovernor",
      "outputs": [],
      "stateMutability": "nonpayable",
      "type": "function"
    },
    {
      "inputs": [
        {
          "internalType": "address",
          "name": "_newGuardian",
          "type": "address"
        },
        {
          "internalType": "bool",
          "name": "_effectiveImmediately",
          "type": "bool"
        }
      ],
      "name": "pushGuardian",
      "outputs": [],
      "stateMutability": "nonpayable",
      "type": "function"
    },
    {
      "inputs": [
        {
          "internalType": "address",
          "name": "_newPolicy",
          "type": "address"
        },
        {
          "internalType": "bool",
          "name": "_effectiveImmediately",
          "type": "bool"
        }
      ],
      "name": "pushPolicy",
      "outputs": [],
      "stateMutability": "nonpayable",
      "type": "function"
    },
    {
      "inputs": [
        {
          "internalType": "address",
          "name": "_newVault",
          "type": "address"
        },
        {
          "internalType": "bool",
          "name": "_effectiveImmediately",
          "type": "bool"
        }
      ],
      "name": "pushVault",
      "outputs": [],
      "stateMutability": "nonpayable",
      "type": "function"
    },
    {
      "inputs": [
        {
          "internalType": "contract IOlympusAuthority",
          "name": "_newAuthority",
          "type": "address"
        }
      ],
      "name": "setAuthority",
      "outputs": [],
      "stateMutability": "nonpayable",
      "type": "function"
    },
    {
      "inputs": [
        {
          "internalType": "address",
          "name": "_address",
          "type": "address"
        }
      ],
      "name": "subMinter",
      "outputs": [],
      "stateMutability": "nonpayable",
      "type": "function"
    },
    {
      "inputs": [],
      "name": "vault",
      "outputs": [
        {
          "internalType": "address",
          "name": "",
          "type": "address"
        }
      ],
      "stateMutability": "view",
      "type": "function"
    }
  ],
  "transactionHash": "0x75c41df5becac04976375dbf2ce00aa1737b6839f7f7163c98e4ee4df81d8802",
  "args": [
    "0xAE4bdBb0824C9B602589a5DaD2aD96C8A2AcC607",
    "0xAE4bdBb0824C9B602589a5DaD2aD96C8A2AcC607",
    "0xAE4bdBb0824C9B602589a5DaD2aD96C8A2AcC607",
    "0xAE4bdBb0824C9B602589a5DaD2aD96C8A2AcC607"
  ],
  "solcInputHash": "c11c2ee64510471a09c1ebad4051e611",
  "bytecode": "0x60c0604052600c60808190526b15539055551213d49256915160a21b60a09081526200002f9160009190620001ff565b503480156200003d57600080fd5b5060405162001185380380620011858339810160408190526200006091620002c2565b600180546001600160a01b0319163090811790915560405181907f2f658b440c35314f52658ea8a740e05b284cdc84dc9ae01e891f21b8933e7cad90600090a250600280546001600160a01b0319166001600160a01b038616908117909155604051600181526000907f4f337dcbb2512f18373c1f72d990a2f0a6ee5024b04007c52afd01eb73374a899060200160405180910390a3600380546001600160a01b0319166001600160a01b038516908117909155604051600181526000907fde655975891e8f09671597b37bd4d663bcc5c21dc6d7641b33cdf85fbe15d08b9060200160405180910390a3600480546001600160a01b0319166001600160a01b038416908117909155604051600181526000907f90a5902a45c24aae553d5aff384ca16d6560f08d74c9784a4fbd2796d9e13f2b9060200160405180910390a3600580546001600160a01b0319166001600160a01b038316908117909155604051600181526000907f05a80f5053574d6a62733e1692e8cbcfaf927dc82df0a7267ea2e489a7cc18ff9060200160405180910390a3505050506200035c565b8280546200020d906200031f565b90600052602060002090601f0160209004810192826200023157600085556200027c565b82601f106200024c57805160ff19168380011785556200027c565b828001600101855582156200027c579182015b828111156200027c5782518255916020019190600101906200025f565b506200028a9291506200028e565b5090565b5b808211156200028a57600081556001016200028f565b80516001600160a01b0381168114620002bd57600080fd5b919050565b60008060008060808587031215620002d957600080fd5b620002e485620002a5565b9350620002f460208601620002a5565b92506200030460408601620002a5565b91506200031460608601620002a5565b905092959194509250565b600181811c908216806200033457607f821691505b602082108114156200035657634e487b7160e01b600052602260045260246000fd5b50919050565b610e19806200036c6000396000f3fe608060405234801561001057600080fd5b50600436106101375760003560e01c80635beede08116100b8578063983b2d561161007c578063983b2d5614610262578063be11f1dd14610275578063bf7e214f1461027d578063d8a0421214610290578063f46eccc414610298578063fbfa77cf146102cb57600080fd5b80635beede081461020e5780636fe72c14146102165780637a9e5e4b1461022957806388aaf0c81461023c5780638fd205771461024f57600080fd5b8063215e92bc116100ff578063215e92bc146101ba5780633bf90c28146101c2578063452a9320146101d557806352759694146101e857806354e3d703146101fb57600080fd5b8063026803041461013c5780630505c8c9146101515780630c340a241461018157806319859847146101945780631afe8714146101a7575b600080fd5b61014f61014a366004610ce5565b6102de565b005b600454610164906001600160a01b031681565b6040516001600160a01b0390911681526020015b60405180910390f35b600254610164906001600160a01b031681565b600854610164906001600160a01b031681565b61014f6101b5366004610d09565b6103b4565b61014f6104e2565b600954610164906001600160a01b031681565b600354610164906001600160a01b031681565b61014f6101f6366004610d09565b61058b565b61014f610209366004610d09565b6106b1565b61014f6107d7565b61014f610224366004610d09565b610881565b61014f610237366004610ce5565b6109b2565b600a54610164906001600160a01b031681565b600754610164906001600160a01b031681565b61014f610270366004610ce5565b610aa8565b61014f610b78565b600154610164906001600160a01b031681565b61014f610c21565b6102bb6102a6366004610ce5565b60066020526000908152604090205460ff1681565b6040519015158152602001610178565b600554610164906001600160a01b031681565b600160009054906101000a90046001600160a01b03166001600160a01b0316630c340a246040518163ffffffff1660e01b8152600401602060405180830381865afa158015610331573d6000803e3d6000fd5b505050506040513d601f19601f820116820180604052508101906103559190610d47565b6001600160a01b0316336001600160a01b0316146000906103925760405162461bcd60e51b81526004016103899190610d64565b60405180910390fd5b506001600160a01b03166000908152600660205260409020805460ff19169055565b600160009054906101000a90046001600160a01b03166001600160a01b0316630c340a246040518163ffffffff1660e01b8152600401602060405180830381865afa158015610407573d6000803e3d6000fd5b505050506040513d601f19601f8201168201806040525081019061042b9190610d47565b6001600160a01b0316336001600160a01b03161460009061045f5760405162461bcd60e51b81526004016103899190610d64565b50801561048257600380546001600160a01b0319166001600160a01b0384161790555b600880546001600160a01b0319166001600160a01b038481169182179092556003546040518415158152919216907fde655975891e8f09671597b37bd4d663bcc5c21dc6d7641b33cdf85fbe15d08b906020015b60405180910390a35050565b600a546001600160a01b031633146105285760405162461bcd60e51b8152602060048201526009602482015268085b995dd5985d5b1d60ba1b6044820152606401610389565b600a546005546040516001600160a01b0392831692909116907f3d08e01e3b8340be6ca709db7a9321448661a1f490da4d7f3eb03d84fe73095390600090a3600a54600580546001600160a01b0319166001600160a01b03909216919091179055565b600160009054906101000a90046001600160a01b03166001600160a01b0316630c340a246040518163ffffffff1660e01b8152600401602060405180830381865afa1580156105de573d6000803e3d6000fd5b505050506040513d601f19601f820116820180604052508101906106029190610d47565b6001600160a01b0316336001600160a01b0316146000906106365760405162461bcd60e51b81526004016103899190610d64565b50801561065957600280546001600160a01b0319166001600160a01b0384161790555b600780546001600160a01b0319166001600160a01b038481169182179092556002546040518415158152919216907f4f337dcbb2512f18373c1f72d990a2f0a6ee5024b04007c52afd01eb73374a89906020016104d6565b600160009054906101000a90046001600160a01b03166001600160a01b0316630c340a246040518163ffffffff1660e01b8152600401602060405180830381865afa158015610704573d6000803e3d6000fd5b505050506040513d601f19601f820116820180604052508101906107289190610d47565b6001600160a01b0316336001600160a01b03161460009061075c5760405162461bcd60e51b81526004016103899190610d64565b50801561077f57600480546001600160a01b0319166001600160a01b0384161790555b600980546001600160a01b0319166001600160a01b038481169182179092556004546040518415158152919216907f90a5902a45c24aae553d5aff384ca16d6560f08d74c9784a4fbd2796d9e13f2b906020016104d6565b6009546001600160a01b0316331461081e5760405162461bcd60e51b815260206004820152600a602482015269216e6577506f6c69637960b01b6044820152606401610389565b6009546004546040516001600160a01b0392831692909116907f64d2fa522b403ca222efff0c7ad07d2ef45472a45e5770918bdfa9a2845d29a890600090a3600954600480546001600160a01b0319166001600160a01b03909216919091179055565b600160009054906101000a90046001600160a01b03166001600160a01b0316630c340a246040518163ffffffff1660e01b8152600401602060405180830381865afa1580156108d4573d6000803e3d6000fd5b505050506040513d601f19601f820116820180604052508101906108f89190610d47565b6001600160a01b0316336001600160a01b03161460009061092c5760405162461bcd60e51b81526004016103899190610d64565b50801561095a57600580546001600160a01b0319166001600160a01b03841690811790915561095a90610aa8565b600a80546001600160a01b0319166001600160a01b038481169182179092556005546040518415158152919216907f05a80f5053574d6a62733e1692e8cbcfaf927dc82df0a7267ea2e489a7cc18ff906020016104d6565b600160009054906101000a90046001600160a01b03166001600160a01b0316630c340a246040518163ffffffff1660e01b8152600401602060405180830381865afa158015610a05573d6000803e3d6000fd5b505050506040513d601f19601f82011682018060405250810190610a299190610d47565b6001600160a01b0316336001600160a01b031614600090610a5d5760405162461bcd60e51b81526004016103899190610d64565b50600180546001600160a01b0319166001600160a01b0383169081179091556040517f2f658b440c35314f52658ea8a740e05b284cdc84dc9ae01e891f21b8933e7cad90600090a250565b600160009054906101000a90046001600160a01b03166001600160a01b0316630c340a246040518163ffffffff1660e01b8152600401602060405180830381865afa158015610afb573d6000803e3d6000fd5b505050506040513d601f19601f82011682018060405250810190610b1f9190610d47565b6001600160a01b0316336001600160a01b031614600090610b535760405162461bcd60e51b81526004016103899190610d64565b506001600160a01b03166000908152600660205260409020805460ff19166001179055565b6008546001600160a01b03163314610bbe5760405162461bcd60e51b8152602060048201526009602482015268085b995dd1dd585c9960ba1b6044820152606401610389565b6008546003546040516001600160a01b0392831692909116907f0960fb9900fb8096216606c4f7fc2fce5d08cc0c82da55cec8619b66b523848190600090a3600854600380546001600160a01b0319166001600160a01b03909216919091179055565b6007546001600160a01b03163314610c6a5760405162461bcd60e51b815260206004820152600c60248201526b10b732bba3b7bb32b93737b960a11b6044820152606401610389565b6007546002546040516001600160a01b0392831692909116907fffd6fed33fe8ec1016718bdd5d04ae6fecd9aba0da6578807daaaa7fc3d1682690600090a3600754600280546001600160a01b0319166001600160a01b03909216919091179055565b6001600160a01b0381168114610ce257600080fd5b50565b600060208284031215610cf757600080fd5b8135610d0281610ccd565b9392505050565b60008060408385031215610d1c57600080fd5b8235610d2781610ccd565b915060208301358015158114610d3c57600080fd5b809150509250929050565b600060208284031215610d5957600080fd5b8151610d0281610ccd565b600060208083526000845481600182811c915080831680610d8657607f831692505b858310811415610da457634e487b7160e01b85526022600452602485fd5b878601838152602001818015610dc15760018114610dd257610dfd565b60ff19861682528782019650610dfd565b60008b81526020902060005b86811015610df757815484820152908501908901610dde565b83019750505b5094999850505050505050505056fea164736f6c634300080a000a",
  "devdoc": {
    "kind": "dev",
    "methods": {},
    "version": 1
  },
  "userdoc": {
    "kind": "user",
    "methods": {},
    "version": 1
  },
  "storageLayout": {
    "storage": [
      {
        "astId": 23622,
        "contract": "contracts/OlympusAuthority.sol:OlympusAuthority",
        "label": "UNAUTHORIZED",
        "offset": 0,
        "slot": "0",
        "type": "t_string_storage"
      },
      {
        "astId": 23625,
        "contract": "contracts/OlympusAuthority.sol:OlympusAuthority",
        "label": "authority",
        "offset": 0,
        "slot": "1",
        "type": "t_contract(IOlympusAuthority)15018"
      },
      {
        "astId": 4621,
        "contract": "contracts/OlympusAuthority.sol:OlympusAuthority",
        "label": "governor",
        "offset": 0,
        "slot": "2",
        "type": "t_address"
      },
      {
        "astId": 4624,
        "contract": "contracts/OlympusAuthority.sol:OlympusAuthority",
        "label": "guardian",
        "offset": 0,
        "slot": "3",
        "type": "t_address"
      },
      {
        "astId": 4627,
        "contract": "contracts/OlympusAuthority.sol:OlympusAuthority",
        "label": "policy",
        "offset": 0,
        "slot": "4",
        "type": "t_address"
      },
      {
        "astId": 4630,
        "contract": "contracts/OlympusAuthority.sol:OlympusAuthority",
        "label": "vault",
        "offset": 0,
        "slot": "5",
        "type": "t_address"
      },
      {
        "astId": 4634,
        "contract": "contracts/OlympusAuthority.sol:OlympusAuthority",
        "label": "minters",
        "offset": 0,
        "slot": "6",
        "type": "t_mapping(t_address,t_bool)"
      },
      {
        "astId": 4636,
        "contract": "contracts/OlympusAuthority.sol:OlympusAuthority",
        "label": "newGovernor",
        "offset": 0,
        "slot": "7",
        "type": "t_address"
      },
      {
        "astId": 4638,
        "contract": "contracts/OlympusAuthority.sol:OlympusAuthority",
        "label": "newGuardian",
        "offset": 0,
        "slot": "8",
        "type": "t_address"
      },
      {
        "astId": 4640,
        "contract": "contracts/OlympusAuthority.sol:OlympusAuthority",
        "label": "newPolicy",
        "offset": 0,
        "slot": "9",
        "type": "t_address"
      },
      {
        "astId": 4642,
        "contract": "contracts/OlympusAuthority.sol:OlympusAuthority",
        "label": "newVault",
        "offset": 0,
        "slot": "10",
        "type": "t_address"
      }
    ],
    "types": {
      "t_address": {
        "encoding": "inplace",
        "label": "address",
        "numberOfBytes": "20"
      },
      "t_bool": {
        "encoding": "inplace",
        "label": "bool",
        "numberOfBytes": "1"
      },
      "t_contract(IOlympusAuthority)15018": {
        "encoding": "inplace",
        "label": "contract IOlympusAuthority",
        "numberOfBytes": "20"
      },
      "t_mapping(t_address,t_bool)": {
        "encoding": "mapping",
        "key": "t_address",
        "label": "mapping(address => bool)",
        "numberOfBytes": "32",
        "value": "t_bool"
      },
      "t_string_storage": {
        "encoding": "bytes",
        "label": "string",
        "numberOfBytes": "32"
      }
    }
  }
}