{
  "address": "0x8E2c6a96aefD9c13e91F0462080C59f1733b828B",
  "abi": [
    {
      "inputs": [
        {
          "internalType": "contract IOlympusAuthority",
          "name": "_authority",
          "type": "address"
        },
        {
          "internalType": "contract IERC20",
          "name": "_ohm",
          "type": "address"
        },
        {
          "internalType": "contract IgOHM",
          "name": "_gohm",
          "type": "address"
        },
        {
          "internalType": "contract IStaking",
          "name": "_staking",
          "type": "address"
        },
        {
          "internalType": "contract ITreasury",
          "name": "_treasury",
          "type": "address"
        }
      ],
      "stateMutability": "nonpayable",
      "type": "constructor"
    },
    {
      "anonymous": false,
      "inputs": [
        {
          "indexed": true,
          "internalType": "contract IOlympusAuthority",
          "name": "authority",
          "type": "address"
        }
      ],
      "name": "AuthorityUpdated",
      "type": "event"
    },
    {
      "anonymous": false,
      "inputs": [
        {
          "indexed": true,
          "internalType": "uint256",
          "name": "id",
          "type": "uint256"
        },
        {
          "indexed": false,
          "internalType": "uint256",
          "name": "amount",
          "type": "uint256"
        },
        {
          "indexed": false,
          "internalType": "uint256",
          "name": "price",
          "type": "uint256"
        }
      ],
      "name": "Bond",
      "type": "event"
    },
    {
      "anonymous": false,
      "inputs": [
        {
          "indexed": true,
          "internalType": "uint256",
          "name": "id",
          "type": "uint256"
        }
      ],
      "name": "CloseMarket",
      "type": "event"
    },
    {
      "anonymous": false,
      "inputs": [
        {
          "indexed": true,
          "internalType": "uint256",
          "name": "id",
          "type": "uint256"
        },
        {
          "indexed": true,
          "internalType": "address",
          "name": "baseToken",
          "type": "address"
        },
        {
          "indexed": true,
          "internalType": "address",
          "name": "quoteToken",
          "type": "address"
        },
        {
          "indexed": false,
          "internalType": "uint256",
          "name": "initialPrice",
          "type": "uint256"
        }
      ],
      "name": "CreateMarket",
      "type": "event"
    },
    {
      "anonymous": false,
      "inputs": [
        {
          "indexed": true,
          "internalType": "uint256",
          "name": "id",
          "type": "uint256"
        },
        {
          "indexed": false,
          "internalType": "uint64",
          "name": "oldControlVariable",
          "type": "uint64"
        },
        {
          "indexed": false,
          "internalType": "uint64",
          "name": "newControlVariable",
          "type": "uint64"
        }
      ],
      "name": "Tuned",
      "type": "event"
    },
    {
      "inputs": [
        {
          "internalType": "uint256",
          "name": "",
          "type": "uint256"
        }
      ],
      "name": "adjustments",
      "outputs": [
        {
          "internalType": "uint64",
          "name": "change",
          "type": "uint64"
        },
        {
          "internalType": "uint48",
          "name": "lastAdjustment",
          "type": "uint48"
        },
        {
          "internalType": "uint48",
          "name": "timeToAdjusted",
          "type": "uint48"
        },
        {
          "internalType": "bool",
          "name": "active",
          "type": "bool"
        }
      ],
      "stateMutability": "view",
      "type": "function"
    },
    {
      "inputs": [],
      "name": "authority",
      "outputs": [
        {
          "internalType": "contract IOlympusAuthority",
          "name": "",
          "type": "address"
        }
      ],
      "stateMutability": "view",
      "type": "function"
    },
    {
      "inputs": [
        {
          "internalType": "uint256",
          "name": "_id",
          "type": "uint256"
        }
      ],
      "name": "close",
      "outputs": [],
      "stateMutability": "nonpayable",
      "type": "function"
    },
    {
      "inputs": [
        {
          "internalType": "contract IERC20",
          "name": "_quoteToken",
          "type": "address"
        },
        {
          "internalType": "uint256[3]",
          "name": "_market",
          "type": "uint256[3]"
        },
        {
          "internalType": "bool[2]",
          "name": "_booleans",
          "type": "bool[2]"
        },
        {
          "internalType": "uint256[2]",
          "name": "_terms",
          "type": "uint256[2]"
        },
        {
          "internalType": "uint32[2]",
          "name": "_intervals",
          "type": "uint32[2]"
        }
      ],
      "name": "create",
      "outputs": [
        {
          "internalType": "uint256",
          "name": "id_",
          "type": "uint256"
        }
      ],
      "stateMutability": "nonpayable",
      "type": "function"
    },
    {
      "inputs": [
        {
          "internalType": "uint256",
          "name": "_id",
          "type": "uint256"
        }
      ],
      "name": "currentControlVariable",
      "outputs": [
        {
          "internalType": "uint256",
          "name": "",
          "type": "uint256"
        }
      ],
      "stateMutability": "view",
      "type": "function"
    },
    {
      "inputs": [
        {
          "internalType": "uint256",
          "name": "_id",
          "type": "uint256"
        }
      ],
      "name": "currentDebt",
      "outputs": [
        {
          "internalType": "uint256",
          "name": "",
          "type": "uint256"
        }
      ],
      "stateMutability": "view",
      "type": "function"
    },
    {
      "inputs": [],
      "name": "daoReward",
      "outputs": [
        {
          "internalType": "uint256",
          "name": "",
          "type": "uint256"
        }
      ],
      "stateMutability": "view",
      "type": "function"
    },
    {
      "inputs": [
        {
          "internalType": "uint256",
          "name": "_id",
          "type": "uint256"
        }
      ],
      "name": "debtDecay",
      "outputs": [
        {
          "internalType": "uint64",
          "name": "",
          "type": "uint64"
        }
      ],
      "stateMutability": "view",
      "type": "function"
    },
    {
      "inputs": [
        {
          "internalType": "uint256",
          "name": "_id",
          "type": "uint256"
        }
      ],
      "name": "debtRatio",
      "outputs": [
        {
          "internalType": "uint256",
          "name": "",
          "type": "uint256"
        }
      ],
      "stateMutability": "view",
      "type": "function"
    },
    {
      "inputs": [
        {
          "internalType": "uint256",
          "name": "_id",
          "type": "uint256"
        },
        {
          "internalType": "uint256",
          "name": "_amount",
          "type": "uint256"
        },
        {
          "internalType": "uint256",
          "name": "_maxPrice",
          "type": "uint256"
        },
        {
          "internalType": "address",
          "name": "_user",
          "type": "address"
        },
        {
          "internalType": "address",
          "name": "_referral",
          "type": "address"
        }
      ],
      "name": "deposit",
      "outputs": [
        {
          "internalType": "uint256",
          "name": "payout_",
          "type": "uint256"
        },
        {
          "internalType": "uint256",
          "name": "expiry_",
          "type": "uint256"
        },
        {
          "internalType": "uint256",
          "name": "index_",
          "type": "uint256"
        }
      ],
      "stateMutability": "nonpayable",
      "type": "function"
    },
    {
      "inputs": [],
      "name": "getReward",
      "outputs": [],
      "stateMutability": "nonpayable",
      "type": "function"
    },
    {
      "inputs": [
        {
          "internalType": "address",
          "name": "_user",
          "type": "address"
        }
      ],
      "name": "indexesFor",
      "outputs": [
        {
          "internalType": "uint256[]",
          "name": "",
          "type": "uint256[]"
        }
      ],
      "stateMutability": "view",
      "type": "function"
    },
    {
      "inputs": [
        {
          "internalType": "uint256",
          "name": "_id",
          "type": "uint256"
        }
      ],
      "name": "isLive",
      "outputs": [
        {
          "internalType": "bool",
          "name": "",
          "type": "bool"
        }
      ],
      "stateMutability": "view",
      "type": "function"
    },
    {
      "inputs": [],
      "name": "liveMarkets",
      "outputs": [
        {
          "internalType": "uint256[]",
          "name": "",
          "type": "uint256[]"
        }
      ],
      "stateMutability": "view",
      "type": "function"
    },
    {
      "inputs": [
        {
          "internalType": "address",
          "name": "_token",
          "type": "address"
        }
      ],
      "name": "liveMarketsFor",
      "outputs": [
        {
          "internalType": "uint256[]",
          "name": "",
          "type": "uint256[]"
        }
      ],
      "stateMutability": "view",
      "type": "function"
    },
    {
      "inputs": [
        {
          "internalType": "uint256",
          "name": "_id",
          "type": "uint256"
        }
      ],
      "name": "marketPrice",
      "outputs": [
        {
          "internalType": "uint256",
          "name": "",
          "type": "uint256"
        }
      ],
      "stateMutability": "view",
      "type": "function"
    },
    {
      "inputs": [
        {
          "internalType": "uint256",
          "name": "",
          "type": "uint256"
        }
      ],
      "name": "markets",
      "outputs": [
        {
          "internalType": "uint256",
          "name": "capacity",
          "type": "uint256"
        },
        {
          "internalType": "contract IERC20",
          "name": "quoteToken",
          "type": "address"
        },
        {
          "internalType": "bool",
          "name": "capacityInQuote",
          "type": "bool"
        },
        {
          "internalType": "uint64",
          "name": "totalDebt",
          "type": "uint64"
        },
        {
          "internalType": "uint64",
          "name": "maxPayout",
          "type": "uint64"
        },
        {
          "internalType": "uint64",
          "name": "sold",
          "type": "uint64"
        },
        {
          "internalType": "uint256",
          "name": "purchased",
          "type": "uint256"
        }
      ],
      "stateMutability": "view",
      "type": "function"
    },
    {
      "inputs": [
        {
          "internalType": "address",
          "name": "",
          "type": "address"
        },
        {
          "internalType": "uint256",
          "name": "",
          "type": "uint256"
        }
      ],
      "name": "marketsForQuote",
      "outputs": [
        {
          "internalType": "uint256",
          "name": "",
          "type": "uint256"
        }
      ],
      "stateMutability": "view",
      "type": "function"
    },
    {
      "inputs": [
        {
          "internalType": "uint256",
          "name": "",
          "type": "uint256"
        }
      ],
      "name": "metadata",
      "outputs": [
        {
          "internalType": "uint48",
          "name": "lastTune",
          "type": "uint48"
        },
        {
          "internalType": "uint48",
          "name": "lastDecay",
          "type": "uint48"
        },
        {
          "internalType": "uint48",
          "name": "length",
          "type": "uint48"
        },
        {
          "internalType": "uint48",
          "name": "depositInterval",
          "type": "uint48"
        },
        {
          "internalType": "uint48",
          "name": "tuneInterval",
          "type": "uint48"
        },
        {
          "internalType": "uint8",
          "name": "quoteDecimals",
          "type": "uint8"
        }
      ],
      "stateMutability": "view",
      "type": "function"
    },
    {
      "inputs": [
        {
          "internalType": "address",
          "name": "",
          "type": "address"
        },
        {
          "internalType": "uint256",
          "name": "",
          "type": "uint256"
        }
      ],
      "name": "notes",
      "outputs": [
        {
          "internalType": "uint256",
          "name": "payout",
          "type": "uint256"
        },
        {
          "internalType": "uint48",
          "name": "created",
          "type": "uint48"
        },
        {
          "internalType": "uint48",
          "name": "matured",
          "type": "uint48"
        },
        {
          "internalType": "uint48",
          "name": "redeemed",
          "type": "uint48"
        },
        {
          "internalType": "uint48",
          "name": "marketID",
          "type": "uint48"
        }
      ],
      "stateMutability": "view",
      "type": "function"
    },
    {
      "inputs": [
        {
          "internalType": "uint256",
          "name": "_amount",
          "type": "uint256"
        },
        {
          "internalType": "uint256",
          "name": "_id",
          "type": "uint256"
        }
      ],
      "name": "payoutFor",
      "outputs": [
        {
          "internalType": "uint256",
          "name": "",
          "type": "uint256"
        }
      ],
      "stateMutability": "view",
      "type": "function"
    },
    {
      "inputs": [
        {
          "internalType": "address",
          "name": "_user",
          "type": "address"
        },
        {
          "internalType": "uint256",
          "name": "_index",
          "type": "uint256"
        }
      ],
      "name": "pendingFor",
      "outputs": [
        {
          "internalType": "uint256",
          "name": "payout_",
          "type": "uint256"
        },
        {
          "internalType": "bool",
          "name": "matured_",
          "type": "bool"
        }
      ],
      "stateMutability": "view",
      "type": "function"
    },
    {
      "inputs": [
        {
          "internalType": "address",
          "name": "_from",
          "type": "address"
        },
        {
          "internalType": "uint256",
          "name": "_index",
          "type": "uint256"
        }
      ],
      "name": "pullNote",
      "outputs": [
        {
          "internalType": "uint256",
          "name": "newIndex_",
          "type": "uint256"
        }
      ],
      "stateMutability": "nonpayable",
      "type": "function"
    },
    {
      "inputs": [
        {
          "internalType": "address",
          "name": "_to",
          "type": "address"
        },
        {
          "internalType": "uint256",
          "name": "_index",
          "type": "uint256"
        }
      ],
      "name": "pushNote",
      "outputs": [],
      "stateMutability": "nonpayable",
      "type": "function"
    },
    {
      "inputs": [
        {
          "internalType": "address",
          "name": "_user",
          "type": "address"
        },
        {
          "internalType": "uint256[]",
          "name": "_indexes",
          "type": "uint256[]"
        },
        {
          "internalType": "bool",
          "name": "_sendgOHM",
          "type": "bool"
        }
      ],
      "name": "redeem",
      "outputs": [
        {
          "internalType": "uint256",
          "name": "payout_",
          "type": "uint256"
        }
      ],
      "stateMutability": "nonpayable",
      "type": "function"
    },
    {
      "inputs": [
        {
          "internalType": "address",
          "name": "_user",
          "type": "address"
        },
        {
          "internalType": "bool",
          "name": "_sendgOHM",
          "type": "bool"
        }
      ],
      "name": "redeemAll",
      "outputs": [
        {
          "internalType": "uint256",
          "name": "",
          "type": "uint256"
        }
      ],
      "stateMutability": "nonpayable",
      "type": "function"
    },
    {
      "inputs": [],
      "name": "refReward",
      "outputs": [
        {
          "internalType": "uint256",
          "name": "",
          "type": "uint256"
        }
      ],
      "stateMutability": "view",
      "type": "function"
    },
    {
      "inputs": [
        {
          "internalType": "address",
          "name": "",
          "type": "address"
        }
      ],
      "name": "rewards",
      "outputs": [
        {
          "internalType": "uint256",
          "name": "",
          "type": "uint256"
        }
      ],
      "stateMutability": "view",
      "type": "function"
    },
    {
      "inputs": [
        {
          "internalType": "contract IOlympusAuthority",
          "name": "_newAuthority",
          "type": "address"
        }
      ],
      "name": "setAuthority",
      "outputs": [],
      "stateMutability": "nonpayable",
      "type": "function"
    },
    {
      "inputs": [
        {
          "internalType": "uint256",
          "name": "_toFrontEnd",
          "type": "uint256"
        },
        {
          "internalType": "uint256",
          "name": "_toDAO",
          "type": "uint256"
        }
      ],
      "name": "setRewards",
      "outputs": [],
      "stateMutability": "nonpayable",
      "type": "function"
    },
    {
      "inputs": [
        {
          "internalType": "uint256",
          "name": "",
          "type": "uint256"
        }
      ],
      "name": "terms",
      "outputs": [
        {
          "internalType": "bool",
          "name": "fixedTerm",
          "type": "bool"
        },
        {
          "internalType": "uint64",
          "name": "controlVariable",
          "type": "uint64"
        },
        {
          "internalType": "uint48",
          "name": "vesting",
          "type": "uint48"
        },
        {
          "internalType": "uint48",
          "name": "conclusion",
          "type": "uint48"
        },
        {
          "internalType": "uint64",
          "name": "maxDebt",
          "type": "uint64"
        }
      ],
      "stateMutability": "view",
      "type": "function"
    },
    {
      "inputs": [],
      "name": "updateTreasury",
      "outputs": [],
      "stateMutability": "nonpayable",
      "type": "function"
    },
    {
      "inputs": [
        {
          "internalType": "address",
          "name": "_operator",
          "type": "address"
        }
      ],
      "name": "whitelist",
      "outputs": [],
      "stateMutability": "nonpayable",
      "type": "function"
    },
    {
      "inputs": [
        {
          "internalType": "address",
          "name": "",
          "type": "address"
        }
      ],
      "name": "whitelisted",
      "outputs": [
        {
          "internalType": "bool",
          "name": "",
          "type": "bool"
        }
      ],
      "stateMutability": "view",
      "type": "function"
    }
  ],
  "transactionHash": "0x4e228f8dbcc33c49b1c0e7be2dd0644660f4185cd54412435a0c304e414e72ea",
  "args": [
    "0xa5BC4A0b3Cd2A4C8Fe8BFEfc7Cbc4F36F1543a72",
    "0x4F87C24Db4aD3d5219750dA4e154D3f3f03694F2",
    "0xFC5B4823E65c45F89329200958a16d9f83bC2e45",
    "0xDaaD2C7cD07fe99DF199104F2F1b7d032f969F9D",
    "0x855eb5529320A7Fed1477E05A7Ac284B483Ef44E"
  ],
  "solcInputHash": "6e45698259c27370c24cf97ccde4e3ad",
  "bytecode": "0x610120604052600c60e08190526b15539055551213d49256915160a21b6101009081526200003191600091906200017b565b503480156200003f57600080fd5b50604051620044bd380380620044bd83398101604081905262000062916200023a565b600180546001600160a01b0319166001600160a01b038716908117909155604051869186918691869186918691869183917f2f658b440c35314f52658ea8a740e05b284cdc84dc9ae01e891f21b8933e7cad90600090a2506001600160a01b0390811660805293841660a0525090821660c052600880546001600160a01b03191691831691909117905560405163095ea7b360e01b81528582166004820152722cd76fe086b93ce2f768a00b22a000000000006024820152908716925063095ea7b391506044016020604051808303816000875af115801562000149573d6000803e3d6000fd5b505050506040513d601f19601f820116820180604052508101906200016f9190620002ba565b50505050505062000322565b8280546200018990620002e5565b90600052602060002090601f016020900481019282620001ad5760008555620001f8565b82601f10620001c857805160ff1916838001178555620001f8565b82800160010185558215620001f8579182015b82811115620001f8578251825591602001919060010190620001db565b50620002069291506200020a565b5090565b5b808211156200020657600081556001016200020b565b6001600160a01b03811681146200023757600080fd5b50565b600080600080600060a086880312156200025357600080fd5b8551620002608162000221565b6020870151909550620002738162000221565b6040870151909450620002868162000221565b6060870151909350620002998162000221565b6080870151909250620002ac8162000221565b809150509295509295909350565b600060208284031215620002cd57600080fd5b81518015158114620002de57600080fd5b9392505050565b600181811c90821680620002fa57607f821691505b602082108114156200031c57634e487b7160e01b600052602260045260246000fd5b50919050565b60805160a05160c05161415662000367600039600081816124710152612ede0152600081816123d80152612d01015260008181610eef015261107701526141566000f3fe608060405234801561001057600080fd5b50600436106102065760003560e01c8063abbf4b171161011a578063c9b67af5116100ad578063e0b117ff1161007c578063e0b117ff146105b6578063e3684e39146105fe578063e481b26514610655578063f1b7dc7814610668578063f3191a461461067b57600080fd5b8063c9b67af514610565578063d62fbdd31461056d578063d6db4df814610580578063d936547e1461059357600080fd5b8063bf7e214f116100e9578063bf7e214f146104b0578063c0680e20146104db578063c0aa0e8a146104ee578063c3e0fb1c1461053d57600080fd5b8063abbf4b1714610388578063b1283e77146103b3578063bc3b2b1214610413578063bcb296671461049d57600080fd5b806346aed74e1161019d5780637a9e5e4b1161016c5780637a9e5e4b146103195780637c770aae1461032c5780639b19251a1461035a5780639c7697871461036d578063a42206101461037557600080fd5b806346aed74e146102c057806364914439146102d3578063654e51e7146102f35780636a6c575d1461030657600080fd5b806321a7d29b116101d957806321a7d29b1461026f57806327507458146102825780633adec5a7146102a55780633d18b912146102b857600080fd5b80630700037d1461020b5780630a9d85eb1461023e5780630aebeb4e146102515780631885f58014610266575b600080fd5b61022b6102193660046138e1565b60046020526000908152604090205481565b6040519081526020015b60405180910390f35b61022b61024c3660046138fe565b610684565b61026461025f3660046138fe565b6106dc565b005b61022b60025481565b61022b61027d366004613a9e565b610827565b6102956102903660046138fe565b610f77565b6040519015158152602001610235565b61022b6102b33660046138fe565b610fe0565b61026461103c565b61022b6102ce366004613b5f565b6110e8565b6102e66102e13660046138e1565b611104565b6040516102359190613b98565b610264610301366004613bdc565b611292565b61022b610314366004613bdc565b611349565b6102646103273660046138e1565b611419565b61033f61033a366004613bfe565b61150f565b60408051938452602084019290925290820152606001610235565b6102646103683660046138e1565b611920565b6102646119f5565b61022b610383366004613c54565b611c7b565b61039b6103963660046138fe565b611ee4565b6040516001600160401b039091168152602001610235565b6103c66103c13660046138fe565b611fc8565b604080519788526001600160a01b039096166020880152931515948601949094526001600160401b0391821660608601528116608085015290911660a083015260c082015260e001610235565b6104656104213660046138fe565b600c602052600090815260409020546001600160401b0381169065ffffffffffff600160401b8204811691600160701b81049091169060ff600160a01b9091041684565b604080516001600160401b0395909516855265ffffffffffff9384166020860152919092169083015215156060820152608001610235565b61022b6104ab3660046138fe565b612036565b6001546104c3906001600160a01b031681565b6040516001600160a01b039091168152602001610235565b61022b6104e9366004613c54565b612092565b6105016104fc3660046138fe565b6120c3565b6040805195151586526001600160401b03948516602087015265ffffffffffff938416908601529116606084015216608082015260a001610235565b61055061054b366004613c54565b61211c565b60408051928352901515602083015201610235565b6102e66121e7565b61022b61057b366004613c80565b6122cf565b61026461058e366004613c54565b6124e8565b6102956105a13660046138e1565b60056020526000908152604090205460ff1681565b6105c96105c4366004613c54565b6125aa565b6040805195865265ffffffffffff9485166020870152928416928501929092528216606084015216608082015260a001610235565b61061161060c3660046138fe565b61260d565b6040805165ffffffffffff97881681529587166020870152938616938501939093529084166060840152909216608082015260ff90911660a082015260c001610235565b6102e66106633660046138e1565b61266b565b61022b6106763660046138fe565b61288f565b61022b60035481565b6000806106908361293a565b5050905080600a84815481106106a8576106a8613d4a565b6000918252602090912001546106cc919061010090046001600160401b0316613d76565b6001600160401b03169392505050565b600160009054906101000a90046001600160a01b03166001600160a01b0316630505c8c96040518163ffffffff1660e01b8152600401602060405180830381865afa15801561072f573d6000803e3d6000fd5b505050506040513d601f19601f820116820180604052508101906107539190613d9e565b6001600160a01b0316336001600160a01b0316146000906107905760405162461bcd60e51b81526004016107879190613dbb565b60405180910390fd5b5042600a82815481106107a5576107a5613d4a565b90600052602060002001600001600f6101000a81548165ffffffffffff021916908365ffffffffffff1602179055506000600982815481106107e9576107e9613d4a565b6000918252602082206004909102019190915560405182917f8401d05adbea6548a6999cc1540766e6d2ff919292142862893d0e62ec79fbe591a250565b60015460408051630505c8c960e01b815290516000926001600160a01b031691630505c8c99160048083019260209291908290030181865afa158015610871573d6000803e3d6000fd5b505050506040513d601f19601f820116820180604052508101906108959190613d9e565b6001600160a01b0316336001600160a01b0316146000906108c95760405162461bcd60e51b81526004016107879190613dbb565b5060208301516000906108dd904290613e63565b90506000876001600160a01b031663313ce5676040518163ffffffff1660e01b8152600401602060405180830381865afa15801561091f573d6000803e3d6000fd5b505050506040513d601f19601f820116820180604052508101906109439190613e7a565b60ff16905060008681602002015161095c578751610994565b61096782600a613f81565b6020890151895161098090670de0b6b3a7640000613f8d565b61098a9190613fc2565b6109949190613fc2565b855190915060009084906109ae9063ffffffff1684613fd6565b6001600160401b03166109c19190613fc2565b90506000620186a08a600260200201516109e4906001600160401b038616613f8d565b6109ee9190613fc2565b610a01906001600160401b038516614005565b90506000836001600160401b0316600860009054906101000a90046001600160a01b03166001600160a01b031663860f50486040518163ffffffff1660e01b8152600401602060405180830381865afa158015610a62573d6000803e3d6000fd5b505050506040513d601f19601f82011682018060405250810190610a86919061401d565b60208d0151610a959190613f8d565b610a9f9190613fc2565b600980546040805160e0810190915290995091925090808d6000602002015181526020018e6001600160a01b031681526020018c600060028110610ae557610ae5613d4a565b60209081029190910151151582526001600160401b0380891683830152878116604080850191909152600060608086018290526080958601829052875460018181018a5598835291859020875160049093020191825593860151818801805488850151968901518616600160a81b0267ffffffffffffffff60a81b19971515600160a01b026001600160a81b03199092166001600160a01b03909416939093171795909516179093559284015160028301805460a0808801518516600160401b026fffffffffffffffffffffffffffffffff19909216939094169290921791909117905560c09093015160039091015580519182019052600a9181908d90602002015115158152602001836001600160401b031681526020018b600060028110610c1157610c11613d4a565b602002015165ffffffffffff1681526020018b600160028110610c3657610c36613d4a565b6020908102919091015165ffffffffffff90811683526001600160401b038088169383019390935284546001810186556000958652828620855191018054868501516040808901516060808b01516080909b01518a16600160a81b0267ffffffffffffffff60a81b199b8916600160781b0265ffffffffffff60781b19938a16600160481b029390931674ffffffffffffffffffffffff0000000000000000001995909b166101000268ffffffffffffffff00199815159890981668ffffffffffffffffff1990961695909517969096179290921697909717179690961695909517909455825160c081018452428216808252928101929092528a1691810191909152600b9290918201908b906020908102919091015163ffffffff168252018a6001602002015163ffffffff1665ffffffffffff1681526020018760ff168152509080600181540180825580915050600190039060005260206000200160009091909190915060008201518160000160006101000a81548165ffffffffffff021916908365ffffffffffff16021790555060208201518160000160066101000a81548165ffffffffffff021916908365ffffffffffff160217905550604082015181600001600c6101000a81548165ffffffffffff021916908365ffffffffffff16021790555060608201518160000160126101000a81548165ffffffffffff021916908365ffffffffffff16021790555060808201518160000160186101000a81548165ffffffffffff021916908365ffffffffffff16021790555060a082015181600001601e6101000a81548160ff021916908360ff1602179055505050600d60008d6001600160a01b03166001600160a01b031681526020019081526020016000208790806001815401808255809150506001900390600052602060002001600090919091909150558b6001600160a01b03167f00000000000000000000000000000000000000000000000000000000000000006001600160a01b0316887f2f6ff727bd580b1d1b8332e28aa93ed4ec9d8b08d6e30d6b4c9f7aa63ca17f638e600160038110610f4c57610f4c613d4a565b6020020151604051610f6091815260200190565b60405180910390a450505050505095945050505050565b600060098281548110610f8c57610f8c613d4a565b906000526020600020906004020160000154600014158015610fda575042600a8381548110610fbd57610fbd613d4a565b600091825260209091200154600160781b900465ffffffffffff16115b92915050565b6000600b8281548110610ff557610ff5613d4a565b60009182526020909120015461101690600160f01b900460ff16600a614036565b61101f8361288f565b61102884610684565b6110329190613f8d565b610fda9190613fc2565b33600081815260046020819052604080832080549390555163a9059cbb60e01b81529081019290925260248201819052906001600160a01b037f0000000000000000000000000000000000000000000000000000000000000000169063a9059cbb906044016020604051808303816000875af11580156110c0573d6000803e3d6000fd5b505050506040513d601f19601f820116820180604052508101906110e49190614045565b5050565b60006110fd836110f78561266b565b846122cf565b9392505050565b6001600160a01b0381166000908152600d6020908152604080832080548251818502810185019093528083526060949383018282801561116357602002820191906000526020600020905b81548152602001906001019080831161114f575b50505050509050600080600090505b82518110156111c25761119d83828151811061119057611190613d4a565b6020026020010151610f77565b156111b057816111ac81614062565b9250505b806111ba81614062565b915050611172565b506000816001600160401b038111156111dd576111dd613917565b604051908082528060200260200182016040528015611206578160200160208202803683370190505b5090506000805b84518110156112875761122b85828151811061119057611190613d4a565b156112755784818151811061124257611242613d4a565b602002602001015183838151811061125c5761125c613d4a565b60209081029190910101528161127181614062565b9250505b8061127f81614062565b91505061120d565b509095945050505050565b600160009054906101000a90046001600160a01b03166001600160a01b0316630c340a246040518163ffffffff1660e01b8152600401602060405180830381865afa1580156112e5573d6000803e3d6000fd5b505050506040513d601f19601f820116820180604052508101906113099190613d9e565b6001600160a01b0316336001600160a01b03161460009061133d5760405162461bcd60e51b81526004016107879190613dbb565b50600391909155600255565b600080600b838154811061135f5761135f613d4a565b60009182526020918290206040805160c081018252919092015465ffffffffffff8082168352600160301b8204811694830194909452600160601b8104841692820192909252600160901b820483166060820152600160c01b8204909216608083015260ff600160f01b9091041660a082018190529091506113e290600a614036565b6113eb84610fe0565b6113fd86670de0b6b3a7640000613f8d565b6114079190613fc2565b6114119190613fc2565b949350505050565b600160009054906101000a90046001600160a01b03166001600160a01b0316630c340a246040518163ffffffff1660e01b8152600401602060405180830381865afa15801561146c573d6000803e3d6000fd5b505050506040513d601f19601f820116820180604052508101906114909190613d9e565b6001600160a01b0316336001600160a01b0316146000906114c45760405162461bcd60e51b81526004016107879190613dbb565b50600180546001600160a01b0319166001600160a01b0383169081179091556040517f2f658b440c35314f52658ea8a740e05b284cdc84dc9ae01e891f21b8933e7cad90600090a250565b6000806000806009898154811061152857611528613d4a565b906000526020600020906004020190506000600a8a8154811061154d5761154d613d4a565b60009182526020918290206040805160a081018252919092015460ff8116151582526001600160401b03610100820481169483019490945265ffffffffffff600160481b8204811693830193909352600160781b8104831660608301819052600160a81b909104909316608082015292504291908216106116105760405162461bcd60e51b815260206004820152601c60248201527f4465706f7369746f72793a206d61726b657420636f6e636c75646564000000006044820152606401610787565b61161a8b82612a27565b60006116258c612c4a565b9050898111156116775760405162461bcd60e51b815260206004820152601f60248201527f4465706f7369746f72793a206d6f7265207468616e206d6178207072696365006044820152606401610787565b600b8c8154811061168a5761168a613d4a565b6000918252602090912001546116ab90600160f01b900460ff16600a614036565b816116be8d670de0b6b3a7640000613f8d565b6116c89190613fc2565b6116d29190613fc2565b60028501549097506001600160401b03168711156117325760405162461bcd60e51b815260206004820152601d60248201527f4465706f7369746f72793a206d61782073697a652065786365656465640000006044820152606401610787565b6001840154600160a01b900460ff1661174b578661174d565b8a5b8460000160008282546117609190613e63565b90915550508251611775578260400151611785565b818360400151611785919061407d565b65ffffffffffff1695508a8460030160008282546117a39190614005565b90915550506002840180548891906008906117cf908490600160401b90046001600160401b03166140a7565b92506101000a8154816001600160401b0302191690836001600160401b03160217905550868460010160158282829054906101000a90046001600160401b031661181991906140a7565b92506101000a8154816001600160401b0302191690836001600160401b031602179055508b7f7880508a48fd3aee88f7e15917d85e39c3ad059e51ad4aca9bb46e7b4938b9618c83604051611878929190918252602082015260400190565b60405180910390a261188d8988888f8c612cc0565b60085460018601549196506118b1916001600160a01b03908116913391168e612f60565b600184015460808401516001600160401b03600160a81b9092048216911610156119075760008085556040518d917f8401d05adbea6548a6999cc1540766e6d2ff919292142862893d0e62ec79fbe591a2611911565b6119118c83613073565b50505050955095509592505050565b600160009054906101000a90046001600160a01b03166001600160a01b0316630505c8c96040518163ffffffff1660e01b8152600401602060405180830381865afa158015611973573d6000803e3d6000fd5b505050506040513d601f19601f820116820180604052508101906119979190613d9e565b6001600160a01b0316336001600160a01b0316146000906119cb5760405162461bcd60e51b81526004016107879190613dbb565b506001600160a01b03166000908152600560205260409020805460ff19811660ff90911615179055565b600160009054906101000a90046001600160a01b03166001600160a01b0316630c340a246040518163ffffffff1660e01b8152600401602060405180830381865afa158015611a48573d6000803e3d6000fd5b505050506040513d601f19601f82011682018060405250810190611a6c9190613d9e565b6001600160a01b0316336001600160a01b03161480611b125750600160009054906101000a90046001600160a01b03166001600160a01b031663452a93206040518163ffffffff1660e01b8152600401602060405180830381865afa158015611ad9573d6000803e3d6000fd5b505050506040513d601f19601f82011682018060405250810190611afd9190613d9e565b6001600160a01b0316336001600160a01b0316145b80611ba45750600160009054906101000a90046001600160a01b03166001600160a01b0316630505c8c96040518163ffffffff1660e01b8152600401602060405180830381865afa158015611b6b573d6000803e3d6000fd5b505050506040513d601f19601f82011682018060405250810190611b8f9190613d9e565b6001600160a01b0316336001600160a01b0316145b611be25760405162461bcd60e51b815260206004820152600f60248201526e13db9b1e48185d5d1a1bdc9a5e9959608a1b6044820152606401610787565b600160009054906101000a90046001600160a01b03166001600160a01b031663fbfa77cf6040518163ffffffff1660e01b8152600401602060405180830381865afa158015611c35573d6000803e3d6000fd5b505050506040513d601f19601f82011682018060405250810190611c599190613d9e565b600880546001600160a01b0319166001600160a01b0392909216919091179055565b6001600160a01b0382811660009081526007602090815260408083208584529091528120549091163314611cf15760405162461bcd60e51b815260206004820152601e60248201527f4465706f7369746f72793a207472616e73666572206e6f7420666f756e6400006044820152606401610787565b6001600160a01b0383166000908152600660205260409020805483908110611d1b57611d1b613d4a565b6000918252602090912060029091020160010154600160601b900465ffffffffffff1615611d8b5760405162461bcd60e51b815260206004820152601960248201527f4465706f7369746f72793a206e6f74652072656465656d6564000000000000006044820152606401610787565b503360009081526006602052604080822080546001600160a01b038616845291909220805491929184908110611dc357611dc3613d4a565b600091825260208083208454600181810187559585528285206002948502909201805491909402909101908155918401805492909401805465ffffffffffff19811665ffffffffffff94851690811783558654600160301b908190048616026bffffffffffffffffffffffff1990921617178082558554600160601b9081900485160265ffffffffffff60601b198216811783559554600160901b9081900490941690930265ffffffffffff60901b199095166bffffffffffffffffffffffff60601b19909316929092179390931790556001600160a01b0385168152600690915260409020805483908110611ebb57611ebb613d4a565b60009182526020822060029091020190815560010180546001600160c01b031916905592915050565b600080600b8381548110611efa57611efa613d4a565b600091825260208083206040805160c081018252939091015465ffffffffffff8082168552600160301b82048116938501849052600160601b8204811692850192909252600160901b810482166060850152600160c01b81049091166080840152600160f01b900460ff1660a0830152909250611f779042613e63565b9050816040015165ffffffffffff168160098681548110611f9a57611f9a613d4a565b60009182526020909120600490910201600101546114079190600160a81b90046001600160401b0316613f8d565b60098181548110611fd857600080fd5b600091825260209091206004909102018054600182015460028301546003909301549193506001600160a01b0381169260ff600160a01b830416926001600160401b03600160a81b90930483169282811692600160401b9004169087565b600061204182611ee4565b6009838154811061205457612054613d4a565b906000526020600020906004020160010160159054906101000a90046001600160401b03166120839190613d76565b6001600160401b031692915050565b600d60205281600052604060002081815481106120ae57600080fd5b90600052602060002001600091509150505481565b600a81815481106120d357600080fd5b60009182526020909120015460ff811691506001600160401b03610100820481169165ffffffffffff600160481b8204811692600160781b830490911691600160a81b90041685565b6001600160a01b03821660009081526006602052604081208054829182918590811061214a5761214a613d4a565b60009182526020918290206040805160a0810182526002909302909101805480845260019091015465ffffffffffff80821695850195909552600160301b8104851692840192909252600160601b8204841660608401819052600160901b909204909316608083015291945091501580156121d1575042816040015165ffffffffffff1611155b80156121dd5750805115155b9150509250929050565b60606000805b6009548110156122255761220081610f77565b15612213578161220f81614062565b9250505b8061221d81614062565b9150506121ed565b506000816001600160401b0381111561224057612240613917565b604051908082528060200260200182016040528015612269578160200160208202803683370190505b5090506000805b6009548110156122c65761228381610f77565b156122b4578083838151811061229b5761229b613d4a565b6020908102919091010152816122b081614062565b9250505b806122be81614062565b915050612270565b50909392505050565b600042815b84518110156123ab57600080612303888885815181106122f6576122f6613d4a565b602002602001015161211c565b915091508015612396576001600160a01b0388166000908152600660205260409020875185919089908690811061233c5761233c613d4a565b60200260200101518154811061235457612354613d4a565b9060005260206000209060020201600101600c6101000a81548165ffffffffffff021916908365ffffffffffff16021790555081856123939190614005565b94505b505080806123a390614062565b9150506122d4565b50821561244b5760405163a9059cbb60e01b81526001600160a01b038681166004830152602482018490527f0000000000000000000000000000000000000000000000000000000000000000169063a9059cbb906044016020604051808303816000875af1158015612421573d6000803e3d6000fd5b505050506040513d601f19601f820116820180604052508101906124459190614045565b506124e0565b6040516339f4769360e01b81526001600160a01b038681166004830152602482018490527f000000000000000000000000000000000000000000000000000000000000000016906339f47693906044016020604051808303816000875af11580156124ba573d6000803e3d6000fd5b505050506040513d601f19601f820116820180604052508101906124de919061401d565b505b509392505050565b33600090815260066020526040902080548290811061250957612509613d4a565b600091825260209091206001600290920201015465ffffffffffff166125715760405162461bcd60e51b815260206004820152601a60248201527f4465706f7369746f72793a206e6f7465206e6f7420666f756e640000000000006044820152606401610787565b3360009081526007602090815260408083209383529290522080546001600160a01b0319166001600160a01b0392909216919091179055565b600660205281600052604060002081815481106125c657600080fd5b60009182526020909120600290910201805460019091015490925065ffffffffffff8082169250600160301b8204811691600160601b8104821691600160901b9091041685565b600b818154811061261d57600080fd5b60009182526020909120015465ffffffffffff8082169250600160301b8204811691600160601b8104821691600160901b8204811691600160c01b810490911690600160f01b900460ff1686565b6001600160a01b0381166000908152600660209081526040808320805482518185028101850190935280835260609493849084015b828210156127165760008481526020908190206040805160a081018252600286029092018054835260019081015465ffffffffffff80821685870152600160301b8204811693850193909352600160601b810483166060850152600160901b9004909116608083015290835290920191016126a0565b505050509050600080600090505b82518110156127a55782818151811061273f5761273f613d4a565b60200260200101516060015165ffffffffffff166000148015612780575082818151811061276f5761276f613d4a565b602002602001015160000151600014155b15612793578161278f81614062565b9250505b8061279d81614062565b915050612724565b506000816001600160401b038111156127c0576127c0613917565b6040519080825280602002602001820160405280156127e9578160200160208202803683370190505b5090506000805b84518110156112875784818151811061280b5761280b613d4a565b60200260200101516060015165ffffffffffff16600014801561284c575084818151811061283b5761283b613d4a565b602002602001015160000151600014155b1561287d578083838151811061286457612864613d4a565b60209081029190910101528161287981614062565b9250505b8061288781614062565b9150506127f0565b600854604080516310c1ea0960e31b815290516000926001600160a01b03169163860f50489160048083019260209291908290030181865afa1580156128d9573d6000803e3d6000fd5b505050506040513d601f19601f820116820180604052508101906128fd919061401d565b600b838154811061291057612910613d4a565b60009182526020909120015461293190600160f01b900460ff16600a614036565b61102884612036565b6000818152600c60209081526040808320815160808101835290546001600160401b0381168252600160401b810465ffffffffffff90811694830194909452600160701b810490931691810191909152600160a01b90910460ff16151560608201819052829182916129b757600080600093509350935050612a20565b60208101516129c690426140c9565b9250806040015165ffffffffffff168365ffffffffffff16109150816129ed578051612a1c565b806040015165ffffffffffff168365ffffffffffff168260000151612a129190613fd6565b612a1c91906140e8565b9350505b9193909250565b612a3082611ee4565b60098381548110612a4357612a43613d4a565b906000526020600020906004020160010160158282829054906101000a90046001600160401b0316612a759190613d76565b92506101000a8154816001600160401b0302191690836001600160401b0316021790555080600b8381548110612aad57612aad613d4a565b60009182526020808320909101805465ffffffffffff94909416600160301b026bffffffffffff0000000000001990941693909317909255838152600c909152604090205460ff600160a01b90910416156110e4576000828152600c60205260408120908080612b1c8661293a565b92509250925082600a8781548110612b3657612b36613d4a565b60009182526020909120018054600190612b5f90849061010090046001600160401b0316613d76565b92506101000a8154816001600160401b0302191690836001600160401b031602179055508015612c3657835483908590600090612ba69084906001600160401b0316613d76565b92506101000a8154816001600160401b0302191690836001600160401b031602179055508184600001600e8282829054906101000a900465ffffffffffff16612bef91906140c9565b82546101009290920a65ffffffffffff81810219909316918316021790915585546dffffffffffff00000000000000001916600160401b9188169190910217855550612c42565b835460ff60a01b191684555b505050505050565b6000600b8281548110612c5f57612c5f613d4a565b600091825260209091200154612c8090600160f01b900460ff16600a614036565b612c89836135ea565b600a8481548110612c9c57612c9c613d4a565b600091825260209091200154611032919061010090046001600160401b0316613f8d565b6001600160a01b03858116600090815260066020526040908190208054825160a08101938490526319a948db60e21b90935260a483018890529290919081907f0000000000000000000000000000000000000000000000000000000000000000166366a5236c60c48301602060405180830381865afa158015612d47573d6000803e3d6000fd5b505050506040513d601f19601f82011682018060405250810190612d6b919061401d565b815265ffffffffffff428116602080840191909152888216604080850191909152600060608086018290528a8516608096870152875460018181018a55988352848320885160029092020190815593870151939097018054928701519787015196909501518416600160901b0265ffffffffffff60901b19968516600160601b02969096166bffffffffffffffffffffffff60601b19978516600160301b026bffffffffffffffffffffffff199093169390941692909217179490941617919091179055612e3986846136cd565b6008549091506001600160a01b03166340c10f1930612e58848a614005565b6040516001600160e01b031960e085901b1681526001600160a01b0390921660048301526024820152604401600060405180830381600087803b158015612e9e57600080fd5b505af1158015612eb2573d6000803e3d6000fd5b5050604051631b0cd93b60e31b81523060048201526024810189905260006044820152600160648201527f00000000000000000000000000000000000000000000000000000000000000006001600160a01b0316925063d866c9d891506084016020604051808303816000875af1158015612f31573d6000803e3d6000fd5b505050506040513d601f19601f82011682018060405250810190612f55919061401d565b505095945050505050565b604080516001600160a01b0385811660248301528481166044830152606480830185905283518084039091018152608490920183526020820180516001600160e01b03166323b872dd60e01b1790529151600092839290881691612fc4919061410e565b6000604051808303816000865af19150503d8060008114613001576040519150601f19603f3d011682016040523d82523d6000602084013e613006565b606091505b50915091508180156130305750805115806130305750808060200190518101906130309190614045565b612c425760405162461bcd60e51b81526020600482015260146024820152731514905394d1915497d19493d357d1905253115160621b6044820152606401610787565b6000600b838154811061308857613088613d4a565b60009182526020918290206040805160c081018252929091015465ffffffffffff808216808552600160301b8304821695850195909552600160601b8204811692840192909252600160901b810482166060840152600160c01b810490911660808301819052600160f01b90910460ff1660a083015290925061310a9161407d565b65ffffffffffff168265ffffffffffff16106135e55760006009848154811061313557613135613d4a565b600091825260208083206040805160e08101825260049094029091018054845260018101546001600160a01b0381169385019390935260ff600160a01b8404161515918401919091526001600160401b03600160a81b9092048216606084015260028101548083166080850152600160401b900490911660a08301526003015460c0820152600a80549193508591879081106131d3576131d3613d4a565b6000918252602090912001546131f89190600160781b900465ffffffffffff166140c9565b65ffffffffffff169050600061320d86612c4a565b90506000836040015161322157835161325b565b60a085015161323190600a614036565b8451839061324790670de0b6b3a7640000613f8d565b6132519190613fc2565b61325b9190613fc2565b905082856060015165ffffffffffff16826132769190613f8d565b6132809190613fc2565b6009888154811061329357613293613d4a565b906000526020600020906004020160020160006101000a8154816001600160401b0302191690836001600160401b03160217905550600083866040015165ffffffffffff16836132e39190613f8d565b6132ed9190613fc2565b9050600081600860009054906101000a90046001600160a01b03166001600160a01b031663860f50486040518163ffffffff1660e01b8152600401602060405180830381865afa158015613345573d6000803e3d6000fd5b505050506040513d601f19601f82011682018060405250810190613369919061401d565b6133739086613f8d565b61337d9190613fc2565b9050887f3070b0e3e52b8713c7489d32604ea4b0970024f74c6e05319269a19bc1e3a9d9600a8b815481106133b4576133b4613d4a565b60009182526020918290200154604080516101009092046001600160401b0390811683528616928201929092520160405180910390a2600a89815481106133fd576133fd613d4a565b6000918252602090912001546001600160401b0361010090910481169082161061346b5780600a8a8154811061343557613435613d4a565b9060005260206000200160000160016101000a8154816001600160401b0302191690836001600160401b031602179055506135a3565b600081600a8b8154811061348157613481613d4a565b6000918252602090912001546134a5919061010090046001600160401b0316613d76565b90506040518060800160405280826001600160401b031681526020018a65ffffffffffff168152602001896080015165ffffffffffff16815260200160011515815250600c60008c815260200190815260200160002060008201518160000160006101000a8154816001600160401b0302191690836001600160401b0316021790555060208201518160000160086101000a81548165ffffffffffff021916908365ffffffffffff160217905550604082015181600001600e6101000a81548165ffffffffffff021916908365ffffffffffff16021790555060608201518160000160146101000a81548160ff021916908315150217905550905050505b87600b8a815481106135b7576135b7613d4a565b6000918252602090912001805465ffffffffffff191665ffffffffffff929092169190911790555050505050505b505050565b600854604080516310c1ea0960e31b815290516000926001600160a01b03169163860f50489160048083019260209291908290030181865afa158015613634573d6000803e3d6000fd5b505050506040513d601f19601f82011682018060405250810190613658919061401d565b600b838154811061366b5761366b613d4a565b60009182526020909120015461368c90600160f01b900460ff16600a614036565b6009848154811061369f5761369f613d4a565b60009182526020909120600490910201600101546110329190600160a81b90046001600160401b0316613f8d565b600080612710600254856136e19190613f8d565b6136eb9190613fc2565b90506000612710600354866137009190613f8d565b61370a9190613fc2565b6001600160a01b03851660009081526005602052604090205490915060ff1615613807576001600160a01b03841660009081526004602052604081208054839290613756908490614005565b909155505060015460408051630229549960e51b8152905184926004926000926001600160a01b039092169163452a93209180860191602091819003870181865afa1580156137a9573d6000803e3d6000fd5b505050506040513d601f19601f820116820180604052508101906137cd9190613d9e565b6001600160a01b03166001600160a01b0316815260200190815260200160002060008282546137fc9190614005565b909155506138b69050565b6138118183614005565b60015460408051630229549960e51b815290516004926000926001600160a01b039091169163452a93209180860191602091819003870181865afa15801561385d573d6000803e3d6000fd5b505050506040513d601f19601f820116820180604052508101906138819190613d9e565b6001600160a01b03166001600160a01b0316815260200190815260200160002060008282546138b09190614005565b90915550505b6138c08183614005565b95945050505050565b6001600160a01b03811681146138de57600080fd5b50565b6000602082840312156138f357600080fd5b81356110fd816138c9565b60006020828403121561391057600080fd5b5035919050565b634e487b7160e01b600052604160045260246000fd5b604080519081016001600160401b038111828210171561394f5761394f613917565b60405290565b604051601f8201601f191681016001600160401b038111828210171561397d5761397d613917565b604052919050565b6000604051606081018181106001600160401b03821117156139a9576139a9613917565b60405290508060608301848111156139c057600080fd5b835b818110156139da5780358352602092830192016139c2565b50505092915050565b80151581146138de57600080fd5b80356139fc816139e3565b919050565b600082601f830112613a1257600080fd5b613a1a61392d565b806040840185811115613a2c57600080fd5b845b81811015611287578035845260209384019301613a2e565b600082601f830112613a5757600080fd5b613a5f61392d565b806040840185811115613a7157600080fd5b845b8181101561128757803563ffffffff81168114613a905760008081fd5b845260209384019301613a73565b60008060008060006101408688031215613ab757600080fd5b8535613ac2816138c9565b94506020603f87018813613ad557600080fd5b613ae188828901613985565b945087609f880112613af257600080fd5b613afa61392d565b8060c089018a811115613b0c57600080fd5b60808a015b81811015613b31578035613b24816139e3565b8452928401928401613b11565b50819650613b3f8b82613a01565b955050505050613b53876101008801613a46565b90509295509295909350565b60008060408385031215613b7257600080fd5b8235613b7d816138c9565b91506020830135613b8d816139e3565b809150509250929050565b6020808252825182820181905260009190848201906040850190845b81811015613bd057835183529284019291840191600101613bb4565b50909695505050505050565b60008060408385031215613bef57600080fd5b50508035926020909101359150565b600080600080600060a08688031215613c1657600080fd5b8535945060208601359350604086013592506060860135613c36816138c9565b91506080860135613c46816138c9565b809150509295509295909350565b60008060408385031215613c6757600080fd5b8235613c72816138c9565b946020939093013593505050565b600080600060608486031215613c9557600080fd5b8335613ca0816138c9565b92506020848101356001600160401b0380821115613cbd57600080fd5b818701915087601f830112613cd157600080fd5b813581811115613ce357613ce3613917565b8060051b9150613cf4848301613955565b818152918301840191848101908a841115613d0e57600080fd5b938501935b83851015613d2c57843582529385019390850190613d13565b809750505050505050613d41604085016139f1565b90509250925092565b634e487b7160e01b600052603260045260246000fd5b634e487b7160e01b600052601160045260246000fd5b60006001600160401b0383811690831681811015613d9657613d96613d60565b039392505050565b600060208284031215613db057600080fd5b81516110fd816138c9565b600060208083526000845481600182811c915080831680613ddd57607f831692505b858310811415613dfb57634e487b7160e01b85526022600452602485fd5b878601838152602001818015613e185760018114613e2957613e54565b60ff19861682528782019650613e54565b60008b81526020902060005b86811015613e4e57815484820152908501908901613e35565b83019750505b50949998505050505050505050565b600082821015613e7557613e75613d60565b500390565b600060208284031215613e8c57600080fd5b815160ff811681146110fd57600080fd5b600181815b80851115613ed8578160001904821115613ebe57613ebe613d60565b80851615613ecb57918102915b93841c9390800290613ea2565b509250929050565b600082613eef57506001610fda565b81613efc57506000610fda565b8160018114613f125760028114613f1c57613f38565b6001915050610fda565b60ff841115613f2d57613f2d613d60565b50506001821b610fda565b5060208310610133831016604e8410600b8410161715613f5b575081810a610fda565b613f658383613e9d565b8060001904821115613f7957613f79613d60565b029392505050565b60006110fd8383613ee0565b6000816000190483118215151615613fa757613fa7613d60565b500290565b634e487b7160e01b600052601260045260246000fd5b600082613fd157613fd1613fac565b500490565b60006001600160401b0380831681851681830481118215151615613ffc57613ffc613d60565b02949350505050565b6000821982111561401857614018613d60565b500190565b60006020828403121561402f57600080fd5b5051919050565b60006110fd60ff841683613ee0565b60006020828403121561405757600080fd5b81516110fd816139e3565b600060001982141561407657614076613d60565b5060010190565b600065ffffffffffff80831681851680830382111561409e5761409e613d60565b01949350505050565b60006001600160401b0380831681851680830382111561409e5761409e613d60565b600065ffffffffffff83811690831681811015613d9657613d96613d60565b60006001600160401b038084168061410257614102613fac565b92169190910492915050565b6000825160005b8181101561412f5760208186018101518583015201614115565b8181111561413e576000828501525b50919091019291505056fea164736f6c634300080a000a",
  "devdoc": {
    "author": "Zeus, Indigo Review by: JeffX",
    "kind": "dev",
    "methods": {
      "close(uint256)": {
        "params": {
          "_id": "ID of market to close"
        }
      },
      "create(address,uint256[3],bool[2],uint256[2],uint32[2])": {
        "details": "current price should be in 9 decimals.",
        "params": {
          "_booleans": "[capacity in quote, fixed term]",
          "_intervals": "[, ][deposit interval (seconds), tune interval (seconds)]",
          "_market": "[, (), (3)], [capacity (in OHM or quote), initial price / OHM (9 decimals), debt buffer (3 decimals)]",
          "_quoteToken": "token used to deposit",
          "_terms": "[]   [vesting length (if fixed term) or vested timestamp, conclusion timestamp]"
        },
        "returns": {
          "id_": "        ID of new bond market"
        }
      },
      "currentControlVariable(uint256)": {
        "details": "accounts for control variable adjustment",
        "params": {
          "_id": "ID of market"
        },
        "returns": {
          "_0": "control variable for market in OHM decimals"
        }
      },
      "currentDebt(uint256)": {
        "details": "accounts for debt decay since last deposit",
        "params": {
          "_id": "ID of market"
        },
        "returns": {
          "_0": "current debt for market in OHM decimals"
        }
      },
      "debtDecay(uint256)": {
        "params": {
          "_id": "ID of market"
        },
        "returns": {
          "_0": "amount of debt to decay"
        }
      },
      "debtRatio(uint256)": {
        "details": "uses current debt, which accounts for debt decay since last deposit (vs _debtRatio())",
        "params": {
          "_id": "ID of market"
        },
        "returns": {
          "_0": "debt ratio for market in quote decimals"
        }
      },
      "deposit(uint256,uint256,uint256,address,address)": {
        "params": {
          "_amount": "the amount of quote token to spend",
          "_id": "the ID of the market",
          "_maxPrice": "the maximum price at which to buy",
          "_referral": "the front end operator address",
          "_user": "the recipient of the payout"
        },
        "returns": {
          "expiry_": "    the timestamp at which payout is redeemable",
          "index_": "     the user index of the Note (used to redeem or query information)",
          "payout_": "    the amount of gOHM due"
        }
      },
      "indexesFor(address)": {
        "params": {
          "_user": "the user to query notes for"
        },
        "returns": {
          "_0": "the pending notes for the user"
        }
      },
      "isLive(uint256)": {
        "params": {
          "_id": "ID of market"
        }
      },
      "liveMarketsFor(address)": {
        "params": {
          "_token": "quote token to check for"
        }
      },
      "marketPrice(uint256)": {
        "details": "accounts for debt and control variable decay since last deposit (vs _marketPrice())",
        "params": {
          "_id": "ID of market"
        },
        "returns": {
          "_0": "price for market in OHM decimals price is derived from the equation p = cv * dr where p = price cv = control variable dr = debt ratio dr = d / s where d = debt s = supply of token at market creation d -= ( d * (dt / l) ) where dt = change in time l = length of program"
        }
      },
      "payoutFor(uint256,uint256)": {
        "details": "accounts for debt and control variable decay so it is up to date1e18 = ohm decimals (9) + market price decimals (9)",
        "params": {
          "_amount": "amount of quote tokens to spend",
          "_id": "ID of market"
        },
        "returns": {
          "_0": "amount of OHM to be paid in OHM decimals"
        }
      },
      "pendingFor(address,uint256)": {
        "params": {
          "_index": "the index of the note in the user's array",
          "_user": "the user that the note belongs to"
        },
        "returns": {
          "matured_": "   if the payout can be redeemed",
          "payout_": "    the payout due, in gOHM"
        }
      },
      "pullNote(address,uint256)": {
        "params": {
          "_from": "the address that approved the note transfer",
          "_index": "the index of the note to transfer (in the sender's array)"
        }
      },
      "pushNote(address,uint256)": {
        "params": {
          "_index": "index of note to approve transfer for",
          "_to": "address to approve note transfer for"
        }
      },
      "redeem(address,uint256[],bool)": {
        "params": {
          "_indexes": "the note indexes to redeem",
          "_sendgOHM": "send payout as gOHM or sOHM",
          "_user": "the user to redeem for"
        },
        "returns": {
          "payout_": "    sum of payout sent, in gOHM"
        }
      },
      "redeemAll(address,bool)": {
        "details": "if possible, query indexesFor() off-chain and input in redeem() to save gas",
        "params": {
          "_sendgOHM": "send payout as gOHM or sOHM",
          "_user": "user to redeem all notes for"
        },
        "returns": {
          "_0": "sum of payout sent, in gOHM"
        }
      }
    },
    "title": "Olympus Bond Depository V2",
    "version": 1
  },
  "userdoc": {
    "kind": "user",
    "methods": {
      "close(uint256)": {
        "notice": "disable existing market"
      },
      "create(address,uint256[3],bool[2],uint256[2],uint32[2])": {
        "notice": "creates a new market type"
      },
      "currentControlVariable(uint256)": {
        "notice": "up to date control variable"
      },
      "currentDebt(uint256)": {
        "notice": "calculate debt factoring in decay"
      },
      "debtDecay(uint256)": {
        "notice": "amount of debt to decay from total debt for market ID"
      },
      "debtRatio(uint256)": {
        "notice": "calculate current ratio of debt to supply"
      },
      "deposit(uint256,uint256,uint256,address,address)": {
        "notice": "deposit quote tokens in exchange for a bond from a specified market"
      },
      "indexesFor(address)": {
        "notice": "all pending notes for user"
      },
      "isLive(uint256)": {
        "notice": "is a given market accepting deposits"
      },
      "liveMarkets()": {
        "notice": "returns an array of all active market IDs"
      },
      "liveMarketsFor(address)": {
        "notice": "returns an array of all active market IDs for a given quote token"
      },
      "marketPrice(uint256)": {
        "notice": "calculate current market price of quote token in base token"
      },
      "payoutFor(uint256,uint256)": {
        "notice": "payout due for amount of quote tokens"
      },
      "pendingFor(address,uint256)": {
        "notice": "calculate amount available for claim for a single note"
      },
      "pullNote(address,uint256)": {
        "notice": "transfer a note that has been approved by an address"
      },
      "pushNote(address,uint256)": {
        "notice": "approve an address to transfer a note"
      },
      "redeem(address,uint256[],bool)": {
        "notice": "redeem notes for user"
      },
      "redeemAll(address,bool)": {
        "notice": "redeem all redeemable markets for user"
      },
      "setRewards(uint256,uint256)": {
        "notice": "set rewards for front end operators and DAO"
      },
      "whitelist(address)": {
        "notice": "add or remove addresses from the reward whitelist"
      }
    },
    "version": 1
  },
  "storageLayout": {
    "storage": [
      {
        "astId": 22230,
        "contract": "contracts/BondDepository.sol:OlympusBondDepositoryV2",
        "label": "UNAUTHORIZED",
        "offset": 0,
        "slot": "0",
        "type": "t_string_storage"
      },
      {
        "astId": 22233,
        "contract": "contracts/BondDepository.sol:OlympusBondDepositoryV2",
        "label": "authority",
        "offset": 0,
        "slot": "1",
        "type": "t_contract(IOlympusAuthority)13998"
      },
      {
        "astId": 21533,
        "contract": "contracts/BondDepository.sol:OlympusBondDepositoryV2",
        "label": "daoReward",
        "offset": 0,
        "slot": "2",
        "type": "t_uint256"
      },
      {
        "astId": 21535,
        "contract": "contracts/BondDepository.sol:OlympusBondDepositoryV2",
        "label": "refReward",
        "offset": 0,
        "slot": "3",
        "type": "t_uint256"
      },
      {
        "astId": 21539,
        "contract": "contracts/BondDepository.sol:OlympusBondDepositoryV2",
        "label": "rewards",
        "offset": 0,
        "slot": "4",
        "type": "t_mapping(t_address,t_uint256)"
      },
      {
        "astId": 21543,
        "contract": "contracts/BondDepository.sol:OlympusBondDepositoryV2",
        "label": "whitelisted",
        "offset": 0,
        "slot": "5",
        "type": "t_mapping(t_address,t_bool)"
      },
      {
        "astId": 21707,
        "contract": "contracts/BondDepository.sol:OlympusBondDepositoryV2",
        "label": "notes",
        "offset": 0,
        "slot": "6",
        "type": "t_mapping(t_address,t_array(t_struct(Note)13837_storage)dyn_storage)"
      },
      {
        "astId": 21713,
        "contract": "contracts/BondDepository.sol:OlympusBondDepositoryV2",
        "label": "noteTransfers",
        "offset": 0,
        "slot": "7",
        "type": "t_mapping(t_address,t_mapping(t_uint256,t_address))"
      },
      {
        "astId": 21722,
        "contract": "contracts/BondDepository.sol:OlympusBondDepositoryV2",
        "label": "treasury",
        "offset": 0,
        "slot": "8",
        "type": "t_contract(ITreasury)14187"
      },
      {
        "astId": 1145,
        "contract": "contracts/BondDepository.sol:OlympusBondDepositoryV2",
        "label": "markets",
        "offset": 0,
        "slot": "9",
        "type": "t_array(t_struct(Market)13480_storage)dyn_storage"
      },
      {
        "astId": 1149,
        "contract": "contracts/BondDepository.sol:OlympusBondDepositoryV2",
        "label": "terms",
        "offset": 0,
        "slot": "10",
        "type": "t_array(t_struct(Terms)13491_storage)dyn_storage"
      },
      {
        "astId": 1153,
        "contract": "contracts/BondDepository.sol:OlympusBondDepositoryV2",
        "label": "metadata",
        "offset": 0,
        "slot": "11",
        "type": "t_array(t_struct(Metadata)13504_storage)dyn_storage"
      },
      {
        "astId": 1158,
        "contract": "contracts/BondDepository.sol:OlympusBondDepositoryV2",
        "label": "adjustments",
        "offset": 0,
        "slot": "12",
        "type": "t_mapping(t_uint256,t_struct(Adjustment)13513_storage)"
      },
      {
        "astId": 1163,
        "contract": "contracts/BondDepository.sol:OlympusBondDepositoryV2",
        "label": "marketsForQuote",
        "offset": 0,
        "slot": "13",
        "type": "t_mapping(t_address,t_array(t_uint256)dyn_storage)"
      }
    ],
    "types": {
      "t_address": {
        "encoding": "inplace",
        "label": "address",
        "numberOfBytes": "20"
      },
      "t_array(t_struct(Market)13480_storage)dyn_storage": {
        "base": "t_struct(Market)13480_storage",
        "encoding": "dynamic_array",
        "label": "struct IBondDepository.Market[]",
        "numberOfBytes": "32"
      },
      "t_array(t_struct(Metadata)13504_storage)dyn_storage": {
        "base": "t_struct(Metadata)13504_storage",
        "encoding": "dynamic_array",
        "label": "struct IBondDepository.Metadata[]",
        "numberOfBytes": "32"
      },
      "t_array(t_struct(Note)13837_storage)dyn_storage": {
        "base": "t_struct(Note)13837_storage",
        "encoding": "dynamic_array",
        "label": "struct INoteKeeper.Note[]",
        "numberOfBytes": "32"
      },
      "t_array(t_struct(Terms)13491_storage)dyn_storage": {
        "base": "t_struct(Terms)13491_storage",
        "encoding": "dynamic_array",
        "label": "struct IBondDepository.Terms[]",
        "numberOfBytes": "32"
      },
      "t_array(t_uint256)dyn_storage": {
        "base": "t_uint256",
        "encoding": "dynamic_array",
        "label": "uint256[]",
        "numberOfBytes": "32"
      },
      "t_bool": {
        "encoding": "inplace",
        "label": "bool",
        "numberOfBytes": "1"
      },
      "t_contract(IERC20)13767": {
        "encoding": "inplace",
        "label": "contract IERC20",
        "numberOfBytes": "20"
      },
      "t_contract(IOlympusAuthority)13998": {
        "encoding": "inplace",
        "label": "contract IOlympusAuthority",
        "numberOfBytes": "20"
      },
      "t_contract(ITreasury)14187": {
        "encoding": "inplace",
        "label": "contract ITreasury",
        "numberOfBytes": "20"
      },
      "t_mapping(t_address,t_array(t_struct(Note)13837_storage)dyn_storage)": {
        "encoding": "mapping",
        "key": "t_address",
        "label": "mapping(address => struct INoteKeeper.Note[])",
        "numberOfBytes": "32",
        "value": "t_array(t_struct(Note)13837_storage)dyn_storage"
      },
      "t_mapping(t_address,t_array(t_uint256)dyn_storage)": {
        "encoding": "mapping",
        "key": "t_address",
        "label": "mapping(address => uint256[])",
        "numberOfBytes": "32",
        "value": "t_array(t_uint256)dyn_storage"
      },
      "t_mapping(t_address,t_bool)": {
        "encoding": "mapping",
        "key": "t_address",
        "label": "mapping(address => bool)",
        "numberOfBytes": "32",
        "value": "t_bool"
      },
      "t_mapping(t_address,t_mapping(t_uint256,t_address))": {
        "encoding": "mapping",
        "key": "t_address",
        "label": "mapping(address => mapping(uint256 => address))",
        "numberOfBytes": "32",
        "value": "t_mapping(t_uint256,t_address)"
      },
      "t_mapping(t_address,t_uint256)": {
        "encoding": "mapping",
        "key": "t_address",
        "label": "mapping(address => uint256)",
        "numberOfBytes": "32",
        "value": "t_uint256"
      },
      "t_mapping(t_uint256,t_address)": {
        "encoding": "mapping",
        "key": "t_uint256",
        "label": "mapping(uint256 => address)",
        "numberOfBytes": "32",
        "value": "t_address"
      },
      "t_mapping(t_uint256,t_struct(Adjustment)13513_storage)": {
        "encoding": "mapping",
        "key": "t_uint256",
        "label": "mapping(uint256 => struct IBondDepository.Adjustment)",
        "numberOfBytes": "32",
        "value": "t_struct(Adjustment)13513_storage"
      },
      "t_string_storage": {
        "encoding": "bytes",
        "label": "string",
        "numberOfBytes": "32"
      },
      "t_struct(Adjustment)13513_storage": {
        "encoding": "inplace",
        "label": "struct IBondDepository.Adjustment",
        "members": [
          {
            "astId": 13506,
            "contract": "contracts/BondDepository.sol:OlympusBondDepositoryV2",
            "label": "change",
            "offset": 0,
            "slot": "0",
            "type": "t_uint64"
          },
          {
            "astId": 13508,
            "contract": "contracts/BondDepository.sol:OlympusBondDepositoryV2",
            "label": "lastAdjustment",
            "offset": 8,
            "slot": "0",
            "type": "t_uint48"
          },
          {
            "astId": 13510,
            "contract": "contracts/BondDepository.sol:OlympusBondDepositoryV2",
            "label": "timeToAdjusted",
            "offset": 14,
            "slot": "0",
            "type": "t_uint48"
          },
          {
            "astId": 13512,
            "contract": "contracts/BondDepository.sol:OlympusBondDepositoryV2",
            "label": "active",
            "offset": 20,
            "slot": "0",
            "type": "t_bool"
          }
        ],
        "numberOfBytes": "32"
      },
      "t_struct(Market)13480_storage": {
        "encoding": "inplace",
        "label": "struct IBondDepository.Market",
        "members": [
          {
            "astId": 13466,
            "contract": "contracts/BondDepository.sol:OlympusBondDepositoryV2",
            "label": "capacity",
            "offset": 0,
            "slot": "0",
            "type": "t_uint256"
          },
          {
            "astId": 13469,
            "contract": "contracts/BondDepository.sol:OlympusBondDepositoryV2",
            "label": "quoteToken",
            "offset": 0,
            "slot": "1",
            "type": "t_contract(IERC20)13767"
          },
          {
            "astId": 13471,
            "contract": "contracts/BondDepository.sol:OlympusBondDepositoryV2",
            "label": "capacityInQuote",
            "offset": 20,
            "slot": "1",
            "type": "t_bool"
          },
          {
            "astId": 13473,
            "contract": "contracts/BondDepository.sol:OlympusBondDepositoryV2",
            "label": "totalDebt",
            "offset": 21,
            "slot": "1",
            "type": "t_uint64"
          },
          {
            "astId": 13475,
            "contract": "contracts/BondDepository.sol:OlympusBondDepositoryV2",
            "label": "maxPayout",
            "offset": 0,
            "slot": "2",
            "type": "t_uint64"
          },
          {
            "astId": 13477,
            "contract": "contracts/BondDepository.sol:OlympusBondDepositoryV2",
            "label": "sold",
            "offset": 8,
            "slot": "2",
            "type": "t_uint64"
          },
          {
            "astId": 13479,
            "contract": "contracts/BondDepository.sol:OlympusBondDepositoryV2",
            "label": "purchased",
            "offset": 0,
            "slot": "3",
            "type": "t_uint256"
          }
        ],
        "numberOfBytes": "128"
      },
      "t_struct(Metadata)13504_storage": {
        "encoding": "inplace",
        "label": "struct IBondDepository.Metadata",
        "members": [
          {
            "astId": 13493,
            "contract": "contracts/BondDepository.sol:OlympusBondDepositoryV2",
            "label": "lastTune",
            "offset": 0,
            "slot": "0",
            "type": "t_uint48"
          },
          {
            "astId": 13495,
            "contract": "contracts/BondDepository.sol:OlympusBondDepositoryV2",
            "label": "lastDecay",
            "offset": 6,
            "slot": "0",
            "type": "t_uint48"
          },
          {
            "astId": 13497,
            "contract": "contracts/BondDepository.sol:OlympusBondDepositoryV2",
            "label": "length",
            "offset": 12,
            "slot": "0",
            "type": "t_uint48"
          },
          {
            "astId": 13499,
            "contract": "contracts/BondDepository.sol:OlympusBondDepositoryV2",
            "label": "depositInterval",
            "offset": 18,
            "slot": "0",
            "type": "t_uint48"
          },
          {
            "astId": 13501,
            "contract": "contracts/BondDepository.sol:OlympusBondDepositoryV2",
            "label": "tuneInterval",
            "offset": 24,
            "slot": "0",
            "type": "t_uint48"
          },
          {
            "astId": 13503,
            "contract": "contracts/BondDepository.sol:OlympusBondDepositoryV2",
            "label": "quoteDecimals",
            "offset": 30,
            "slot": "0",
            "type": "t_uint8"
          }
        ],
        "numberOfBytes": "32"
      },
      "t_struct(Note)13837_storage": {
        "encoding": "inplace",
        "label": "struct INoteKeeper.Note",
        "members": [
          {
            "astId": 13828,
            "contract": "contracts/BondDepository.sol:OlympusBondDepositoryV2",
            "label": "payout",
            "offset": 0,
            "slot": "0",
            "type": "t_uint256"
          },
          {
            "astId": 13830,
            "contract": "contracts/BondDepository.sol:OlympusBondDepositoryV2",
            "label": "created",
            "offset": 0,
            "slot": "1",
            "type": "t_uint48"
          },
          {
            "astId": 13832,
            "contract": "contracts/BondDepository.sol:OlympusBondDepositoryV2",
            "label": "matured",
            "offset": 6,
            "slot": "1",
            "type": "t_uint48"
          },
          {
            "astId": 13834,
            "contract": "contracts/BondDepository.sol:OlympusBondDepositoryV2",
            "label": "redeemed",
            "offset": 12,
            "slot": "1",
            "type": "t_uint48"
          },
          {
            "astId": 13836,
            "contract": "contracts/BondDepository.sol:OlympusBondDepositoryV2",
            "label": "marketID",
            "offset": 18,
            "slot": "1",
            "type": "t_uint48"
          }
        ],
        "numberOfBytes": "64"
      },
      "t_struct(Terms)13491_storage": {
        "encoding": "inplace",
        "label": "struct IBondDepository.Terms",
        "members": [
          {
            "astId": 13482,
            "contract": "contracts/BondDepository.sol:OlympusBondDepositoryV2",
            "label": "fixedTerm",
            "offset": 0,
            "slot": "0",
            "type": "t_bool"
          },
          {
            "astId": 13484,
            "contract": "contracts/BondDepository.sol:OlympusBondDepositoryV2",
            "label": "controlVariable",
            "offset": 1,
            "slot": "0",
            "type": "t_uint64"
          },
          {
            "astId": 13486,
            "contract": "contracts/BondDepository.sol:OlympusBondDepositoryV2",
            "label": "vesting",
            "offset": 9,
            "slot": "0",
            "type": "t_uint48"
          },
          {
            "astId": 13488,
            "contract": "contracts/BondDepository.sol:OlympusBondDepositoryV2",
            "label": "conclusion",
            "offset": 15,
            "slot": "0",
            "type": "t_uint48"
          },
          {
            "astId": 13490,
            "contract": "contracts/BondDepository.sol:OlympusBondDepositoryV2",
            "label": "maxDebt",
            "offset": 21,
            "slot": "0",
            "type": "t_uint64"
          }
        ],
        "numberOfBytes": "32"
      },
      "t_uint256": {
        "encoding": "inplace",
        "label": "uint256",
        "numberOfBytes": "32"
      },
      "t_uint48": {
        "encoding": "inplace",
        "label": "uint48",
        "numberOfBytes": "6"
      },
      "t_uint64": {
        "encoding": "inplace",
        "label": "uint64",
        "numberOfBytes": "8"
      },
      "t_uint8": {
        "encoding": "inplace",
        "label": "uint8",
        "numberOfBytes": "1"
      }
    }
  }
}