{
  "address": "0x6e6a212Cf70C4A4D48Ec7e66F33070658383af7d",
  "abi": [
    {
      "inputs": [],
      "stateMutability": "nonpayable",
      "type": "constructor"
    },
    {
      "anonymous": false,
      "inputs": [
        {
          "indexed": true,
          "internalType": "address",
          "name": "owner",
          "type": "address"
        },
        {
          "indexed": true,
          "internalType": "address",
          "name": "spender",
          "type": "address"
        },
        {
          "indexed": false,
          "internalType": "uint256",
          "name": "value",
          "type": "uint256"
        }
      ],
      "name": "Approval",
      "type": "event"
    },
    {
      "anonymous": false,
      "inputs": [
        {
          "indexed": true,
          "internalType": "uint256",
          "name": "epoch",
          "type": "uint256"
        },
        {
          "indexed": false,
          "internalType": "uint256",
          "name": "rebase",
          "type": "uint256"
        },
        {
          "indexed": false,
          "internalType": "uint256",
          "name": "index",
          "type": "uint256"
        }
      ],
      "name": "LogRebase",
      "type": "event"
    },
    {
      "anonymous": false,
      "inputs": [
        {
          "indexed": false,
          "internalType": "address",
          "name": "stakingContract",
          "type": "address"
        }
      ],
      "name": "LogStakingContractUpdated",
      "type": "event"
    },
    {
      "anonymous": false,
      "inputs": [
        {
          "indexed": true,
          "internalType": "uint256",
          "name": "epoch",
          "type": "uint256"
        },
        {
          "indexed": false,
          "internalType": "uint256",
          "name": "totalSupply",
          "type": "uint256"
        }
      ],
      "name": "LogSupply",
      "type": "event"
    },
    {
      "anonymous": false,
      "inputs": [
        {
          "indexed": true,
          "internalType": "address",
          "name": "from",
          "type": "address"
        },
        {
          "indexed": true,
          "internalType": "address",
          "name": "to",
          "type": "address"
        },
        {
          "indexed": false,
          "internalType": "uint256",
          "name": "value",
          "type": "uint256"
        }
      ],
      "name": "Transfer",
      "type": "event"
    },
    {
      "inputs": [],
      "name": "DOMAIN_SEPARATOR",
      "outputs": [
        {
          "internalType": "bytes32",
          "name": "",
          "type": "bytes32"
        }
      ],
      "stateMutability": "view",
      "type": "function"
    },
    {
      "inputs": [
        {
          "internalType": "address",
          "name": "owner_",
          "type": "address"
        },
        {
          "internalType": "address",
          "name": "spender",
          "type": "address"
        }
      ],
      "name": "allowance",
      "outputs": [
        {
          "internalType": "uint256",
          "name": "",
          "type": "uint256"
        }
      ],
      "stateMutability": "view",
      "type": "function"
    },
    {
      "inputs": [
        {
          "internalType": "address",
          "name": "spender",
          "type": "address"
        },
        {
          "internalType": "uint256",
          "name": "value",
          "type": "uint256"
        }
      ],
      "name": "approve",
      "outputs": [
        {
          "internalType": "bool",
          "name": "",
          "type": "bool"
        }
      ],
      "stateMutability": "nonpayable",
      "type": "function"
    },
    {
      "inputs": [
        {
          "internalType": "uint256",
          "name": "gons",
          "type": "uint256"
        }
      ],
      "name": "balanceForGons",
      "outputs": [
        {
          "internalType": "uint256",
          "name": "",
          "type": "uint256"
        }
      ],
      "stateMutability": "view",
      "type": "function"
    },
    {
      "inputs": [
        {
          "internalType": "address",
          "name": "who",
          "type": "address"
        }
      ],
      "name": "balanceOf",
      "outputs": [
        {
          "internalType": "uint256",
          "name": "",
          "type": "uint256"
        }
      ],
      "stateMutability": "view",
      "type": "function"
    },
    {
      "inputs": [
        {
          "internalType": "uint256",
          "name": "amount",
          "type": "uint256"
        },
        {
          "internalType": "address",
          "name": "debtor",
          "type": "address"
        },
        {
          "internalType": "bool",
          "name": "add",
          "type": "bool"
        }
      ],
      "name": "changeDebt",
      "outputs": [],
      "stateMutability": "nonpayable",
      "type": "function"
    },
    {
      "inputs": [],
      "name": "circulatingSupply",
      "outputs": [
        {
          "internalType": "uint256",
          "name": "",
          "type": "uint256"
        }
      ],
      "stateMutability": "view",
      "type": "function"
    },
    {
      "inputs": [
        {
          "internalType": "address",
          "name": "",
          "type": "address"
        }
      ],
      "name": "debtBalances",
      "outputs": [
        {
          "internalType": "uint256",
          "name": "",
          "type": "uint256"
        }
      ],
      "stateMutability": "view",
      "type": "function"
    },
    {
      "inputs": [],
      "name": "decimals",
      "outputs": [
        {
          "internalType": "uint8",
          "name": "",
          "type": "uint8"
        }
      ],
      "stateMutability": "view",
      "type": "function"
    },
    {
      "inputs": [
        {
          "internalType": "address",
          "name": "spender",
          "type": "address"
        },
        {
          "internalType": "uint256",
          "name": "subtractedValue",
          "type": "uint256"
        }
      ],
      "name": "decreaseAllowance",
      "outputs": [
        {
          "internalType": "bool",
          "name": "",
          "type": "bool"
        }
      ],
      "stateMutability": "nonpayable",
      "type": "function"
    },
    {
      "inputs": [
        {
          "internalType": "uint256",
          "name": "amount",
          "type": "uint256"
        }
      ],
      "name": "fromG",
      "outputs": [
        {
          "internalType": "uint256",
          "name": "",
          "type": "uint256"
        }
      ],
      "stateMutability": "view",
      "type": "function"
    },
    {
      "inputs": [],
      "name": "gOHM",
      "outputs": [
        {
          "internalType": "contract IgOHM",
          "name": "",
          "type": "address"
        }
      ],
      "stateMutability": "view",
      "type": "function"
    },
    {
      "inputs": [
        {
          "internalType": "uint256",
          "name": "amount",
          "type": "uint256"
        }
      ],
      "name": "gonsForBalance",
      "outputs": [
        {
          "internalType": "uint256",
          "name": "",
          "type": "uint256"
        }
      ],
      "stateMutability": "view",
      "type": "function"
    },
    {
      "inputs": [
        {
          "internalType": "address",
          "name": "spender",
          "type": "address"
        },
        {
          "internalType": "uint256",
          "name": "addedValue",
          "type": "uint256"
        }
      ],
      "name": "increaseAllowance",
      "outputs": [
        {
          "internalType": "bool",
          "name": "",
          "type": "bool"
        }
      ],
      "stateMutability": "nonpayable",
      "type": "function"
    },
    {
      "inputs": [],
      "name": "index",
      "outputs": [
        {
          "internalType": "uint256",
          "name": "",
          "type": "uint256"
        }
      ],
      "stateMutability": "view",
      "type": "function"
    },
    {
      "inputs": [
        {
          "internalType": "address",
          "name": "_stakingContract",
          "type": "address"
        },
        {
          "internalType": "address",
          "name": "_treasury",
          "type": "address"
        }
      ],
      "name": "initialize",
      "outputs": [],
      "stateMutability": "nonpayable",
      "type": "function"
    },
    {
      "inputs": [],
      "name": "name",
      "outputs": [
        {
          "internalType": "string",
          "name": "",
          "type": "string"
        }
      ],
      "stateMutability": "view",
      "type": "function"
    },
    {
      "inputs": [
        {
          "internalType": "address",
          "name": "owner",
          "type": "address"
        }
      ],
      "name": "nonces",
      "outputs": [
        {
          "internalType": "uint256",
          "name": "",
          "type": "uint256"
        }
      ],
      "stateMutability": "view",
      "type": "function"
    },
    {
      "inputs": [
        {
          "internalType": "address",
          "name": "owner",
          "type": "address"
        },
        {
          "internalType": "address",
          "name": "spender",
          "type": "address"
        },
        {
          "internalType": "uint256",
          "name": "value",
          "type": "uint256"
        },
        {
          "internalType": "uint256",
          "name": "deadline",
          "type": "uint256"
        },
        {
          "internalType": "uint8",
          "name": "v",
          "type": "uint8"
        },
        {
          "internalType": "bytes32",
          "name": "r",
          "type": "bytes32"
        },
        {
          "internalType": "bytes32",
          "name": "s",
          "type": "bytes32"
        }
      ],
      "name": "permit",
      "outputs": [],
      "stateMutability": "nonpayable",
      "type": "function"
    },
    {
      "inputs": [
        {
          "internalType": "uint256",
          "name": "profit_",
          "type": "uint256"
        },
        {
          "internalType": "uint256",
          "name": "epoch_",
          "type": "uint256"
        }
      ],
      "name": "rebase",
      "outputs": [
        {
          "internalType": "uint256",
          "name": "",
          "type": "uint256"
        }
      ],
      "stateMutability": "nonpayable",
      "type": "function"
    },
    {
      "inputs": [
        {
          "internalType": "uint256",
          "name": "",
          "type": "uint256"
        }
      ],
      "name": "rebases",
      "outputs": [
        {
          "internalType": "uint256",
          "name": "epoch",
          "type": "uint256"
        },
        {
          "internalType": "uint256",
          "name": "rebase",
          "type": "uint256"
        },
        {
          "internalType": "uint256",
          "name": "totalStakedBefore",
          "type": "uint256"
        },
        {
          "internalType": "uint256",
          "name": "totalStakedAfter",
          "type": "uint256"
        },
        {
          "internalType": "uint256",
          "name": "amountRebased",
          "type": "uint256"
        },
        {
          "internalType": "uint256",
          "name": "index",
          "type": "uint256"
        },
        {
          "internalType": "uint256",
          "name": "blockNumberOccured",
          "type": "uint256"
        }
      ],
      "stateMutability": "view",
      "type": "function"
    },
    {
      "inputs": [
        {
          "internalType": "uint256",
          "name": "_index",
          "type": "uint256"
        }
      ],
      "name": "setIndex",
      "outputs": [],
      "stateMutability": "nonpayable",
      "type": "function"
    },
    {
      "inputs": [
        {
          "internalType": "address",
          "name": "_gOHM",
          "type": "address"
        }
      ],
      "name": "setgOHM",
      "outputs": [],
      "stateMutability": "nonpayable",
      "type": "function"
    },
    {
      "inputs": [],
      "name": "stakingContract",
      "outputs": [
        {
          "internalType": "address",
          "name": "",
          "type": "address"
        }
      ],
      "stateMutability": "view",
      "type": "function"
    },
    {
      "inputs": [],
      "name": "symbol",
      "outputs": [
        {
          "internalType": "string",
          "name": "",
          "type": "string"
        }
      ],
      "stateMutability": "view",
      "type": "function"
    },
    {
      "inputs": [
        {
          "internalType": "uint256",
          "name": "amount",
          "type": "uint256"
        }
      ],
      "name": "toG",
      "outputs": [
        {
          "internalType": "uint256",
          "name": "",
          "type": "uint256"
        }
      ],
      "stateMutability": "view",
      "type": "function"
    },
    {
      "inputs": [],
      "name": "totalSupply",
      "outputs": [
        {
          "internalType": "uint256",
          "name": "",
          "type": "uint256"
        }
      ],
      "stateMutability": "view",
      "type": "function"
    },
    {
      "inputs": [
        {
          "internalType": "address",
          "name": "to",
          "type": "address"
        },
        {
          "internalType": "uint256",
          "name": "value",
          "type": "uint256"
        }
      ],
      "name": "transfer",
      "outputs": [
        {
          "internalType": "bool",
          "name": "",
          "type": "bool"
        }
      ],
      "stateMutability": "nonpayable",
      "type": "function"
    },
    {
      "inputs": [
        {
          "internalType": "address",
          "name": "from",
          "type": "address"
        },
        {
          "internalType": "address",
          "name": "to",
          "type": "address"
        },
        {
          "internalType": "uint256",
          "name": "value",
          "type": "uint256"
        }
      ],
      "name": "transferFrom",
      "outputs": [
        {
          "internalType": "bool",
          "name": "",
          "type": "bool"
        }
      ],
      "stateMutability": "nonpayable",
      "type": "function"
    },
    {
      "inputs": [],
      "name": "treasury",
      "outputs": [
        {
          "internalType": "address",
          "name": "",
          "type": "address"
        }
      ],
      "stateMutability": "view",
      "type": "function"
    }
  ],
  "transactionHash": "0x1c85fd81157889ece59f9f0c227f6a5c128c6a11567f9107dead9e10e1c7bd9d",
  "args": [],
  "solcInputHash": "6e45698259c27370c24cf97ccde4e3ad",
  "bytecode": "0x6101606040527f6e71edae12b1b97f4d1f60370fef10105fa2faae0126114a169c64845d6126c9610140523480156200003757600080fd5b506040518060400160405280600a8152602001695374616b6564204f484d60b01b81525080604051806040016040528060018152602001603160f81b8152506040518060400160405280600a8152602001695374616b6564204f484d60b01b81525060405180604001604052806004815260200163734f484d60e01b81525060098260039080519060200190620000d0929190620002a7565b508151620000e6906004906020850190620002a7565b5060ff166080908152845160209586012084519486019490942060e08590526101008190524660c0818152604080517f8b73c3c69bb8fe3d512ecc4cf759cc79239f7b179b0ffacaa9a75d522b39400f818b01819052818301999099526060810194909452938301919091523060a08084019190915283518084038201815292909101909252805195019490942090935250610120525050600680546001600160a01b031916331790556611c37937e080006002819055620001d290620001b08160001962000363565b620001be9060001962000390565b620001db60201b620013801790919060201c565b600b55620004a9565b60006200022583836040518060400160405280601a81526020017f536166654d6174683a206469766973696f6e206279207a65726f0000000000008152506200022c60201b60201c565b9392505050565b60008183620002595760405162461bcd60e51b8152600401620002509190620003aa565b60405180910390fd5b50600062000268848662000402565b905062000276848662000363565b62000282828662000419565b6200028e91906200043b565b85146200029f576200029f62000456565b949350505050565b828054620002b5906200046c565b90600052602060002090601f016020900481019282620002d9576000855562000324565b82601f10620002f457805160ff191683800117855562000324565b8280016001018555821562000324579182015b828111156200032457825182559160200191906001019062000307565b506200033292915062000336565b5090565b5b8082111562000332576000815560010162000337565b634e487b7160e01b600052601260045260246000fd5b6000826200037557620003756200034d565b500690565b634e487b7160e01b600052601160045260246000fd5b600082821015620003a557620003a56200037a565b500390565b600060208083528351808285015260005b81811015620003d957858101830151858201604001528201620003bb565b81811115620003ec576000604083870101525b50601f01601f1916929092016040019392505050565b6000826200041457620004146200034d565b500490565b60008160001904831182151516156200043657620004366200037a565b500290565b600082198211156200045157620004516200037a565b500190565b634e487b7160e01b600052600160045260246000fd5b600181811c908216806200048157607f821691505b60208210811415620004a357634e487b7160e01b600052602260045260246000fd5b50919050565b60805160a05160c05160e051610100516101205161014051611f0d620005046000396000611270015260006116e2015260006117310152600061170c0152600061168d015260006116b5015260006102cd0152611f0d6000f3fe608060405234801561001057600080fd5b50600436106101da5760003560e01c806361d027b311610104578063a457c2d7116100a2578063c4ef1c4c11610071578063c4ef1c4c14610428578063d505accf14610448578063dd62ed3e1461045b578063ee99205c1461049457600080fd5b8063a457c2d7146103dc578063a9059cbb146103ef578063ae5c6cd314610402578063b8fbd5331461041557600080fd5b80637965d56d116100de5780637965d56d146103a65780637ecebe00146103b95780639358928b146103cc57806395d89b41146103d457600080fd5b806361d027b31461033857806370a082311461034b57806373c69eb71461035e57600080fd5b806323b872dd1161017c5780633644e5151161014b5780633644e515146102f757806339509351146102ff57806340a5737f14610312578063485cc9551461032557600080fd5b806323b872dd14610296578063245c0e99146102a95780632986c0e5146102be578063313ce567146102c657600080fd5b8063095ea7b3116101b8578063095ea7b31461022d5780630cd305851461025057806318160ddd1461027b5780631bd396741461028357600080fd5b8063058ecdb4146101df57806306fdde0314610205578063095be8181461021a575b600080fd5b6101f26101ed366004611b85565b6104a7565b6040519081526020015b60405180910390f35b61020d61065c565b6040516101fc9190611ba7565b6101f2610228366004611bfc565b6106ee565b61024061023b366004611c31565b61075d565b60405190151581526020016101fc565b600954610263906001600160a01b031681565b6040516001600160a01b0390911681526020016101fc565b6002546101f2565b6101f2610291366004611bfc565b610773565b6102406102a4366004611c5b565b61078a565b6102bc6102b7366004611c97565b61094d565b005b6101f2610a54565b60405160ff7f00000000000000000000000000000000000000000000000000000000000000001681526020016101fc565b6101f2610a66565b61024061030d366004611c31565b610a70565b6102bc610320366004611bfc565b610aab565b6102bc610333366004611cb2565b610b2d565b600e54610263906001600160a01b031681565b6101f2610359366004611c97565b610ceb565b61037161036c366004611bfc565b610d13565b604080519788526020880196909652948601939093526060850191909152608084015260a083015260c082015260e0016101fc565b6101f26103b4366004611bfc565b610d65565b6101f26103c7366004611c97565b610d7c565b6101f2610d9a565b61020d610f14565b6102406103ea366004611c31565b610f23565b6102406103fd366004611c31565b610f78565b6102bc610410366004611ce5565b6110a7565b6101f2610423366004611bfc565b6111ea565b6101f2610436366004611c97565b600f6020526000908152604090205481565b6102bc610456366004611d2a565b61121c565b6101f2610469366004611cb2565b6001600160a01b039182166000908152600d6020908152604080832093909416825291909152205490565b600854610263906001600160a01b031681565b6008546000906001600160a01b031633146105205760405162461bcd60e51b815260206004820152602e60248201527f5374616b696e67436f6e74726163743a202063616c6c206973206e6f7420737460448201526d185ada5b99c818dbdb9d1c9858dd60921b60648201526084015b60405180910390fd5b60008061052b610d9a565b9050846105be57837f0417b340e646d4be71f9b2da63b5c3c69bc9cfa069f0e0db4756271886130bf460025460405161056691815260200190565b60405180910390a2837f6012dbce857565c4a40974aa5de8373a761fc429077ef0c8c8611d1e20d63fb2600061059a610a54565b6040805192835260208301919091520160405180910390a260025492505050610656565b80156105ea576105e3816105dd600254886113c990919063ffffffff16565b90611380565b91506105ee565b8491505b6002546105fb9083611448565b60028190556001600160801b03101561061a576001600160801b036002555b600254610640906106346611c37937e08000600019611db3565b6105dd90600019611ddd565b600b5561064e8186866114a7565b600254925050505b92915050565b60606003805461066b90611df4565b80601f016020809104026020016040519081016040528092919081815260200182805461069790611df4565b80156106e45780601f106106b9576101008083540402835291602001916106e4565b820191906000526020600020905b8154815290600101906020018083116106c757829003601f168201915b5050505050905090565b6009546040516319a948db60e21b8152600481018390526000916001600160a01b0316906366a5236c906024015b602060405180830381865afa158015610739573d6000803e3d6000fd5b505050506040513d601f19601f820116820180604052508101906106569190611e29565b600061076a3384846115e5565b50600192915050565b6000610656600b54836113c990919063ffffffff16565b6001600160a01b0383166000908152600d602090815260408083203384529091528120546107b89083611646565b6001600160a01b0385166000818152600d6020908152604080832033808552908352928190208590555193845290927f8c5be1e5ebec7d5bd14f71427d1e84f3dd0314c0f7b2291e5b200ac8c7c3b925910160405180910390a3600061081d83610773565b6001600160a01b0386166000908152600c60205260409020549091506108439082611646565b6001600160a01b038087166000908152600c602052604080822093909355908616815220546108729082611448565b6001600160a01b038086166000908152600c60209081526040808320949094559188168152600f90915220546108a786610ceb565b10156108f55760405162461bcd60e51b815260206004820152601c60248201527f446562743a2063616e6e6f74207472616e7366657220616d6f756e74000000006044820152606401610517565b836001600160a01b0316856001600160a01b03167fddf252ad1be2c89b69c2b068fc378daa952ba7f163c4a11628f55a4df523b3ef8560405161093a91815260200190565b60405180910390a3506001949350505050565b6006546001600160a01b031633146109775760405162461bcd60e51b815260040161051790611e42565b6009546001600160a01b0316156109d05760405162461bcd60e51b815260206004820152601760248201527f674f484d3a2020674f484d20616c7265616479207365740000000000000000006044820152606401610517565b6001600160a01b038116610a325760405162461bcd60e51b815260206004820152602360248201527f674f484d3a2020674f484d206973206e6f7420612076616c696420636f6e74726044820152621858dd60ea1b6064820152608401610517565b600980546001600160a01b0319166001600160a01b0392909216919091179055565b6000610a61600754610d65565b905090565b6000610a61611688565b336000818152600d602090815260408083206001600160a01b0387168452909152812054909161076a918590610aa69086611448565b6115e5565b6006546001600160a01b03163314610ad55760405162461bcd60e51b815260040161051790611e42565b60075415610b1e5760405162461bcd60e51b815260206004820152601660248201527521b0b73737ba1039b2ba1024a72222ac1030b3b0b4b760511b6044820152606401610517565b610b2781610773565b60075550565b6006546001600160a01b03163314610b575760405162461bcd60e51b815260040161051790611e42565b6001600160a01b038216610b975760405162461bcd60e51b81526020600482015260076024820152665374616b696e6760c81b6044820152606401610517565b600880546001600160a01b0319166001600160a01b038416179055610bc56611c37937e08000600019611db3565b610bd190600019611ddd565b6008546001600160a01b039081166000908152600c60205260409020919091558116610c385760405162461bcd60e51b81526020600482015260166024820152755a65726f20616464726573733a20547265617375727960501b6044820152606401610517565b600e80546001600160a01b0319166001600160a01b03838116919091179091556008546002546040519081529116906000907fddf252ad1be2c89b69c2b068fc378daa952ba7f163c4a11628f55a4df523b3ef9060200160405180910390a36008546040516001600160a01b0390911681527f817c653428858ed536dc085c5d8273734c517b55de44b55f5c5877a75e3373a19060200160405180910390a15050600680546001600160a01b0319169055565b600b546001600160a01b0382166000908152600c602052604081205490916106569190611380565b600a8181548110610d2357600080fd5b90600052602060002090600702016000915090508060000154908060010154908060020154908060030154908060040154908060050154908060060154905087565b6000610656600b548361138090919063ffffffff16565b6001600160a01b038116600090815260056020526040812054610656565b6000610a61600860009054906101000a90046001600160a01b03166001600160a01b031663201386416040518163ffffffff1660e01b8152600401602060405180830381865afa158015610df2573d6000803e3d6000fd5b505050506040513d601f19601f82011682018060405250810190610e169190611e29565b600954604080516318160ddd60e01b81529051610f0e926001600160a01b03169163a82487689183916318160ddd9160048083019260209291908290030181865afa158015610e69573d6000803e3d6000fd5b505050506040513d601f19601f82011682018060405250810190610e8d9190611e29565b6040518263ffffffff1660e01b8152600401610eab91815260200190565b602060405180830381865afa158015610ec8573d6000803e3d6000fd5b505050506040513d601f19601f82011682018060405250810190610eec9190611e29565b600854610f0e90610f05906001600160a01b0316610ceb565b60025490611646565b90611448565b60606004805461066b90611df4565b336000908152600d602090815260408083206001600160a01b0386168452909152812054808310610f5f57610f5a338560006115e5565b610f6e565b610f6e3385610aa68487611646565b5060019392505050565b600080610f90600b54846113c990919063ffffffff16565b336000908152600c6020526040902054909150610fad9082611646565b336000908152600c6020526040808220929092556001600160a01b03861681522054610fd99082611448565b6001600160a01b0385166000908152600c602090815260408083209390935533808352600f909152919020549061100f90610ceb565b101561105d5760405162461bcd60e51b815260206004820152601c60248201527f446562743a2063616e6e6f74207472616e7366657220616d6f756e74000000006044820152606401610517565b6040518381526001600160a01b0385169033907fddf252ad1be2c89b69c2b068fc378daa952ba7f163c4a11628f55a4df523b3ef9060200160405180910390a35060019392505050565b600e546001600160a01b031633146110f15760405162461bcd60e51b815260206004820152600d60248201526c4f6e6c7920747265617375727960981b6044820152606401610517565b8015611138576001600160a01b0382166000908152600f602052604090205461111a9084611448565b6001600160a01b0383166000908152600f6020526040902055611175565b6001600160a01b0382166000908152600f602052604090205461115b9084611646565b6001600160a01b0383166000908152600f60205260409020555b61117e82610ceb565b6001600160a01b0383166000908152600f602052604090205411156111e55760405162461bcd60e51b815260206004820152601a60248201527f734f484d3a20696e73756666696369656e742062616c616e63650000000000006044820152606401610517565b505050565b60095460405163150490ed60e31b8152600481018390526000916001600160a01b03169063a82487689060240161071c565b8342111561126c5760405162461bcd60e51b815260206004820152601d60248201527f45524332305065726d69743a206578706972656420646561646c696e650000006044820152606401610517565b60007f000000000000000000000000000000000000000000000000000000000000000088888861129b8c61177f565b6040805160208101969096526001600160a01b0394851690860152929091166060840152608083015260a082015260c0810186905260e00160405160208183030381529060405280519060200120905060006112f6826117a9565b90506000611306828787876117f7565b9050896001600160a01b0316816001600160a01b0316146113695760405162461bcd60e51b815260206004820152601e60248201527f45524332305065726d69743a20696e76616c6964207369676e617475726500006044820152606401610517565b6113748a8a8a6115e5565b50505050505050505050565b60006113c283836040518060400160405280601a81526020017f536166654d6174683a206469766973696f6e206279207a65726f00000000000081525061181f565b9392505050565b6000826113d857506000610656565b60006113e48385611e89565b9050826113f18583611ea8565b146113c25760405162461bcd60e51b815260206004820152602160248201527f536166654d6174683a206d756c7469706c69636174696f6e206f766572666c6f6044820152607760f81b6064820152608401610517565b6000806114558385611ebc565b9050838110156113c25760405162461bcd60e51b815260206004820152601b60248201527f536166654d6174683a206164646974696f6e206f766572666c6f7700000000006044820152606401610517565b60006114bf846105dd85670de0b6b3a76400006113c9565b9050600a6040518060e001604052808481526020018381526020018681526020016114e8610d9a565b81526020018581526020016114fb610a54565b81524360209182015282546001808201855560009485529382902083516007909202019081558282015193810193909355604080830151600280860191909155606084015160038601556080840151600486015560a0840151600586015560c0909301516006909401939093559054915191825283917f0417b340e646d4be71f9b2da63b5c3c69bc9cfa069f0e0db4756271886130bf4910160405180910390a2817f6012dbce857565c4a40974aa5de8373a761fc429077ef0c8c8611d1e20d63fb2826115c7610a54565b6040805192835260208301919091520160405180910390a250505050565b6001600160a01b038381166000818152600d602090815260408083209487168084529482529182902085905590518481527f8c5be1e5ebec7d5bd14f71427d1e84f3dd0314c0f7b2291e5b200ac8c7c3b925910160405180910390a3505050565b60006113c283836040518060400160405280601e81526020017f536166654d6174683a207375627472616374696f6e206f766572666c6f770000815250611883565b6000467f00000000000000000000000000000000000000000000000000000000000000008114156116da577f000000000000000000000000000000000000000000000000000000000000000091505090565b5050604080517f00000000000000000000000000000000000000000000000000000000000000006020808301919091527f0000000000000000000000000000000000000000000000000000000000000000828401527f000000000000000000000000000000000000000000000000000000000000000060608301524660808301523060a0808401919091528351808403909101815260c0909201909252805191012090565b6001600160a01b03811660009081526005602052604090208054906117a3816118bd565b50919050565b60006106566117b6611688565b8360405161190160f01b6020820152602281018390526042810182905260009060620160405160208183030381529060405280519060200120905092915050565b6000806000611808878787876118da565b91509150611815816119c7565b5095945050505050565b600081836118405760405162461bcd60e51b81526004016105179190611ba7565b50600061184d8486611ea8565b90506118598486611db3565b6118638286611e89565b61186d9190611ebc565b851461187b5761187b611ed4565b949350505050565b600081848411156118a75760405162461bcd60e51b81526004016105179190611ba7565b5060006118b48486611ddd565b95945050505050565b60018160000160008282546118d29190611ebc565b909155505050565b6000807f7fffffffffffffffffffffffffffffff5d576e7357a4501ddfe92f46681b20a083111561191157506000905060036119be565b8460ff16601b1415801561192957508460ff16601c14155b1561193a57506000905060046119be565b6040805160008082526020820180845289905260ff881692820192909252606081018690526080810185905260019060a0016020604051602081039080840390855afa15801561198e573d6000803e3d6000fd5b5050604051601f1901519150506001600160a01b0381166119b7576000600192509250506119be565b9150600090505b94509492505050565b60008160048111156119db576119db611eea565b14156119e45750565b60018160048111156119f8576119f8611eea565b1415611a465760405162461bcd60e51b815260206004820152601860248201527f45434453413a20696e76616c6964207369676e617475726500000000000000006044820152606401610517565b6002816004811115611a5a57611a5a611eea565b1415611aa85760405162461bcd60e51b815260206004820152601f60248201527f45434453413a20696e76616c6964207369676e6174757265206c656e677468006044820152606401610517565b6003816004811115611abc57611abc611eea565b1415611b155760405162461bcd60e51b815260206004820152602260248201527f45434453413a20696e76616c6964207369676e6174757265202773272076616c604482015261756560f01b6064820152608401610517565b6004816004811115611b2957611b29611eea565b1415611b825760405162461bcd60e51b815260206004820152602260248201527f45434453413a20696e76616c6964207369676e6174757265202776272076616c604482015261756560f01b6064820152608401610517565b50565b60008060408385031215611b9857600080fd5b50508035926020909101359150565b600060208083528351808285015260005b81811015611bd457858101830151858201604001528201611bb8565b81811115611be6576000604083870101525b50601f01601f1916929092016040019392505050565b600060208284031215611c0e57600080fd5b5035919050565b80356001600160a01b0381168114611c2c57600080fd5b919050565b60008060408385031215611c4457600080fd5b611c4d83611c15565b946020939093013593505050565b600080600060608486031215611c7057600080fd5b611c7984611c15565b9250611c8760208501611c15565b9150604084013590509250925092565b600060208284031215611ca957600080fd5b6113c282611c15565b60008060408385031215611cc557600080fd5b611cce83611c15565b9150611cdc60208401611c15565b90509250929050565b600080600060608486031215611cfa57600080fd5b83359250611d0a60208501611c15565b915060408401358015158114611d1f57600080fd5b809150509250925092565b600080600080600080600060e0888a031215611d4557600080fd5b611d4e88611c15565b9650611d5c60208901611c15565b95506040880135945060608801359350608088013560ff81168114611d8057600080fd5b9699959850939692959460a0840135945060c09093013592915050565b634e487b7160e01b600052601260045260246000fd5b600082611dc257611dc2611d9d565b500690565b634e487b7160e01b600052601160045260246000fd5b600082821015611def57611def611dc7565b500390565b600181811c90821680611e0857607f821691505b602082108114156117a357634e487b7160e01b600052602260045260246000fd5b600060208284031215611e3b57600080fd5b5051919050565b60208082526027908201527f496e697469616c697a65723a202063616c6c6572206973206e6f7420696e697460408201526634b0b634bd32b960c91b606082015260800190565b6000816000190483118215151615611ea357611ea3611dc7565b500290565b600082611eb757611eb7611d9d565b500490565b60008219821115611ecf57611ecf611dc7565b500190565b634e487b7160e01b600052600160045260246000fd5b634e487b7160e01b600052602160045260246000fdfea164736f6c634300080a000a",
  "devdoc": {
    "kind": "dev",
    "methods": {
      "DOMAIN_SEPARATOR()": {
        "details": "See {IERC20Permit-DOMAIN_SEPARATOR}."
      },
      "nonces(address)": {
        "details": "See {IERC20Permit-nonces}."
      },
      "permit(address,address,uint256,uint256,uint8,bytes32,bytes32)": {
        "details": "See {IERC20Permit-permit}."
      },
      "rebase(uint256,uint256)": {
        "params": {
          "profit_": "uint256"
        },
        "returns": {
          "_0": "uint256"
        }
      }
    },
    "version": 1
  },
  "userdoc": {
    "kind": "user",
    "methods": {
      "rebase(uint256,uint256)": {
        "notice": "increases rOHM supply to increase staking balances relative to profit_"
      }
    },
    "version": 1
  },
  "storageLayout": {
    "storage": [
      {
        "astId": 20896,
        "contract": "contracts/sOlympusERC20.sol:sOlympus",
        "label": "_balances",
        "offset": 0,
        "slot": "0",
        "type": "t_mapping(t_address,t_uint256)"
      },
      {
        "astId": 20902,
        "contract": "contracts/sOlympusERC20.sol:sOlympus",
        "label": "_allowances",
        "offset": 0,
        "slot": "1",
        "type": "t_mapping(t_address,t_mapping(t_address,t_uint256))"
      },
      {
        "astId": 20904,
        "contract": "contracts/sOlympusERC20.sol:sOlympus",
        "label": "_totalSupply",
        "offset": 0,
        "slot": "2",
        "type": "t_uint256"
      },
      {
        "astId": 20906,
        "contract": "contracts/sOlympusERC20.sol:sOlympus",
        "label": "_name",
        "offset": 0,
        "slot": "3",
        "type": "t_string_storage"
      },
      {
        "astId": 20908,
        "contract": "contracts/sOlympusERC20.sol:sOlympus",
        "label": "_symbol",
        "offset": 0,
        "slot": "4",
        "type": "t_string_storage"
      },
      {
        "astId": 21379,
        "contract": "contracts/sOlympusERC20.sol:sOlympus",
        "label": "_nonces",
        "offset": 0,
        "slot": "5",
        "type": "t_mapping(t_address,t_struct(Counter)15024_storage)"
      },
      {
        "astId": 19989,
        "contract": "contracts/sOlympusERC20.sol:sOlympus",
        "label": "initializer",
        "offset": 0,
        "slot": "6",
        "type": "t_address"
      },
      {
        "astId": 19991,
        "contract": "contracts/sOlympusERC20.sol:sOlympus",
        "label": "INDEX",
        "offset": 0,
        "slot": "7",
        "type": "t_uint256"
      },
      {
        "astId": 19993,
        "contract": "contracts/sOlympusERC20.sol:sOlympus",
        "label": "stakingContract",
        "offset": 0,
        "slot": "8",
        "type": "t_address"
      },
      {
        "astId": 19996,
        "contract": "contracts/sOlympusERC20.sol:sOlympus",
        "label": "gOHM",
        "offset": 0,
        "slot": "9",
        "type": "t_contract(IgOHM)14567"
      },
      {
        "astId": 20000,
        "contract": "contracts/sOlympusERC20.sol:sOlympus",
        "label": "rebases",
        "offset": 0,
        "slot": "10",
        "type": "t_array(t_struct(Rebase)19987_storage)dyn_storage"
      },
      {
        "astId": 20031,
        "contract": "contracts/sOlympusERC20.sol:sOlympus",
        "label": "_gonsPerFragment",
        "offset": 0,
        "slot": "11",
        "type": "t_uint256"
      },
      {
        "astId": 20035,
        "contract": "contracts/sOlympusERC20.sol:sOlympus",
        "label": "_gonBalances",
        "offset": 0,
        "slot": "12",
        "type": "t_mapping(t_address,t_uint256)"
      },
      {
        "astId": 20041,
        "contract": "contracts/sOlympusERC20.sol:sOlympus",
        "label": "_allowedValue",
        "offset": 0,
        "slot": "13",
        "type": "t_mapping(t_address,t_mapping(t_address,t_uint256))"
      },
      {
        "astId": 20043,
        "contract": "contracts/sOlympusERC20.sol:sOlympus",
        "label": "treasury",
        "offset": 0,
        "slot": "14",
        "type": "t_address"
      },
      {
        "astId": 20048,
        "contract": "contracts/sOlympusERC20.sol:sOlympus",
        "label": "debtBalances",
        "offset": 0,
        "slot": "15",
        "type": "t_mapping(t_address,t_uint256)"
      }
    ],
    "types": {
      "t_address": {
        "encoding": "inplace",
        "label": "address",
        "numberOfBytes": "20"
      },
      "t_array(t_struct(Rebase)19987_storage)dyn_storage": {
        "base": "t_struct(Rebase)19987_storage",
        "encoding": "dynamic_array",
        "label": "struct sOlympus.Rebase[]",
        "numberOfBytes": "32"
      },
      "t_contract(IgOHM)14567": {
        "encoding": "inplace",
        "label": "contract IgOHM",
        "numberOfBytes": "20"
      },
      "t_mapping(t_address,t_mapping(t_address,t_uint256))": {
        "encoding": "mapping",
        "key": "t_address",
        "label": "mapping(address => mapping(address => uint256))",
        "numberOfBytes": "32",
        "value": "t_mapping(t_address,t_uint256)"
      },
      "t_mapping(t_address,t_struct(Counter)15024_storage)": {
        "encoding": "mapping",
        "key": "t_address",
        "label": "mapping(address => struct Counters.Counter)",
        "numberOfBytes": "32",
        "value": "t_struct(Counter)15024_storage"
      },
      "t_mapping(t_address,t_uint256)": {
        "encoding": "mapping",
        "key": "t_address",
        "label": "mapping(address => uint256)",
        "numberOfBytes": "32",
        "value": "t_uint256"
      },
      "t_string_storage": {
        "encoding": "bytes",
        "label": "string",
        "numberOfBytes": "32"
      },
      "t_struct(Counter)15024_storage": {
        "encoding": "inplace",
        "label": "struct Counters.Counter",
        "members": [
          {
            "astId": 15023,
            "contract": "contracts/sOlympusERC20.sol:sOlympus",
            "label": "_value",
            "offset": 0,
            "slot": "0",
            "type": "t_uint256"
          }
        ],
        "numberOfBytes": "32"
      },
      "t_struct(Rebase)19987_storage": {
        "encoding": "inplace",
        "label": "struct sOlympus.Rebase",
        "members": [
          {
            "astId": 19974,
            "contract": "contracts/sOlympusERC20.sol:sOlympus",
            "label": "epoch",
            "offset": 0,
            "slot": "0",
            "type": "t_uint256"
          },
          {
            "astId": 19976,
            "contract": "contracts/sOlympusERC20.sol:sOlympus",
            "label": "rebase",
            "offset": 0,
            "slot": "1",
            "type": "t_uint256"
          },
          {
            "astId": 19978,
            "contract": "contracts/sOlympusERC20.sol:sOlympus",
            "label": "totalStakedBefore",
            "offset": 0,
            "slot": "2",
            "type": "t_uint256"
          },
          {
            "astId": 19980,
            "contract": "contracts/sOlympusERC20.sol:sOlympus",
            "label": "totalStakedAfter",
            "offset": 0,
            "slot": "3",
            "type": "t_uint256"
          },
          {
            "astId": 19982,
            "contract": "contracts/sOlympusERC20.sol:sOlympus",
            "label": "amountRebased",
            "offset": 0,
            "slot": "4",
            "type": "t_uint256"
          },
          {
            "astId": 19984,
            "contract": "contracts/sOlympusERC20.sol:sOlympus",
            "label": "index",
            "offset": 0,
            "slot": "5",
            "type": "t_uint256"
          },
          {
            "astId": 19986,
            "contract": "contracts/sOlympusERC20.sol:sOlympus",
            "label": "blockNumberOccured",
            "offset": 0,
            "slot": "6",
            "type": "t_uint256"
          }
        ],
        "numberOfBytes": "224"
      },
      "t_uint256": {
        "encoding": "inplace",
        "label": "uint256",
        "numberOfBytes": "32"
      }
    }
  }
}