{
  "address": "0x4b2Eff130B5260f61209e5eaCCC14957308f167C",
  "abi": [
    {
      "inputs": [
        {
          "internalType": "address",
          "name": "_treasury",
          "type": "address"
        },
        {
          "internalType": "address",
          "name": "_ohm",
          "type": "address"
        },
        {
          "internalType": "address",
          "name": "_staking",
          "type": "address"
        },
        {
          "internalType": "address",
          "name": "_authority",
          "type": "address"
        }
      ],
      "stateMutability": "nonpayable",
      "type": "constructor"
    },
    {
      "anonymous": false,
      "inputs": [
        {
          "indexed": true,
          "internalType": "contract IOlympusAuthority",
          "name": "authority",
          "type": "address"
        }
      ],
      "name": "AuthorityUpdated",
      "type": "event"
    },
    {
      "inputs": [
        {
          "internalType": "address",
          "name": "_recipient",
          "type": "address"
        },
        {
          "internalType": "uint256",
          "name": "_rewardRate",
          "type": "uint256"
        }
      ],
      "name": "addRecipient",
      "outputs": [],
      "stateMutability": "nonpayable",
      "type": "function"
    },
    {
      "inputs": [
        {
          "internalType": "uint256",
          "name": "",
          "type": "uint256"
        }
      ],
      "name": "adjustments",
      "outputs": [
        {
          "internalType": "bool",
          "name": "add",
          "type": "bool"
        },
        {
          "internalType": "uint256",
          "name": "rate",
          "type": "uint256"
        },
        {
          "internalType": "uint256",
          "name": "target",
          "type": "uint256"
        }
      ],
      "stateMutability": "view",
      "type": "function"
    },
    {
      "inputs": [],
      "name": "authority",
      "outputs": [
        {
          "internalType": "contract IOlympusAuthority",
          "name": "",
          "type": "address"
        }
      ],
      "stateMutability": "view",
      "type": "function"
    },
    {
      "inputs": [],
      "name": "bounty",
      "outputs": [
        {
          "internalType": "uint256",
          "name": "",
          "type": "uint256"
        }
      ],
      "stateMutability": "view",
      "type": "function"
    },
    {
      "inputs": [],
      "name": "distribute",
      "outputs": [],
      "stateMutability": "nonpayable",
      "type": "function"
    },
    {
      "inputs": [
        {
          "internalType": "uint256",
          "name": "",
          "type": "uint256"
        }
      ],
      "name": "info",
      "outputs": [
        {
          "internalType": "uint256",
          "name": "rate",
          "type": "uint256"
        },
        {
          "internalType": "address",
          "name": "recipient",
          "type": "address"
        }
      ],
      "stateMutability": "view",
      "type": "function"
    },
    {
      "inputs": [
        {
          "internalType": "uint256",
          "name": "_rate",
          "type": "uint256"
        }
      ],
      "name": "nextRewardAt",
      "outputs": [
        {
          "internalType": "uint256",
          "name": "",
          "type": "uint256"
        }
      ],
      "stateMutability": "view",
      "type": "function"
    },
    {
      "inputs": [
        {
          "internalType": "address",
          "name": "_recipient",
          "type": "address"
        }
      ],
      "name": "nextRewardFor",
      "outputs": [
        {
          "internalType": "uint256",
          "name": "",
          "type": "uint256"
        }
      ],
      "stateMutability": "view",
      "type": "function"
    },
    {
      "inputs": [
        {
          "internalType": "uint256",
          "name": "_index",
          "type": "uint256"
        }
      ],
      "name": "removeRecipient",
      "outputs": [],
      "stateMutability": "nonpayable",
      "type": "function"
    },
    {
      "inputs": [],
      "name": "retrieveBounty",
      "outputs": [
        {
          "internalType": "uint256",
          "name": "",
          "type": "uint256"
        }
      ],
      "stateMutability": "nonpayable",
      "type": "function"
    },
    {
      "inputs": [
        {
          "internalType": "uint256",
          "name": "_index",
          "type": "uint256"
        },
        {
          "internalType": "bool",
          "name": "_add",
          "type": "bool"
        },
        {
          "internalType": "uint256",
          "name": "_rate",
          "type": "uint256"
        },
        {
          "internalType": "uint256",
          "name": "_target",
          "type": "uint256"
        }
      ],
      "name": "setAdjustment",
      "outputs": [],
      "stateMutability": "nonpayable",
      "type": "function"
    },
    {
      "inputs": [
        {
          "internalType": "contract IOlympusAuthority",
          "name": "_newAuthority",
          "type": "address"
        }
      ],
      "name": "setAuthority",
      "outputs": [],
      "stateMutability": "nonpayable",
      "type": "function"
    },
    {
      "inputs": [
        {
          "internalType": "uint256",
          "name": "_bounty",
          "type": "uint256"
        }
      ],
      "name": "setBounty",
      "outputs": [],
      "stateMutability": "nonpayable",
      "type": "function"
    }
  ],
  "transactionHash": "0xe979a04aaa8ebed4cf9de5a47f1c70a8d49ff9d31d13c52a46e1b28035118ab8",
  "args": [
    "0x49535eC4558905285eAADE71D86e900423118191",
    "0x91262A444670148f94A132f021c3d53EF5C38ce3",
    "0x40A4D5c6C8C069F83dc4c75319f4F8e6122b05Bd",
    "0x1CC46051c740b24f7BB988195d62b2E29b1a5b7F"
  ],
  "solcInputHash": "a42be5bfed0b8056a98b00dabeed2cce",
  "bytecode": "0x610140604052600c6101008190526b15539055551213d49256915160a21b61012090815262000032916000919062000216565b50620f424060e0523480156200004757600080fd5b50604051620019c3380380620019c3833981810160405260808110156200006d57600080fd5b5080516020820151604080840151606090940151600180546001600160a01b0319166001600160a01b038316908117909155915193949293909182917f2f658b440c35314f52658ea8a740e05b284cdc84dc9ae01e891f21b8933e7cad90600090a2506001600160a01b0384166200012c576040805162461bcd60e51b815260206004820152601660248201527f5a65726f20616464726573733a20547265617375727900000000000000000000604482015290519081900360640190fd5b6001600160601b0319606085901b1660a0526001600160a01b0383166200018e576040805162461bcd60e51b81526020600482015260116024820152705a65726f20616464726573733a204f484d60781b604482015290519081900360640190fd5b6001600160601b0319606084901b166080526001600160a01b038216620001fc576040805162461bcd60e51b815260206004820152601560248201527f5a65726f20616464726573733a205374616b696e670000000000000000000000604482015290519081900360640190fd5b5060601b6001600160601b03191660c05250620002c29050565b828054600181600116156101000203166002900490600052602060002090601f0160209004810192826200024e576000855562000299565b82601f106200026957805160ff191683800117855562000299565b8280016001018555821562000299579182015b82811115620002995782518255916020019190600101906200027c565b50620002a7929150620002ab565b5090565b5b80821115620002a75760008155600101620002ac565b60805160601c60a05160601c60c05160601c60e0516116ae6200031560003980610c0952806110b8525080610cc85280610e4d5280610ee7525080610d5f5280610eb8525080610c2e52506116ae6000f3fe608060405234801561001057600080fd5b50600436106100cf5760003560e01c8063943dfef11161008c578063c9fa8b2a11610066578063c9fa8b2a14610246578063e4fc6b6d14610263578063e7187e8a1461026b578063f798224314610273576100cf565b8063943dfef1146101dd578063bc3b2b12146101e5578063bf7e214f14610222576100cf565b80632e340599146100d457806336d33f44146101125780635d87d3631461014a5780635db854b0146101695780637a9e5e4b1461019a5780638e69e255146101c0575b600080fd5b6100f1600480360360208110156100ea57600080fd5b503561029f565b604080519283526001600160a01b0390911660208301528051918290030190f35b6101386004803603602081101561012857600080fd5b50356001600160a01b03166102d6565b60408051918252519081900360200190f35b6101676004803603602081101561016057600080fd5b5035610363565b005b6101676004803603608081101561017f57600080fd5b508035906020810135151590604081013590606001356104d2565b610167600480360360208110156101b057600080fd5b50356001600160a01b031661085b565b610167600480360360208110156101d657600080fd5b5035610991565b610138610bc7565b610202600480360360208110156101fb57600080fd5b5035610bcd565b604080519315158452602084019290925282820152519081900360600190f35b61022a610bf3565b604080516001600160a01b039092168252519081900360200190f35b6101386004803603602081101561025c57600080fd5b5035610c02565b610167610cbd565b610138610e40565b6101676004803603604081101561028957600080fd5b506001600160a01b038135169060200135610f6f565b600481815481106102af57600080fd5b6000918252602090912060029091020180546001909101549091506001600160a01b031682565b60008060005b60045481101561035c57836001600160a01b0316600482815481106102fd57fe5b60009182526020909120600160029092020101546001600160a01b031614156103545761035161034a6004838154811061033357fe5b906000526020600020906002020160000154610c02565b83906111c0565b91505b6001016102dc565b5092915050565b600160009054906101000a90046001600160a01b03166001600160a01b0316630c340a246040518163ffffffff1660e01b815260040160206040518083038186803b1580156103b157600080fd5b505afa1580156103c5573d6000803e3d6000fd5b505050506040513d60208110156103db57600080fd5b50516000906001600160a01b031633146104885760405162461bcd60e51b81526020600482019081528254600260001961010060018416150201909116046024830181905290918291604490910190849080156104795780601f1061044e57610100808354040283529160200191610479565b820191906000526020600020905b81548152906001019060200180831161045c57829003601f168201915b50509250505060405180910390fd5b5063773594008111156104cd576040805162461bcd60e51b81526020600482015260086024820152670a8dede40daeac6d60c31b604482015290519081900360640190fd5b600355565b600160009054906101000a90046001600160a01b03166001600160a01b0316630c340a246040518163ffffffff1660e01b815260040160206040518083038186803b15801561052057600080fd5b505afa158015610534573d6000803e3d6000fd5b505050506040513d602081101561054a57600080fd5b50516001600160a01b03163314806105e35750600160009054906101000a90046001600160a01b03166001600160a01b031663452a93206040518163ffffffff1660e01b815260040160206040518083038186803b1580156105ab57600080fd5b505afa1580156105bf573d6000803e3d6000fd5b505050506040513d60208110156105d557600080fd5b50516001600160a01b031633145b61061e5760405162461bcd60e51b81526004018080602001828103825260228152602001806116306022913960400191505060405180910390fd5b60006001600160a01b03166004858154811061063657fe5b60009182526020909120600160029092020101546001600160a01b031614156106a1576040805162461bcd60e51b8152602060048201526018602482015277149958da5c1a595b9d08191bd95cc81b9bdd08195e1a5cdd60421b604482015290519081900360640190fd5b600160009054906101000a90046001600160a01b03166001600160a01b031663452a93206040518163ffffffff1660e01b815260040160206040518083038186803b1580156106ef57600080fd5b505afa158015610703573d6000803e3d6000fd5b505050506040513d602081101561071957600080fd5b50516001600160a01b03163314156107b4576107606103e861075a60196004888154811061074357fe5b600091825260209091206002909102015490611221565b9061127a565b8211156107b4576040805162461bcd60e51b815260206004820152601f60248201527f4c696d697465723a2063616e6e6f742061646a757374206279203e322e352500604482015290519081900360640190fd5b8261081657600484815481106107c657fe5b9060005260206000209060020201600001548211156108165760405162461bcd60e51b815260040180806020018281038252602f815260200180611673602f913960400191505060405180910390fd5b6040805160608101825293151584526020808501938452848201928352600095865260029081905294209251835460ff19169015151783559051600183015551910155565b600160009054906101000a90046001600160a01b03166001600160a01b0316630c340a246040518163ffffffff1660e01b815260040160206040518083038186803b1580156108a957600080fd5b505afa1580156108bd573d6000803e3d6000fd5b505050506040513d60208110156108d357600080fd5b50516000906001600160a01b031633146109465760405162461bcd60e51b81526020600482019081528254600260001961010060018416150201909116046024830181905290918291604490910190849080156104795780601f1061044e57610100808354040283529160200191610479565b50600180546001600160a01b0319166001600160a01b0383169081179091556040517f2f658b440c35314f52658ea8a740e05b284cdc84dc9ae01e891f21b8933e7cad90600090a250565b600160009054906101000a90046001600160a01b03166001600160a01b0316630c340a246040518163ffffffff1660e01b815260040160206040518083038186803b1580156109df57600080fd5b505afa1580156109f3573d6000803e3d6000fd5b505050506040513d6020811015610a0957600080fd5b50516001600160a01b0316331480610aa25750600160009054906101000a90046001600160a01b03166001600160a01b031663452a93206040518163ffffffff1660e01b815260040160206040518083038186803b158015610a6a57600080fd5b505afa158015610a7e573d6000803e3d6000fd5b505050506040513d6020811015610a9457600080fd5b50516001600160a01b031633145b610add5760405162461bcd60e51b81526004018080602001828103825260228152602001806116306022913960400191505060405180910390fd5b60006001600160a01b031660048281548110610af557fe5b60009182526020909120600160029092020101546001600160a01b03161415610b60576040805162461bcd60e51b8152602060048201526018602482015277149958da5c1a595b9d08191bd95cc81b9bdd08195e1a5cdd60421b604482015290519081900360640190fd5b600060048281548110610b6f57fe5b906000526020600020906002020160010160006101000a8154816001600160a01b0302191690836001600160a01b03160217905550600060048281548110610bb357fe5b600091825260209091206002909102015550565b60035481565b600260208190526000918252604090912080546001820154919092015460ff9092169183565b6001546001600160a01b031681565b6000610cb77f000000000000000000000000000000000000000000000000000000000000000061075a847f00000000000000000000000000000000000000000000000000000000000000006001600160a01b03166318160ddd6040518163ffffffff1660e01b815260040160206040518083038186803b158015610c8557600080fd5b505afa158015610c99573d6000803e3d6000fd5b505050506040513d6020811015610caf57600080fd5b505190611221565b92915050565b336001600160a01b037f00000000000000000000000000000000000000000000000000000000000000001614610d29576040805162461bcd60e51b815260206004820152600c60248201526b4f6e6c79207374616b696e6760a01b604482015290519081900360640190fd5b60005b600454811015610e3d57600060048281548110610d4557fe5b9060005260206000209060020201600001541115610e35577f00000000000000000000000000000000000000000000000000000000000000006001600160a01b03166340c10f1960048381548110610d9957fe5b906000526020600020906002020160010160009054906101000a90046001600160a01b0316610dce6004858154811061033357fe5b6040518363ffffffff1660e01b815260040180836001600160a01b0316815260200182815260200192505050600060405180830381600087803b158015610e1457600080fd5b505af1158015610e28573d6000803e3d6000fd5b50505050610e35816112bc565b600101610d2c565b50565b6000336001600160a01b037f00000000000000000000000000000000000000000000000000000000000000001614610eae576040805162461bcd60e51b815260206004820152600c60248201526b4f6e6c79207374616b696e6760a01b604482015290519081900360640190fd5b60035415610f68577f00000000000000000000000000000000000000000000000000000000000000006001600160a01b03166340c10f197f00000000000000000000000000000000000000000000000000000000000000006003546040518363ffffffff1660e01b815260040180836001600160a01b0316815260200182815260200192505050600060405180830381600087803b158015610f4f57600080fd5b505af1158015610f63573d6000803e3d6000fd5b505050505b5060035490565b600160009054906101000a90046001600160a01b03166001600160a01b0316630c340a246040518163ffffffff1660e01b815260040160206040518083038186803b158015610fbd57600080fd5b505afa158015610fd1573d6000803e3d6000fd5b505050506040513d6020811015610fe757600080fd5b50516000906001600160a01b0316331461105a5760405162461bcd60e51b81526020600482019081528254600260001961010060018416150201909116046024830181905290918291604490910190849080156104795780601f1061044e57610100808354040283529160200191610479565b506001600160a01b0382166110b6576040805162461bcd60e51b815260206004820152601760248201527f5a65726f20616464726573733a20526563697069656e74000000000000000000604482015290519081900360640190fd5b7f000000000000000000000000000000000000000000000000000000000000000081111561112b576040805162461bcd60e51b815260206004820152601e60248201527f526174652063616e6e6f74206578636565642064656e6f6d696e61746f720000604482015290519081900360640190fd5b604080518082019091529081526001600160a01b03918216602082019081526004805460018101825560009190915291517f8a35acfbc15ff81a39ae7d344fd709f28e8600b4aa8c65c6b64bfe7fe36bd19b600290930292830155517f8a35acfbc15ff81a39ae7d344fd709f28e8600b4aa8c65c6b64bfe7fe36bd19c90910180546001600160a01b03191691909216179055565b60008282018381101561121a576040805162461bcd60e51b815260206004820152601b60248201527f536166654d6174683a206164646974696f6e206f766572666c6f770000000000604482015290519081900360640190fd5b9392505050565b60008261123057506000610cb7565b8282028284828161123d57fe5b041461121a5760405162461bcd60e51b81526004018080602001828103825260218152602001806116526021913960400191505060405180910390fd5b600061121a83836040518060400160405280601a81526020017f536166654d6174683a206469766973696f6e206279207a65726f0000000000008152506114bc565b6112c461160c565b506000818152600260208181526040928390208351606081018552815460ff161515815260018201549281018390529201549282019290925290156114b8578051156113bc5761133681602001516004848154811061131f57fe5b6000918252602090912060029091020154906111c0565b6004838154811061134357fe5b60009182526020909120600290910201556040810151600480548490811061136757fe5b906000526020600020906002020160000154106113b7576000828152600260205260408082206001019190915581015160048054849081106113a557fe5b60009182526020909120600290910201555b6114b8565b8060200151600483815481106113ce57fe5b9060005260206000209060020201600001541115611435576114128160200151600484815481106113fb57fe5b600091825260209091206002909102015490611575565b6004838154811061141f57fe5b6000918252602090912060029091020155611456565b60006004838154811061144457fe5b60009182526020909120600290910201555b80604001516004838154811061146857fe5b906000526020600020906002020160000154116114b8576000828152600260205260408082206001019190915581015160048054849081106114a657fe5b60009182526020909120600290910201555b5050565b600081836115485760405162461bcd60e51b81526004018080602001828103825283818151815260200191508051906020019080838360005b8381101561150d5781810151838201526020016114f5565b50505050905090810190601f16801561153a5780820380516001836020036101000a031916815260200191505b509250505060405180910390fd5b50600083858161155457fe5b04905083858161156057fe5b0681850201851461156d57fe5b949350505050565b600061121a83836040518060400160405280601e81526020017f536166654d6174683a207375627472616374696f6e206f766572666c6f770000815250600081848411156116045760405162461bcd60e51b815260206004820181815283516024840152835190928392604490910191908501908083836000831561150d5781810151838201526020016114f5565b505050900390565b60405180606001604052806000151581526020016000815260200160008152509056fe43616c6c6572206973206e6f7420676f7665726e6f72206f7220677561726469616e536166654d6174683a206d756c7469706c69636174696f6e206f766572666c6f7743616e6e6f742064656372656173652072617465206279206d6f7265207468616e20697420616c7265616479206973a164736f6c6343000705000a",
  "devdoc": {
    "kind": "dev",
    "methods": {
      "addRecipient(address,uint256)": {
        "params": {
          "_recipient": "address",
          "_rewardRate": "uint"
        }
      },
      "nextRewardAt(uint256)": {
        "params": {
          "_rate": "uint"
        },
        "returns": {
          "_0": "uint"
        }
      },
      "nextRewardFor(address)": {
        "params": {
          "_recipient": "address"
        },
        "returns": {
          "_0": "uint"
        }
      },
      "removeRecipient(uint256)": {
        "params": {
          "_index": "uint"
        }
      },
      "setAdjustment(uint256,bool,uint256,uint256)": {
        "params": {
          "_add": "bool",
          "_index": "uint",
          "_rate": "uint",
          "_target": "uint"
        }
      },
      "setBounty(uint256)": {
        "params": {
          "_bounty": "uint256"
        }
      }
    },
    "version": 1
  },
  "userdoc": {
    "kind": "user",
    "methods": {
      "addRecipient(address,uint256)": {
        "notice": "adds recipient for distributions"
      },
      "distribute()": {
        "notice": "send epoch reward to staking contract"
      },
      "nextRewardAt(uint256)": {
        "notice": "view function for next reward at given rate"
      },
      "nextRewardFor(address)": {
        "notice": "view function for next reward for specified address"
      },
      "removeRecipient(uint256)": {
        "notice": "removes recipient for distributions"
      },
      "setAdjustment(uint256,bool,uint256,uint256)": {
        "notice": "set adjustment info for a collector's reward rate"
      },
      "setBounty(uint256)": {
        "notice": "set bounty to incentivize keepers"
      }
    },
    "version": 1
  },
  "storageLayout": {
    "storage": [
      {
        "astId": 15873,
        "contract": "contracts/StakingDistributor.sol:Distributor",
        "label": "UNAUTHORIZED",
        "offset": 0,
        "slot": "0",
        "type": "t_string_storage"
      },
      {
        "astId": 15875,
        "contract": "contracts/StakingDistributor.sol:Distributor",
        "label": "authority",
        "offset": 0,
        "slot": "1",
        "type": "t_contract(IOlympusAuthority)10312"
      },
      {
        "astId": 3291,
        "contract": "contracts/StakingDistributor.sol:Distributor",
        "label": "adjustments",
        "offset": 0,
        "slot": "2",
        "type": "t_mapping(t_uint256,t_struct(Adjust)3312_storage)"
      },
      {
        "astId": 3294,
        "contract": "contracts/StakingDistributor.sol:Distributor",
        "label": "bounty",
        "offset": 0,
        "slot": "3",
        "type": "t_uint256"
      },
      {
        "astId": 3305,
        "contract": "contracts/StakingDistributor.sol:Distributor",
        "label": "info",
        "offset": 0,
        "slot": "4",
        "type": "t_array(t_struct(Info)3302_storage)dyn_storage"
      }
    ],
    "types": {
      "t_address": {
        "encoding": "inplace",
        "label": "address",
        "numberOfBytes": "20"
      },
      "t_array(t_struct(Info)3302_storage)dyn_storage": {
        "base": "t_struct(Info)3302_storage",
        "encoding": "dynamic_array",
        "label": "struct Distributor.Info[]",
        "numberOfBytes": "32"
      },
      "t_bool": {
        "encoding": "inplace",
        "label": "bool",
        "numberOfBytes": "1"
      },
      "t_contract(IOlympusAuthority)10312": {
        "encoding": "inplace",
        "label": "contract IOlympusAuthority",
        "numberOfBytes": "20"
      },
      "t_mapping(t_uint256,t_struct(Adjust)3312_storage)": {
        "encoding": "mapping",
        "key": "t_uint256",
        "label": "mapping(uint256 => struct Distributor.Adjust)",
        "numberOfBytes": "32",
        "value": "t_struct(Adjust)3312_storage"
      },
      "t_string_storage": {
        "encoding": "bytes",
        "label": "string",
        "numberOfBytes": "32"
      },
      "t_struct(Adjust)3312_storage": {
        "encoding": "inplace",
        "label": "struct Distributor.Adjust",
        "members": [
          {
            "astId": 3307,
            "contract": "contracts/StakingDistributor.sol:Distributor",
            "label": "add",
            "offset": 0,
            "slot": "0",
            "type": "t_bool"
          },
          {
            "astId": 3309,
            "contract": "contracts/StakingDistributor.sol:Distributor",
            "label": "rate",
            "offset": 0,
            "slot": "1",
            "type": "t_uint256"
          },
          {
            "astId": 3311,
            "contract": "contracts/StakingDistributor.sol:Distributor",
            "label": "target",
            "offset": 0,
            "slot": "2",
            "type": "t_uint256"
          }
        ],
        "numberOfBytes": "96"
      },
      "t_struct(Info)3302_storage": {
        "encoding": "inplace",
        "label": "struct Distributor.Info",
        "members": [
          {
            "astId": 3299,
            "contract": "contracts/StakingDistributor.sol:Distributor",
            "label": "rate",
            "offset": 0,
            "slot": "0",
            "type": "t_uint256"
          },
          {
            "astId": 3301,
            "contract": "contracts/StakingDistributor.sol:Distributor",
            "label": "recipient",
            "offset": 0,
            "slot": "1",
            "type": "t_address"
          }
        ],
        "numberOfBytes": "64"
      },
      "t_uint256": {
        "encoding": "inplace",
        "label": "uint256",
        "numberOfBytes": "32"
      }
    }
  }
}