{
  "address": "0x0Cb6Db1Ce076310f6594629113f35bBcDc403Aa2",
  "abi": [
    {
      "inputs": [
        {
          "internalType": "address",
          "name": "_migrator",
          "type": "address"
        },
        {
          "internalType": "address",
          "name": "_sOHM",
          "type": "address"
        }
      ],
      "stateMutability": "nonpayable",
      "type": "constructor"
    },
    {
      "anonymous": false,
      "inputs": [
        {
          "indexed": true,
          "internalType": "address",
          "name": "owner",
          "type": "address"
        },
        {
          "indexed": true,
          "internalType": "address",
          "name": "spender",
          "type": "address"
        },
        {
          "indexed": false,
          "internalType": "uint256",
          "name": "value",
          "type": "uint256"
        }
      ],
      "name": "Approval",
      "type": "event"
    },
    {
      "anonymous": false,
      "inputs": [
        {
          "indexed": true,
          "internalType": "address",
          "name": "delegator",
          "type": "address"
        },
        {
          "indexed": true,
          "internalType": "address",
          "name": "fromDelegate",
          "type": "address"
        },
        {
          "indexed": true,
          "internalType": "address",
          "name": "toDelegate",
          "type": "address"
        }
      ],
      "name": "DelegateChanged",
      "type": "event"
    },
    {
      "anonymous": false,
      "inputs": [
        {
          "indexed": true,
          "internalType": "address",
          "name": "delegate",
          "type": "address"
        },
        {
          "indexed": false,
          "internalType": "uint256",
          "name": "previousBalance",
          "type": "uint256"
        },
        {
          "indexed": false,
          "internalType": "uint256",
          "name": "newBalance",
          "type": "uint256"
        }
      ],
      "name": "DelegateVotesChanged",
      "type": "event"
    },
    {
      "anonymous": false,
      "inputs": [
        {
          "indexed": true,
          "internalType": "address",
          "name": "from",
          "type": "address"
        },
        {
          "indexed": true,
          "internalType": "address",
          "name": "to",
          "type": "address"
        },
        {
          "indexed": false,
          "internalType": "uint256",
          "name": "value",
          "type": "uint256"
        }
      ],
      "name": "Transfer",
      "type": "event"
    },
    {
      "inputs": [
        {
          "internalType": "address",
          "name": "addresses",
          "type": "address"
        }
      ],
      "name": "addMinter",
      "outputs": [],
      "stateMutability": "nonpayable",
      "type": "function"
    },
    {
      "inputs": [
        {
          "internalType": "address",
          "name": "owner",
          "type": "address"
        },
        {
          "internalType": "address",
          "name": "spender",
          "type": "address"
        }
      ],
      "name": "allowance",
      "outputs": [
        {
          "internalType": "uint256",
          "name": "",
          "type": "uint256"
        }
      ],
      "stateMutability": "view",
      "type": "function"
    },
    {
      "inputs": [
        {
          "internalType": "address",
          "name": "spender",
          "type": "address"
        },
        {
          "internalType": "uint256",
          "name": "amount",
          "type": "uint256"
        }
      ],
      "name": "approve",
      "outputs": [
        {
          "internalType": "bool",
          "name": "",
          "type": "bool"
        }
      ],
      "stateMutability": "nonpayable",
      "type": "function"
    },
    {
      "inputs": [],
      "name": "approved",
      "outputs": [
        {
          "internalType": "address",
          "name": "",
          "type": "address"
        }
      ],
      "stateMutability": "view",
      "type": "function"
    },
    {
      "inputs": [
        {
          "internalType": "uint256",
          "name": "_amount",
          "type": "uint256"
        }
      ],
      "name": "balanceFrom",
      "outputs": [
        {
          "internalType": "uint256",
          "name": "",
          "type": "uint256"
        }
      ],
      "stateMutability": "view",
      "type": "function"
    },
    {
      "inputs": [
        {
          "internalType": "address",
          "name": "account",
          "type": "address"
        }
      ],
      "name": "balanceOf",
      "outputs": [
        {
          "internalType": "uint256",
          "name": "",
          "type": "uint256"
        }
      ],
      "stateMutability": "view",
      "type": "function"
    },
    {
      "inputs": [
        {
          "internalType": "uint256",
          "name": "_amount",
          "type": "uint256"
        }
      ],
      "name": "balanceTo",
      "outputs": [
        {
          "internalType": "uint256",
          "name": "",
          "type": "uint256"
        }
      ],
      "stateMutability": "view",
      "type": "function"
    },
    {
      "inputs": [
        {
          "internalType": "address",
          "name": "_from",
          "type": "address"
        },
        {
          "internalType": "uint256",
          "name": "_amount",
          "type": "uint256"
        }
      ],
      "name": "burn",
      "outputs": [],
      "stateMutability": "nonpayable",
      "type": "function"
    },
    {
      "inputs": [
        {
          "internalType": "address",
          "name": "",
          "type": "address"
        },
        {
          "internalType": "uint256",
          "name": "",
          "type": "uint256"
        }
      ],
      "name": "checkpoints",
      "outputs": [
        {
          "internalType": "uint256",
          "name": "fromBlock",
          "type": "uint256"
        },
        {
          "internalType": "uint256",
          "name": "votes",
          "type": "uint256"
        }
      ],
      "stateMutability": "view",
      "type": "function"
    },
    {
      "inputs": [],
      "name": "decimals",
      "outputs": [
        {
          "internalType": "uint8",
          "name": "",
          "type": "uint8"
        }
      ],
      "stateMutability": "view",
      "type": "function"
    },
    {
      "inputs": [
        {
          "internalType": "address",
          "name": "spender",
          "type": "address"
        },
        {
          "internalType": "uint256",
          "name": "subtractedValue",
          "type": "uint256"
        }
      ],
      "name": "decreaseAllowance",
      "outputs": [
        {
          "internalType": "bool",
          "name": "",
          "type": "bool"
        }
      ],
      "stateMutability": "nonpayable",
      "type": "function"
    },
    {
      "inputs": [
        {
          "internalType": "address",
          "name": "delegatee",
          "type": "address"
        }
      ],
      "name": "delegate",
      "outputs": [],
      "stateMutability": "nonpayable",
      "type": "function"
    },
    {
      "inputs": [
        {
          "internalType": "address",
          "name": "",
          "type": "address"
        }
      ],
      "name": "delegates",
      "outputs": [
        {
          "internalType": "address",
          "name": "",
          "type": "address"
        }
      ],
      "stateMutability": "view",
      "type": "function"
    },
    {
      "inputs": [
        {
          "internalType": "address",
          "name": "account",
          "type": "address"
        }
      ],
      "name": "getCurrentVotes",
      "outputs": [
        {
          "internalType": "uint256",
          "name": "",
          "type": "uint256"
        }
      ],
      "stateMutability": "view",
      "type": "function"
    },
    {
      "inputs": [
        {
          "internalType": "address",
          "name": "account",
          "type": "address"
        },
        {
          "internalType": "uint256",
          "name": "blockNumber",
          "type": "uint256"
        }
      ],
      "name": "getPriorVotes",
      "outputs": [
        {
          "internalType": "uint256",
          "name": "",
          "type": "uint256"
        }
      ],
      "stateMutability": "view",
      "type": "function"
    },
    {
      "inputs": [
        {
          "internalType": "address",
          "name": "spender",
          "type": "address"
        },
        {
          "internalType": "uint256",
          "name": "addedValue",
          "type": "uint256"
        }
      ],
      "name": "increaseAllowance",
      "outputs": [
        {
          "internalType": "bool",
          "name": "",
          "type": "bool"
        }
      ],
      "stateMutability": "nonpayable",
      "type": "function"
    },
    {
      "inputs": [],
      "name": "index",
      "outputs": [
        {
          "internalType": "uint256",
          "name": "",
          "type": "uint256"
        }
      ],
      "stateMutability": "view",
      "type": "function"
    },
    {
      "inputs": [
        {
          "internalType": "address",
          "name": "_staking",
          "type": "address"
        },
        {
          "internalType": "address",
          "name": "_sOHM",
          "type": "address"
        }
      ],
      "name": "migrate",
      "outputs": [],
      "stateMutability": "nonpayable",
      "type": "function"
    },
    {
      "inputs": [],
      "name": "migrated",
      "outputs": [
        {
          "internalType": "bool",
          "name": "",
          "type": "bool"
        }
      ],
      "stateMutability": "view",
      "type": "function"
    },
    {
      "inputs": [
        {
          "internalType": "address",
          "name": "_to",
          "type": "address"
        },
        {
          "internalType": "uint256",
          "name": "_amount",
          "type": "uint256"
        }
      ],
      "name": "mint",
      "outputs": [],
      "stateMutability": "nonpayable",
      "type": "function"
    },
    {
      "inputs": [
        {
          "internalType": "address",
          "name": "",
          "type": "address"
        }
      ],
      "name": "minter",
      "outputs": [
        {
          "internalType": "bool",
          "name": "",
          "type": "bool"
        }
      ],
      "stateMutability": "view",
      "type": "function"
    },
    {
      "inputs": [],
      "name": "name",
      "outputs": [
        {
          "internalType": "string",
          "name": "",
          "type": "string"
        }
      ],
      "stateMutability": "view",
      "type": "function"
    },
    {
      "inputs": [
        {
          "internalType": "address",
          "name": "",
          "type": "address"
        }
      ],
      "name": "numCheckpoints",
      "outputs": [
        {
          "internalType": "uint256",
          "name": "",
          "type": "uint256"
        }
      ],
      "stateMutability": "view",
      "type": "function"
    },
    {
      "inputs": [],
      "name": "sOHM",
      "outputs": [
        {
          "internalType": "contract IsOHM",
          "name": "",
          "type": "address"
        }
      ],
      "stateMutability": "view",
      "type": "function"
    },
    {
      "inputs": [
        {
          "internalType": "address",
          "name": "addresses",
          "type": "address"
        }
      ],
      "name": "subMinter",
      "outputs": [],
      "stateMutability": "nonpayable",
      "type": "function"
    },
    {
      "inputs": [],
      "name": "symbol",
      "outputs": [
        {
          "internalType": "string",
          "name": "",
          "type": "string"
        }
      ],
      "stateMutability": "view",
      "type": "function"
    },
    {
      "inputs": [],
      "name": "totalSupply",
      "outputs": [
        {
          "internalType": "uint256",
          "name": "",
          "type": "uint256"
        }
      ],
      "stateMutability": "view",
      "type": "function"
    },
    {
      "inputs": [
        {
          "internalType": "address",
          "name": "recipient",
          "type": "address"
        },
        {
          "internalType": "uint256",
          "name": "amount",
          "type": "uint256"
        }
      ],
      "name": "transfer",
      "outputs": [
        {
          "internalType": "bool",
          "name": "",
          "type": "bool"
        }
      ],
      "stateMutability": "nonpayable",
      "type": "function"
    },
    {
      "inputs": [
        {
          "internalType": "address",
          "name": "sender",
          "type": "address"
        },
        {
          "internalType": "address",
          "name": "recipient",
          "type": "address"
        },
        {
          "internalType": "uint256",
          "name": "amount",
          "type": "uint256"
        }
      ],
      "name": "transferFrom",
      "outputs": [
        {
          "internalType": "bool",
          "name": "",
          "type": "bool"
        }
      ],
      "stateMutability": "nonpayable",
      "type": "function"
    }
  ],
  "transactionHash": "0x17d6c759d622a0eda78b34070ceaada0dd51b1e0a7bed32eb721e485e2ad5064",
  "args": [
    "0x1E4810ac4a27E2dB5b840bCd8F680E325374dCdf",
    "0xDE74f1BA9419df6804446F7E3aAe9D60069BF9D2"
  ],
  "solcInputHash": "aaa9d9a75720e1d72398cfd5bf2e1783",
  "bytecode": "0x60a06040523480156200001157600080fd5b5060405162001ce038038062001ce0833981810160405260408110156200003757600080fd5b508051602091820151604080518082018252600e81526d476f7665726e616e6365204f484d60901b81860190815282518084019093526004835263674f484d60e01b9583019590955280519394929390926012916200009991600391620001c6565b508151620000af906004906020850190620001c6565b5060f81b7fff000000000000000000000000000000000000000000000000000000000000001660805250506001600160a01b03821662000136576040805162461bcd60e51b815260206004820152601660248201527f5a65726f20616464726573733a204d69677261746f7200000000000000000000604482015290519081900360640190fd5b600680546001600160a01b0319166001600160a01b038481169190911790915581166200019f576040805162461bcd60e51b81526020600482015260126024820152715a65726f20616464726573733a20734f484d60701b604482015290519081900360640190fd5b600580546001600160a01b0319166001600160a01b03929092169190911790555062000272565b828054600181600116156101000203166002900490600052602060002090601f016020900481019282620001fe576000855562000249565b82601f106200021957805160ff191683800117855562000249565b8280016001018555821562000249579182015b82811115620002495782518255916020019190600101906200022c565b50620002579291506200025b565b5090565b5b808211156200025757600081556001016200025c565b60805160f81c611a506200029060003980610a405250611a506000f3fe608060405234801561001057600080fd5b50600436106101cf5760003560e01c806340c10f191161010457806395d89b41116100a2578063a824876811610071578063a8248768146105bb578063a9059cbb146105d8578063b4b5ea5714610604578063dd62ed3e1461062a576101cf565b806395d89b4114610535578063983b2d561461053d5780639dc29fac14610563578063a457c2d71461058f576101cf565b806366a5236c116100de57806366a5236c146104a05780636fcfff45146104bd57806370a08231146104e3578063782d6fe114610509576101cf565b806340c10f1914610428578063587cde1e146104545780635c19a95c1461047a576101cf565b806319d40b08116101715780632c678c641161014b5780632c678c64146103b0578063313ce567146103b857806339509351146103d65780633dd08c3814610402576101cf565b806319d40b081461036a57806323b872dd146103725780632986c0e5146103a8576101cf565b80630cdfebfa116101ad5780630cdfebfa146102b95780631068361f146102fe578063150799251461032c57806318160ddd14610350576101cf565b806302680304146101d457806306fdde03146101fc578063095ea7b314610279575b600080fd5b6101fa600480360360208110156101ea57600080fd5b50356001600160a01b0316610658565b005b610204610679565b6040805160208082528351818301528351919283929083019185019080838360005b8381101561023e578181015183820152602001610226565b50505050905090810190601f16801561026b5780820380516001836020036101000a031916815260200191505b509250505060405180910390f35b6102a56004803603604081101561028f57600080fd5b506001600160a01b03813516906020013561070f565b604080519115158252519081900360200190f35b6102e5600480360360408110156102cf57600080fd5b506001600160a01b038135169060200135610726565b6040805192835260208301919091528051918290030190f35b6101fa6004803603604081101561031457600080fd5b506001600160a01b038135811691602001351661074a565b61033461092b565b604080516001600160a01b039092168252519081900360200190f35b61035861093a565b60408051918252519081900360200190f35b610334610940565b6102a56004803603606081101561038857600080fd5b506001600160a01b0381358116916020810135909116906040013561094f565b6103586109b8565b6102a5610a2e565b6103c0610a3e565b6040805160ff9092168252519081900360200190f35b6102a5600480360360408110156103ec57600080fd5b506001600160a01b038135169060200135610a62565b6102a56004803603602081101561041857600080fd5b50356001600160a01b0316610a98565b6101fa6004803603604081101561043e57600080fd5b506001600160a01b038135169060200135610aad565b6103346004803603602081101561046a57600080fd5b50356001600160a01b0316610b0f565b6101fa6004803603602081101561049057600080fd5b50356001600160a01b0316610b2a565b610358600480360360208110156104b657600080fd5b5035610b37565b610358600480360360208110156104d357600080fd5b50356001600160a01b0316610b62565b610358600480360360208110156104f957600080fd5b50356001600160a01b0316610b74565b6103586004803603604081101561051f57600080fd5b506001600160a01b038135169060200135610b8f565b610204610d51565b6101fa6004803603602081101561055357600080fd5b50356001600160a01b0316610db2565b6101fa6004803603604081101561057957600080fd5b506001600160a01b038135169060200135610dd6565b6102a5600480360360408110156105a557600080fd5b506001600160a01b038135169060200135610e34565b610358600480360360208110156105d157600080fd5b5035610e83565b6102a5600480360360408110156105ee57600080fd5b506001600160a01b038135169060200135610ea8565b6103586004803603602081101561061a57600080fd5b50356001600160a01b0316610eb5565b6103586004803603604081101561064057600080fd5b506001600160a01b0381358116916020013516610f0d565b6001600160a01b03166000908152600a60205260409020805460ff19169055565b60038054604080516020601f60026000196101006001881615020190951694909404938401819004810282018101909252828152606093909290918301828280156107055780601f106106da57610100808354040283529160200191610705565b820191906000526020600020905b8154815290600101906020018083116106e857829003601f168201915b5050505050905090565b600061071c338484610f38565b5060015b92915050565b60076020908152600092835260408084209091529082529020805460019091015482565b336000908152600a602052604090205460ff1661079e576040805162461bcd60e51b815260206004820152600d60248201526c13db9b1e48185c1c1c9bdd9959609a1b604482015290519081900360640190fd5b600654600160a01b900460ff16156107e8576040805162461bcd60e51b8152602060048201526008602482015267135a59dc985d195960c21b604482015290519081900360640190fd5b6006805460ff60a01b1916600160a01b17908190556001600160a01b0383811691161415610850576040805162461bcd60e51b815260206004820152601060248201526f125b9d985b1a5908185c99dd5b595b9d60821b604482015290519081900360640190fd5b6001600160a01b0382166108a0576040805162461bcd60e51b815260206004820152601260248201527116995c9bc81859191c995cdcc8199bdd5b9960721b604482015290519081900360640190fd5b600680546001600160a01b0319166001600160a01b03848116919091179091558116610908576040805162461bcd60e51b815260206004820152601260248201527116995c9bc81859191c995cdcc8199bdd5b9960721b604482015290519081900360640190fd5b600580546001600160a01b0319166001600160a01b039290921691909117905550565b6005546001600160a01b031681565b60025490565b6006546001600160a01b031681565b600061095c848484611024565b6109ae84336109a985604051806060016040528060288152602001611966602891396001600160a01b038a166000908152600160209081526040808320338452909152902054919061117f565b610f38565b5060019392505050565b60055460408051632986c0e560e01b815290516000926001600160a01b031691632986c0e5916004808301926020929190829003018186803b1580156109fd57600080fd5b505afa158015610a11573d6000803e3d6000fd5b505050506040513d6020811015610a2757600080fd5b5051905090565b600654600160a01b900460ff1681565b7f000000000000000000000000000000000000000000000000000000000000000090565b3360008181526001602090815260408083206001600160a01b0387168452909152812054909161071c9185906109a99086611216565b600a6020526000908152604090205460ff1681565b336000908152600a602052604090205460ff16610b01576040805162461bcd60e51b815260206004820152600d60248201526c13db9b1e48185c1c1c9bdd9959609a1b604482015290519081900360640190fd5b610b0b8282611270565b5050565b6009602052600090815260409020546001600160a01b031681565b610b343382611360565b50565b6000610720610b446109b8565b610b5c610b4f610a3e565b859060ff16600a0a6113df565b90611438565b60086020526000908152604090205481565b6001600160a01b031660009081526020819052604090205490565b6000438210610bcf5760405162461bcd60e51b815260040180806020018281038252602781526020018061198e6027913960400191505060405180910390fd5b6001600160a01b03831660009081526008602052604090205480610bf7576000915050610720565b6001600160a01b0384166000908152600760209081526040808320600019850184529091529020548310610c57576001600160a01b0384166000908152600760209081526040808320600019909401835292905220600101549050610720565b6001600160a01b0384166000908152600760209081526040808320838052909152902054831015610c8c576000915050610720565b600060001982015b81811115610d21576002828203048103610cac61189d565b506001600160a01b03871660009081526007602090815260408083208484528252918290208251808401909352805480845260019091015491830191909152871415610d02576020015194506107209350505050565b8051871115610d1357819350610d1a565b6001820392505b5050610c94565b506001600160a01b0385166000908152600760209081526040808320938352929052206001015491505092915050565b60048054604080516020601f60026000196101006001881615020190951694909404938401819004810282018101909252828152606093909290918301828280156107055780601f106106da57610100808354040283529160200191610705565b6001600160a01b03166000908152600a60205260409020805460ff19166001179055565b336000908152600a602052604090205460ff16610e2a576040805162461bcd60e51b815260206004820152600d60248201526c13db9b1e48185c1c1c9bdd9959609a1b604482015290519081900360640190fd5b610b0b828261147a565b600061071c33846109a985604051806060016040528060258152602001611a1f602591393360009081526001602090815260408083206001600160a01b038d168452909152902054919061117f565b6000610720610e90610a3e565b60ff16600a0a610b5c610ea16109b8565b85906113df565b600061071c338484611024565b6001600160a01b03811660009081526008602052604081205480610eda576000610f06565b6001600160a01b0383166000908152600760209081526040808320600019850184529091529020600101545b9392505050565b6001600160a01b03918216600090815260016020908152604080832093909416825291909152205490565b6001600160a01b038316610f7d5760405162461bcd60e51b81526004018080602001828103825260248152602001806119fb6024913960400191505060405180910390fd5b6001600160a01b038216610fc25760405162461bcd60e51b81526004018080602001828103825260228152602001806118fd6022913960400191505060405180910390fd5b6001600160a01b03808416600081815260016020908152604080832094871680845294825291829020859055815185815291517f8c5be1e5ebec7d5bd14f71427d1e84f3dd0314c0f7b2291e5b200ac8c7c3b9259281900390910190a3505050565b6001600160a01b0383166110695760405162461bcd60e51b81526004018080602001828103825260258152602001806119d66025913960400191505060405180910390fd5b6001600160a01b0382166110ae5760405162461bcd60e51b81526004018080602001828103825260238152602001806118b86023913960400191505060405180910390fd5b6110b9838383611576565b6110f68160405180606001604052806026815260200161191f602691396001600160a01b038616600090815260208190526040902054919061117f565b6001600160a01b0380851660009081526020819052604080822093909355908416815220546111259082611216565b6001600160a01b038084166000818152602081815260409182902094909455805185815290519193928716927fddf252ad1be2c89b69c2b068fc378daa952ba7f163c4a11628f55a4df523b3ef92918290030190a3505050565b6000818484111561120e5760405162461bcd60e51b81526004018080602001828103825283818151815260200191508051906020019080838360005b838110156111d35781810151838201526020016111bb565b50505050905090810190601f1680156112005780820380516001836020036101000a031916815260200191505b509250505060405180910390fd5b505050900390565b600082820183811015610f06576040805162461bcd60e51b815260206004820152601b60248201527f536166654d6174683a206164646974696f6e206f766572666c6f770000000000604482015290519081900360640190fd5b6001600160a01b0382166112cb576040805162461bcd60e51b815260206004820152601f60248201527f45524332303a206d696e7420746f20746865207a65726f206164647265737300604482015290519081900360640190fd5b6112d760008383611576565b6002546112e49082611216565b6002556001600160a01b03821660009081526020819052604090205461130a9082611216565b6001600160a01b0383166000818152602081815260408083209490945583518581529351929391927fddf252ad1be2c89b69c2b068fc378daa952ba7f163c4a11628f55a4df523b3ef9281900390910190a35050565b6001600160a01b038083166000818152600960208181526040808420805485845282862054949093528787166001600160a01b03198416811790915590519190951694919391928592917f3134e8a2e6d97e929a7e54011ea5485d7d196dd5f0ba4d4ef95803e8e3fc257f9190a46113d98284836115ad565b50505050565b6000826113ee57506000610720565b828202828482816113fb57fe5b0414610f065760405162461bcd60e51b81526004018080602001828103825260218152602001806119456021913960400191505060405180910390fd5b6000610f0683836040518060400160405280601a81526020017f536166654d6174683a206469766973696f6e206279207a65726f0000000000008152506116da565b6001600160a01b0382166114bf5760405162461bcd60e51b81526004018080602001828103825260218152602001806119b56021913960400191505060405180910390fd5b6114cb82600083611576565b611508816040518060600160405280602281526020016118db602291396001600160a01b038516600090815260208190526040902054919061117f565b6001600160a01b03831660009081526020819052604090205560025461152e9082611756565b6002556040805182815290516000916001600160a01b038516917fddf252ad1be2c89b69c2b068fc378daa952ba7f163c4a11628f55a4df523b3ef9181900360200190a35050565b6001600160a01b038084166000908152600960205260408082205485841683529120546115a8929182169116836115ad565b505050565b816001600160a01b0316836001600160a01b0316141580156115cf5750600081115b156115a8576001600160a01b03831615611655576001600160a01b0383166000908152600860205260408120549081611609576000611635565b6001600160a01b0385166000908152600760209081526040808320600019860184529091529020600101545b905060006116438285611756565b905061165186848484611798565b5050505b6001600160a01b038216156115a8576001600160a01b038216600090815260086020526040812054908161168a5760006116b6565b6001600160a01b0384166000908152600760209081526040808320600019860184529091529020600101545b905060006116c48285611216565b90506116d285848484611798565b505050505050565b600081836117295760405162461bcd60e51b81526020600482018181528351602484015283519092839260449091019190850190808383600083156111d35781810151838201526020016111bb565b50600083858161173557fe5b04905083858161174157fe5b0681850201851461174e57fe5b949350505050565b6000610f0683836040518060400160405280601e81526020017f536166654d6174683a207375627472616374696f6e206f766572666c6f77000081525061117f565b6000831180156117ce57506001600160a01b03841660009081526007602090815260408083206000198701845290915290205443145b15611805576001600160a01b0384166000908152600760209081526040808320600019870184529091529020600101819055611854565b60408051808201825243815260208082018481526001600160a01b0388166000818152600784528581208982528452858120945185559151600194850155815260089091529190912090840190555b604080518381526020810183905281516001600160a01b038716927fdec2bacdd2f05b59de34da9b523dff8be42e5e38e818c82fdb0bae774387a724928290030190a250505050565b60405180604001604052806000815260200160008152509056fe45524332303a207472616e7366657220746f20746865207a65726f206164647265737345524332303a206275726e20616d6f756e7420657863656564732062616c616e636545524332303a20617070726f766520746f20746865207a65726f206164647265737345524332303a207472616e7366657220616d6f756e7420657863656564732062616c616e6365536166654d6174683a206d756c7469706c69636174696f6e206f766572666c6f7745524332303a207472616e7366657220616d6f756e74206578636565647320616c6c6f77616e6365674f484d3a3a6765745072696f72566f7465733a206e6f74207965742064657465726d696e656445524332303a206275726e2066726f6d20746865207a65726f206164647265737345524332303a207472616e736665722066726f6d20746865207a65726f206164647265737345524332303a20617070726f76652066726f6d20746865207a65726f206164647265737345524332303a2064656372656173656420616c6c6f77616e63652062656c6f77207a65726fa164736f6c6343000705000a",
  "devdoc": {
    "kind": "dev",
    "methods": {
      "balanceFrom(uint256)": {
        "params": {
          "_amount": "uint"
        },
        "returns": {
          "_0": "uint"
        }
      },
      "balanceTo(uint256)": {
        "params": {
          "_amount": "uint"
        },
        "returns": {
          "_0": "uint"
        }
      },
      "burn(address,uint256)": {
        "params": {
          "_amount": "uint",
          "_from": "address"
        }
      },
      "delegate(address)": {
        "params": {
          "delegatee": "The address to delegate votes to"
        }
      },
      "getCurrentVotes(address)": {
        "params": {
          "account": "The address to get votes balance"
        },
        "returns": {
          "_0": "The number of current votes for `account`"
        }
      },
      "getPriorVotes(address,uint256)": {
        "details": "Block number must be a finalized block or else this function will revert to prevent misinformation.",
        "params": {
          "account": "The address of the account to check",
          "blockNumber": "The block number to get the vote balance at"
        },
        "returns": {
          "_0": "The number of votes the account had as of the given block"
        }
      },
      "migrate(address,address)": {
        "params": {
          "_sOHM": "address",
          "_staking": "address"
        }
      },
      "mint(address,uint256)": {
        "params": {
          "_amount": "uint",
          "_to": "address"
        }
      }
    },
    "version": 1
  },
  "userdoc": {
    "kind": "user",
    "methods": {
      "balanceFrom(uint256)": {
        "notice": "converts gOHM amount to OHM"
      },
      "balanceTo(uint256)": {
        "notice": "converts OHM amount to gOHM"
      },
      "burn(address,uint256)": {
        "notice": "burn gOHM"
      },
      "delegate(address)": {
        "notice": "Delegate votes from `msg.sender` to `delegatee`"
      },
      "getCurrentVotes(address)": {
        "notice": "Gets the current votes balance for `account`"
      },
      "getPriorVotes(address,uint256)": {
        "notice": "Determine the prior number of votes for an account as of a block number"
      },
      "index()": {
        "notice": "pull index from sOHM token"
      },
      "migrate(address,address)": {
        "notice": "transfer mint rights from migrator to stakingcan only be done once, at the time of contract migration"
      },
      "mint(address,uint256)": {
        "notice": "mint gOHM"
      }
    },
    "version": 1
  },
  "storageLayout": {
    "storage": [
      {
        "astId": 15265,
        "contract": "contracts/governance/gOHM.sol:gOHM",
        "label": "_balances",
        "offset": 0,
        "slot": "0",
        "type": "t_mapping(t_address,t_uint256)"
      },
      {
        "astId": 15271,
        "contract": "contracts/governance/gOHM.sol:gOHM",
        "label": "_allowances",
        "offset": 0,
        "slot": "1",
        "type": "t_mapping(t_address,t_mapping(t_address,t_uint256))"
      },
      {
        "astId": 15273,
        "contract": "contracts/governance/gOHM.sol:gOHM",
        "label": "_totalSupply",
        "offset": 0,
        "slot": "2",
        "type": "t_uint256"
      },
      {
        "astId": 15275,
        "contract": "contracts/governance/gOHM.sol:gOHM",
        "label": "_name",
        "offset": 0,
        "slot": "3",
        "type": "t_string_storage"
      },
      {
        "astId": 15277,
        "contract": "contracts/governance/gOHM.sol:gOHM",
        "label": "_symbol",
        "offset": 0,
        "slot": "4",
        "type": "t_string_storage"
      },
      {
        "astId": 9380,
        "contract": "contracts/governance/gOHM.sol:gOHM",
        "label": "sOHM",
        "offset": 0,
        "slot": "5",
        "type": "t_contract(IsOHM)10905"
      },
      {
        "astId": 9382,
        "contract": "contracts/governance/gOHM.sol:gOHM",
        "label": "approved",
        "offset": 0,
        "slot": "6",
        "type": "t_address"
      },
      {
        "astId": 9384,
        "contract": "contracts/governance/gOHM.sol:gOHM",
        "label": "migrated",
        "offset": 20,
        "slot": "6",
        "type": "t_bool"
      },
      {
        "astId": 9390,
        "contract": "contracts/governance/gOHM.sol:gOHM",
        "label": "checkpoints",
        "offset": 0,
        "slot": "7",
        "type": "t_mapping(t_address,t_mapping(t_uint256,t_struct(Checkpoint)9378_storage))"
      },
      {
        "astId": 9394,
        "contract": "contracts/governance/gOHM.sol:gOHM",
        "label": "numCheckpoints",
        "offset": 0,
        "slot": "8",
        "type": "t_mapping(t_address,t_uint256)"
      },
      {
        "astId": 9398,
        "contract": "contracts/governance/gOHM.sol:gOHM",
        "label": "delegates",
        "offset": 0,
        "slot": "9",
        "type": "t_mapping(t_address,t_address)"
      },
      {
        "astId": 9402,
        "contract": "contracts/governance/gOHM.sol:gOHM",
        "label": "minter",
        "offset": 0,
        "slot": "10",
        "type": "t_mapping(t_address,t_bool)"
      }
    ],
    "types": {
      "t_address": {
        "encoding": "inplace",
        "label": "address",
        "numberOfBytes": "20"
      },
      "t_bool": {
        "encoding": "inplace",
        "label": "bool",
        "numberOfBytes": "1"
      },
      "t_contract(IsOHM)10905": {
        "encoding": "inplace",
        "label": "contract IsOHM",
        "numberOfBytes": "20"
      },
      "t_mapping(t_address,t_address)": {
        "encoding": "mapping",
        "key": "t_address",
        "label": "mapping(address => address)",
        "numberOfBytes": "32",
        "value": "t_address"
      },
      "t_mapping(t_address,t_bool)": {
        "encoding": "mapping",
        "key": "t_address",
        "label": "mapping(address => bool)",
        "numberOfBytes": "32",
        "value": "t_bool"
      },
      "t_mapping(t_address,t_mapping(t_address,t_uint256))": {
        "encoding": "mapping",
        "key": "t_address",
        "label": "mapping(address => mapping(address => uint256))",
        "numberOfBytes": "32",
        "value": "t_mapping(t_address,t_uint256)"
      },
      "t_mapping(t_address,t_mapping(t_uint256,t_struct(Checkpoint)9378_storage))": {
        "encoding": "mapping",
        "key": "t_address",
        "label": "mapping(address => mapping(uint256 => struct gOHM.Checkpoint))",
        "numberOfBytes": "32",
        "value": "t_mapping(t_uint256,t_struct(Checkpoint)9378_storage)"
      },
      "t_mapping(t_address,t_uint256)": {
        "encoding": "mapping",
        "key": "t_address",
        "label": "mapping(address => uint256)",
        "numberOfBytes": "32",
        "value": "t_uint256"
      },
      "t_mapping(t_uint256,t_struct(Checkpoint)9378_storage)": {
        "encoding": "mapping",
        "key": "t_uint256",
        "label": "mapping(uint256 => struct gOHM.Checkpoint)",
        "numberOfBytes": "32",
        "value": "t_struct(Checkpoint)9378_storage"
      },
      "t_string_storage": {
        "encoding": "bytes",
        "label": "string",
        "numberOfBytes": "32"
      },
      "t_struct(Checkpoint)9378_storage": {
        "encoding": "inplace",
        "label": "struct gOHM.Checkpoint",
        "members": [
          {
            "astId": 9375,
            "contract": "contracts/governance/gOHM.sol:gOHM",
            "label": "fromBlock",
            "offset": 0,
            "slot": "0",
            "type": "t_uint256"
          },
          {
            "astId": 9377,
            "contract": "contracts/governance/gOHM.sol:gOHM",
            "label": "votes",
            "offset": 0,
            "slot": "1",
            "type": "t_uint256"
          }
        ],
        "numberOfBytes": "64"
      },
      "t_uint256": {
        "encoding": "inplace",
        "label": "uint256",
        "numberOfBytes": "32"
      }
    }
  }
}