{
  "address": "0x09AC6Ad2Bac2eFa327113c81e5B2C29915f07EB6",
  "abi": [
    {
      "inputs": [
        {
          "internalType": "address",
          "name": "_treasury",
          "type": "address"
        },
        {
          "internalType": "address",
          "name": "_ohm",
          "type": "address"
        },
        {
          "internalType": "address",
          "name": "_staking",
          "type": "address"
        },
        {
          "internalType": "address",
          "name": "_authority",
          "type": "address"
        }
      ],
      "stateMutability": "nonpayable",
      "type": "constructor"
    },
    {
      "anonymous": false,
      "inputs": [
        {
          "indexed": true,
          "internalType": "contract IOlympusAuthority",
          "name": "authority",
          "type": "address"
        }
      ],
      "name": "AuthorityUpdated",
      "type": "event"
    },
    {
      "inputs": [
        {
          "internalType": "address",
          "name": "_recipient",
          "type": "address"
        },
        {
          "internalType": "uint256",
          "name": "_rewardRate",
          "type": "uint256"
        }
      ],
      "name": "addRecipient",
      "outputs": [],
      "stateMutability": "nonpayable",
      "type": "function"
    },
    {
      "inputs": [
        {
          "internalType": "uint256",
          "name": "",
          "type": "uint256"
        }
      ],
      "name": "adjustments",
      "outputs": [
        {
          "internalType": "bool",
          "name": "add",
          "type": "bool"
        },
        {
          "internalType": "uint256",
          "name": "rate",
          "type": "uint256"
        },
        {
          "internalType": "uint256",
          "name": "target",
          "type": "uint256"
        }
      ],
      "stateMutability": "view",
      "type": "function"
    },
    {
      "inputs": [],
      "name": "authority",
      "outputs": [
        {
          "internalType": "contract IOlympusAuthority",
          "name": "",
          "type": "address"
        }
      ],
      "stateMutability": "view",
      "type": "function"
    },
    {
      "inputs": [],
      "name": "bounty",
      "outputs": [
        {
          "internalType": "uint256",
          "name": "",
          "type": "uint256"
        }
      ],
      "stateMutability": "view",
      "type": "function"
    },
    {
      "inputs": [],
      "name": "distribute",
      "outputs": [],
      "stateMutability": "nonpayable",
      "type": "function"
    },
    {
      "inputs": [
        {
          "internalType": "uint256",
          "name": "",
          "type": "uint256"
        }
      ],
      "name": "info",
      "outputs": [
        {
          "internalType": "uint256",
          "name": "rate",
          "type": "uint256"
        },
        {
          "internalType": "address",
          "name": "recipient",
          "type": "address"
        }
      ],
      "stateMutability": "view",
      "type": "function"
    },
    {
      "inputs": [
        {
          "internalType": "uint256",
          "name": "_rate",
          "type": "uint256"
        }
      ],
      "name": "nextRewardAt",
      "outputs": [
        {
          "internalType": "uint256",
          "name": "",
          "type": "uint256"
        }
      ],
      "stateMutability": "view",
      "type": "function"
    },
    {
      "inputs": [
        {
          "internalType": "address",
          "name": "_recipient",
          "type": "address"
        }
      ],
      "name": "nextRewardFor",
      "outputs": [
        {
          "internalType": "uint256",
          "name": "",
          "type": "uint256"
        }
      ],
      "stateMutability": "view",
      "type": "function"
    },
    {
      "inputs": [
        {
          "internalType": "uint256",
          "name": "_index",
          "type": "uint256"
        }
      ],
      "name": "removeRecipient",
      "outputs": [],
      "stateMutability": "nonpayable",
      "type": "function"
    },
    {
      "inputs": [],
      "name": "retrieveBounty",
      "outputs": [
        {
          "internalType": "uint256",
          "name": "",
          "type": "uint256"
        }
      ],
      "stateMutability": "nonpayable",
      "type": "function"
    },
    {
      "inputs": [
        {
          "internalType": "uint256",
          "name": "_index",
          "type": "uint256"
        },
        {
          "internalType": "bool",
          "name": "_add",
          "type": "bool"
        },
        {
          "internalType": "uint256",
          "name": "_rate",
          "type": "uint256"
        },
        {
          "internalType": "uint256",
          "name": "_target",
          "type": "uint256"
        }
      ],
      "name": "setAdjustment",
      "outputs": [],
      "stateMutability": "nonpayable",
      "type": "function"
    },
    {
      "inputs": [
        {
          "internalType": "contract IOlympusAuthority",
          "name": "_newAuthority",
          "type": "address"
        }
      ],
      "name": "setAuthority",
      "outputs": [],
      "stateMutability": "nonpayable",
      "type": "function"
    },
    {
      "inputs": [
        {
          "internalType": "uint256",
          "name": "_bounty",
          "type": "uint256"
        }
      ],
      "name": "setBounty",
      "outputs": [],
      "stateMutability": "nonpayable",
      "type": "function"
    }
  ],
  "transactionHash": "0x54ce0de02ab4b60bd59c83000bece801dce2e409211a9ffd3f765098f02eeaad",
  "args": [
    "0xc58525D2774a406eBCDcecE21202D28B77ff1B78",
    "0xc3593B4A74433A396Fe46eAEfD5F872AefcCE246",
    "0xfCc3582b6C240b2F8552cC8bd664998Cd88E8DDc",
    "0xa359FFF2D67c5F29c3f764f5EF23Ad174a2A616A"
  ],
  "solcInputHash": "c11c2ee64510471a09c1ebad4051e611",
  "bytecode": "0x610140604052600c6101008190526b15539055551213d49256915160a21b610120908152620000329160009190620001d7565b50620f424060e0523480156200004757600080fd5b5060405162001b2c38038062001b2c8339810160408190526200006a916200029a565b600180546001600160a01b0319166001600160a01b0383169081179091556040518291907f2f658b440c35314f52658ea8a740e05b284cdc84dc9ae01e891f21b8933e7cad90600090a2506001600160a01b038416620001115760405162461bcd60e51b815260206004820152601660248201527f5a65726f20616464726573733a2054726561737572790000000000000000000060448201526064015b60405180910390fd5b6001600160a01b0380851660a0528316620001635760405162461bcd60e51b81526020600482015260116024820152705a65726f20616464726573733a204f484d60781b604482015260640162000108565b6001600160a01b038084166080528216620001c15760405162461bcd60e51b815260206004820152601560248201527f5a65726f20616464726573733a205374616b696e670000000000000000000000604482015260640162000108565b506001600160a01b031660c05250620003349050565b828054620001e590620002f7565b90600052602060002090601f01602090048101928262000209576000855562000254565b82601f106200022457805160ff191683800117855562000254565b8280016001018555821562000254579182015b828111156200025457825182559160200191906001019062000237565b506200026292915062000266565b5090565b5b8082111562000262576000815560010162000267565b80516001600160a01b03811681146200029557600080fd5b919050565b60008060008060808587031215620002b157600080fd5b620002bc856200027d565b9350620002cc602086016200027d565b9250620002dc604086016200027d565b9150620002ec606086016200027d565b905092959194509250565b600181811c908216806200030c57607f821691505b602082108114156200032e57634e487b7160e01b600052602260045260246000fd5b50919050565b60805160a05160c05160e0516117a26200038a60003960008181610ae00152610f5d015260008181610b9c01528181610d380152610de3015260008181610c340152610db601526000610b0501526117a26000f3fe608060405234801561001057600080fd5b50600436106100cf5760003560e01c8063943dfef11161008c578063c9fa8b2a11610066578063c9fa8b2a146101fd578063e4fc6b6d14610210578063e7187e8a14610218578063f79822431461022057600080fd5b8063943dfef114610178578063bc3b2b1214610181578063bf7e214f146101d257600080fd5b80632e340599146100d457806336d33f44146101095780635d87d3631461012a5780635db854b01461013f5780637a9e5e4b146101525780638e69e25514610165575b600080fd5b6100e76100e236600461147e565b610233565b604080519283526001600160a01b039091166020830152015b60405180910390f35b61011c6101173660046114ac565b61026a565b604051908152602001610100565b61013d61013836600461147e565b61030d565b005b61013d61014d3660046114c9565b610406565b61013d6101603660046114ac565b6107b3565b61013d61017336600461147e565b6108a9565b61011c60035481565b6101b561018f36600461147e565b600260208190526000918252604090912080546001820154919092015460ff9092169183565b604080519315158452602084019290925290820152606001610100565b6001546101e5906001600160a01b031681565b6040516001600160a01b039091168152602001610100565b61011c61020b36600461147e565b610ad9565b61013d610b91565b61011c610d2b565b61013d61022e36600461150b565b610e59565b6004818154811061024357600080fd5b6000918252602090912060029091020180546001909101549091506001600160a01b031682565b60008060005b60045481101561030657836001600160a01b03166004828154811061029757610297611537565b60009182526020909120600160029092020101546001600160a01b031614156102f4576102f16102ea600483815481106102d3576102d3611537565b906000526020600020906002020160000154610ad9565b8390611060565b91505b806102fe81611563565b915050610270565b5092915050565b600160009054906101000a90046001600160a01b03166001600160a01b0316630c340a246040518163ffffffff1660e01b8152600401602060405180830381865afa158015610360573d6000803e3d6000fd5b505050506040513d601f19601f82011682018060405250810190610384919061157e565b6001600160a01b0316336001600160a01b0316146000906103c15760405162461bcd60e51b81526004016103b8919061159b565b60405180910390fd5b5063773594008111156104015760405162461bcd60e51b81526020600482015260086024820152670a8dede40daeac6d60c31b60448201526064016103b8565b600355565b600160009054906101000a90046001600160a01b03166001600160a01b0316630c340a246040518163ffffffff1660e01b8152600401602060405180830381865afa158015610459573d6000803e3d6000fd5b505050506040513d601f19601f8201168201806040525081019061047d919061157e565b6001600160a01b0316336001600160a01b031614806105235750600160009054906101000a90046001600160a01b03166001600160a01b031663452a93206040518163ffffffff1660e01b8152600401602060405180830381865afa1580156104ea573d6000803e3d6000fd5b505050506040513d601f19601f8201168201806040525081019061050e919061157e565b6001600160a01b0316336001600160a01b0316145b61053f5760405162461bcd60e51b81526004016103b890611643565b60006001600160a01b03166004858154811061055d5761055d611537565b60009182526020909120600160029092020101546001600160a01b031614156105c35760405162461bcd60e51b8152602060048201526018602482015277149958da5c1a595b9d08191bd95cc81b9bdd08195e1a5cdd60421b60448201526064016103b8565b600160009054906101000a90046001600160a01b03166001600160a01b031663452a93206040518163ffffffff1660e01b8152600401602060405180830381865afa158015610616573d6000803e3d6000fd5b505050506040513d601f19601f8201168201806040525081019061063a919061157e565b6001600160a01b0316336001600160a01b031614156106dd5761068e6103e861068860196004888154811061067157610671611537565b6000918252602090912060029091020154906110c6565b90611145565b8211156106dd5760405162461bcd60e51b815260206004820152601f60248201527f4c696d697465723a2063616e6e6f742061646a757374206279203e322e35250060448201526064016103b8565b8261076e57600484815481106106f5576106f5611537565b90600052602060002090600202016000015482111561076e5760405162461bcd60e51b815260206004820152602f60248201527f43616e6e6f742064656372656173652072617465206279206d6f72652074686160448201526e6e20697420616c726561647920697360881b60648201526084016103b8565b6040805160608101825293151584526020808501938452848201928352600095865260029081905294209251835460ff19169015151783559051600183015551910155565b600160009054906101000a90046001600160a01b03166001600160a01b0316630c340a246040518163ffffffff1660e01b8152600401602060405180830381865afa158015610806573d6000803e3d6000fd5b505050506040513d601f19601f8201168201806040525081019061082a919061157e565b6001600160a01b0316336001600160a01b03161460009061085e5760405162461bcd60e51b81526004016103b8919061159b565b50600180546001600160a01b0319166001600160a01b0383169081179091556040517f2f658b440c35314f52658ea8a740e05b284cdc84dc9ae01e891f21b8933e7cad90600090a250565b600160009054906101000a90046001600160a01b03166001600160a01b0316630c340a246040518163ffffffff1660e01b8152600401602060405180830381865afa1580156108fc573d6000803e3d6000fd5b505050506040513d601f19601f82011682018060405250810190610920919061157e565b6001600160a01b0316336001600160a01b031614806109c65750600160009054906101000a90046001600160a01b03166001600160a01b031663452a93206040518163ffffffff1660e01b8152600401602060405180830381865afa15801561098d573d6000803e3d6000fd5b505050506040513d601f19601f820116820180604052508101906109b1919061157e565b6001600160a01b0316336001600160a01b0316145b6109e25760405162461bcd60e51b81526004016103b890611643565b60006001600160a01b031660048281548110610a0057610a00611537565b60009182526020909120600160029092020101546001600160a01b03161415610a665760405162461bcd60e51b8152602060048201526018602482015277149958da5c1a595b9d08191bd95cc81b9bdd08195e1a5cdd60421b60448201526064016103b8565b600060048281548110610a7b57610a7b611537565b906000526020600020906002020160010160006101000a8154816001600160a01b0302191690836001600160a01b03160217905550600060048281548110610ac557610ac5611537565b600091825260209091206002909102015550565b6000610b8b7f0000000000000000000000000000000000000000000000000000000000000000610688847f00000000000000000000000000000000000000000000000000000000000000006001600160a01b03166318160ddd6040518163ffffffff1660e01b8152600401602060405180830381865afa158015610b61573d6000803e3d6000fd5b505050506040513d601f19601f82011682018060405250810190610b859190611685565b906110c6565b92915050565b336001600160a01b037f00000000000000000000000000000000000000000000000000000000000000001614610bf85760405162461bcd60e51b815260206004820152600c60248201526b4f6e6c79207374616b696e6760a01b60448201526064016103b8565b60005b600454811015610d2857600060048281548110610c1a57610c1a611537565b9060005260206000209060020201600001541115610d16577f00000000000000000000000000000000000000000000000000000000000000006001600160a01b03166340c10f1960048381548110610c7457610c74611537565b906000526020600020906002020160010160009054906101000a90046001600160a01b0316610caf600485815481106102d3576102d3611537565b6040516001600160e01b031960e085901b1681526001600160a01b0390921660048301526024820152604401600060405180830381600087803b158015610cf557600080fd5b505af1158015610d09573d6000803e3d6000fd5b50505050610d1681611187565b80610d2081611563565b915050610bfb565b50565b6000336001600160a01b037f00000000000000000000000000000000000000000000000000000000000000001614610d945760405162461bcd60e51b815260206004820152600c60248201526b4f6e6c79207374616b696e6760a01b60448201526064016103b8565b60035415610e52576003546040516340c10f1960e01b81526001600160a01b037f000000000000000000000000000000000000000000000000000000000000000016916340c10f1991610e1f917f0000000000000000000000000000000000000000000000000000000000000000916004016001600160a01b03929092168252602082015260400190565b600060405180830381600087803b158015610e3957600080fd5b505af1158015610e4d573d6000803e3d6000fd5b505050505b5060035490565b600160009054906101000a90046001600160a01b03166001600160a01b0316630c340a246040518163ffffffff1660e01b8152600401602060405180830381865afa158015610eac573d6000803e3d6000fd5b505050506040513d601f19601f82011682018060405250810190610ed0919061157e565b6001600160a01b0316336001600160a01b031614600090610f045760405162461bcd60e51b81526004016103b8919061159b565b506001600160a01b038216610f5b5760405162461bcd60e51b815260206004820152601760248201527f5a65726f20616464726573733a20526563697069656e7400000000000000000060448201526064016103b8565b7f0000000000000000000000000000000000000000000000000000000000000000811115610fcb5760405162461bcd60e51b815260206004820152601e60248201527f526174652063616e6e6f74206578636565642064656e6f6d696e61746f72000060448201526064016103b8565b604080518082019091529081526001600160a01b03918216602082019081526004805460018101825560009190915291517f8a35acfbc15ff81a39ae7d344fd709f28e8600b4aa8c65c6b64bfe7fe36bd19b600290930292830155517f8a35acfbc15ff81a39ae7d344fd709f28e8600b4aa8c65c6b64bfe7fe36bd19c90910180546001600160a01b03191691909216179055565b60008061106d838561169e565b9050838110156110bf5760405162461bcd60e51b815260206004820152601b60248201527f536166654d6174683a206164646974696f6e206f766572666c6f77000000000060448201526064016103b8565b9392505050565b6000826110d557506000610b8b565b60006110e183856116b6565b9050826110ee85836116eb565b146110bf5760405162461bcd60e51b815260206004820152602160248201527f536166654d6174683a206d756c7469706c69636174696f6e206f766572666c6f6044820152607760f81b60648201526084016103b8565b60006110bf83836040518060400160405280601a81526020017f536166654d6174683a206469766973696f6e206279207a65726f0000000000008152506113a3565b6000818152600260208181526040928390208351606081018552815460ff1615158152600182015492810183905292015492820192909252901561129157805115611295576111fe8160200151600484815481106111e7576111e7611537565b600091825260209091206002909102015490611060565b6004838154811061121157611211611537565b60009182526020909120600290910201556040810151600480548490811061123b5761123b611537565b906000526020600020906002020160000154106112915760008281526002602052604080822060010191909155810151600480548490811061127f5761127f611537565b60009182526020909120600290910201555b5050565b8060200151600483815481106112ad576112ad611537565b9060005260206000209060020201600001541115611320576112f78160200151600484815481106112e0576112e0611537565b600091825260209091206002909102015490611407565b6004838154811061130a5761130a611537565b6000918252602090912060029091020155611347565b60006004838154811061133557611335611537565b60009182526020909120600290910201555b80604001516004838154811061135f5761135f611537565b906000526020600020906002020160000154116112915760008281526002602052604080822060010191909155810151600480548490811061127f5761127f611537565b600081836113c45760405162461bcd60e51b81526004016103b891906116ff565b5060006113d184866116eb565b90506113dd8486611754565b6113e782866116b6565b6113f1919061169e565b85146113ff576113ff611768565b949350505050565b60006110bf83836040518060400160405280601e81526020017f536166654d6174683a207375627472616374696f6e206f766572666c6f770000815250600081848411156114685760405162461bcd60e51b81526004016103b891906116ff565b506000611475848661177e565b95945050505050565b60006020828403121561149057600080fd5b5035919050565b6001600160a01b0381168114610d2857600080fd5b6000602082840312156114be57600080fd5b81356110bf81611497565b600080600080608085870312156114df57600080fd5b84359350602085013580151581146114f657600080fd5b93969395505050506040820135916060013590565b6000806040838503121561151e57600080fd5b823561152981611497565b946020939093013593505050565b634e487b7160e01b600052603260045260246000fd5b634e487b7160e01b600052601160045260246000fd5b60006000198214156115775761157761154d565b5060010190565b60006020828403121561159057600080fd5b81516110bf81611497565b600060208083526000845481600182811c9150808316806115bd57607f831692505b8583108114156115db57634e487b7160e01b85526022600452602485fd5b8786018381526020018180156115f8576001811461160957611634565b60ff19861682528782019650611634565b60008b81526020902060005b8681101561162e57815484820152908501908901611615565b83019750505b50949998505050505050505050565b60208082526022908201527f43616c6c6572206973206e6f7420676f7665726e6f72206f722067756172646960408201526130b760f11b606082015260800190565b60006020828403121561169757600080fd5b5051919050565b600082198211156116b1576116b161154d565b500190565b60008160001904831182151516156116d0576116d061154d565b500290565b634e487b7160e01b600052601260045260246000fd5b6000826116fa576116fa6116d5565b500490565b600060208083528351808285015260005b8181101561172c57858101830151858201604001528201611710565b8181111561173e576000604083870101525b50601f01601f1916929092016040019392505050565b600082611763576117636116d5565b500690565b634e487b7160e01b600052600160045260246000fd5b6000828210156117905761179061154d565b50039056fea164736f6c634300080a000a",
  "devdoc": {
    "kind": "dev",
    "methods": {
      "addRecipient(address,uint256)": {
        "params": {
          "_recipient": "address",
          "_rewardRate": "uint"
        }
      },
      "nextRewardAt(uint256)": {
        "params": {
          "_rate": "uint"
        },
        "returns": {
          "_0": "uint"
        }
      },
      "nextRewardFor(address)": {
        "params": {
          "_recipient": "address"
        },
        "returns": {
          "_0": "uint"
        }
      },
      "removeRecipient(uint256)": {
        "params": {
          "_index": "uint"
        }
      },
      "setAdjustment(uint256,bool,uint256,uint256)": {
        "params": {
          "_add": "bool",
          "_index": "uint",
          "_rate": "uint",
          "_target": "uint"
        }
      },
      "setBounty(uint256)": {
        "params": {
          "_bounty": "uint256"
        }
      }
    },
    "version": 1
  },
  "userdoc": {
    "kind": "user",
    "methods": {
      "addRecipient(address,uint256)": {
        "notice": "adds recipient for distributions"
      },
      "distribute()": {
        "notice": "send epoch reward to staking contract"
      },
      "nextRewardAt(uint256)": {
        "notice": "view function for next reward at given rate"
      },
      "nextRewardFor(address)": {
        "notice": "view function for next reward for specified address"
      },
      "removeRecipient(uint256)": {
        "notice": "removes recipient for distributions"
      },
      "setAdjustment(uint256,bool,uint256,uint256)": {
        "notice": "set adjustment info for a collector's reward rate"
      },
      "setBounty(uint256)": {
        "notice": "set bounty to incentivize keepers"
      }
    },
    "version": 1
  },
  "storageLayout": {
    "storage": [
      {
        "astId": 23622,
        "contract": "contracts/StakingDistributor.sol:Distributor",
        "label": "UNAUTHORIZED",
        "offset": 0,
        "slot": "0",
        "type": "t_string_storage"
      },
      {
        "astId": 23625,
        "contract": "contracts/StakingDistributor.sol:Distributor",
        "label": "authority",
        "offset": 0,
        "slot": "1",
        "type": "t_contract(IOlympusAuthority)15018"
      },
      {
        "astId": 5856,
        "contract": "contracts/StakingDistributor.sol:Distributor",
        "label": "adjustments",
        "offset": 0,
        "slot": "2",
        "type": "t_mapping(t_uint256,t_struct(Adjust)5878_storage)"
      },
      {
        "astId": 5859,
        "contract": "contracts/StakingDistributor.sol:Distributor",
        "label": "bounty",
        "offset": 0,
        "slot": "3",
        "type": "t_uint256"
      },
      {
        "astId": 5871,
        "contract": "contracts/StakingDistributor.sol:Distributor",
        "label": "info",
        "offset": 0,
        "slot": "4",
        "type": "t_array(t_struct(Info)5867_storage)dyn_storage"
      }
    ],
    "types": {
      "t_address": {
        "encoding": "inplace",
        "label": "address",
        "numberOfBytes": "20"
      },
      "t_array(t_struct(Info)5867_storage)dyn_storage": {
        "base": "t_struct(Info)5867_storage",
        "encoding": "dynamic_array",
        "label": "struct Distributor.Info[]",
        "numberOfBytes": "32"
      },
      "t_bool": {
        "encoding": "inplace",
        "label": "bool",
        "numberOfBytes": "1"
      },
      "t_contract(IOlympusAuthority)15018": {
        "encoding": "inplace",
        "label": "contract IOlympusAuthority",
        "numberOfBytes": "20"
      },
      "t_mapping(t_uint256,t_struct(Adjust)5878_storage)": {
        "encoding": "mapping",
        "key": "t_uint256",
        "label": "mapping(uint256 => struct Distributor.Adjust)",
        "numberOfBytes": "32",
        "value": "t_struct(Adjust)5878_storage"
      },
      "t_string_storage": {
        "encoding": "bytes",
        "label": "string",
        "numberOfBytes": "32"
      },
      "t_struct(Adjust)5878_storage": {
        "encoding": "inplace",
        "label": "struct Distributor.Adjust",
        "members": [
          {
            "astId": 5873,
            "contract": "contracts/StakingDistributor.sol:Distributor",
            "label": "add",
            "offset": 0,
            "slot": "0",
            "type": "t_bool"
          },
          {
            "astId": 5875,
            "contract": "contracts/StakingDistributor.sol:Distributor",
            "label": "rate",
            "offset": 0,
            "slot": "1",
            "type": "t_uint256"
          },
          {
            "astId": 5877,
            "contract": "contracts/StakingDistributor.sol:Distributor",
            "label": "target",
            "offset": 0,
            "slot": "2",
            "type": "t_uint256"
          }
        ],
        "numberOfBytes": "96"
      },
      "t_struct(Info)5867_storage": {
        "encoding": "inplace",
        "label": "struct Distributor.Info",
        "members": [
          {
            "astId": 5864,
            "contract": "contracts/StakingDistributor.sol:Distributor",
            "label": "rate",
            "offset": 0,
            "slot": "0",
            "type": "t_uint256"
          },
          {
            "astId": 5866,
            "contract": "contracts/StakingDistributor.sol:Distributor",
            "label": "recipient",
            "offset": 0,
            "slot": "1",
            "type": "t_address"
          }
        ],
        "numberOfBytes": "64"
      },
      "t_uint256": {
        "encoding": "inplace",
        "label": "uint256",
        "numberOfBytes": "32"
      }
    }
  }
}