{
  "address": "0xc3593B4A74433A396Fe46eAEfD5F872AefcCE246",
  "abi": [
    {
      "inputs": [
        {
          "internalType": "address",
          "name": "_authority",
          "type": "address"
        }
      ],
      "stateMutability": "nonpayable",
      "type": "constructor"
    },
    {
      "anonymous": false,
      "inputs": [
        {
          "indexed": true,
          "internalType": "address",
          "name": "owner",
          "type": "address"
        },
        {
          "indexed": true,
          "internalType": "address",
          "name": "spender",
          "type": "address"
        },
        {
          "indexed": false,
          "internalType": "uint256",
          "name": "value",
          "type": "uint256"
        }
      ],
      "name": "Approval",
      "type": "event"
    },
    {
      "anonymous": false,
      "inputs": [
        {
          "indexed": true,
          "internalType": "contract IOlympusAuthority",
          "name": "authority",
          "type": "address"
        }
      ],
      "name": "AuthorityUpdated",
      "type": "event"
    },
    {
      "anonymous": false,
      "inputs": [
        {
          "indexed": true,
          "internalType": "address",
          "name": "from",
          "type": "address"
        },
        {
          "indexed": true,
          "internalType": "address",
          "name": "to",
          "type": "address"
        },
        {
          "indexed": false,
          "internalType": "uint256",
          "name": "value",
          "type": "uint256"
        }
      ],
      "name": "Transfer",
      "type": "event"
    },
    {
      "inputs": [],
      "name": "DOMAIN_SEPARATOR",
      "outputs": [
        {
          "internalType": "bytes32",
          "name": "",
          "type": "bytes32"
        }
      ],
      "stateMutability": "view",
      "type": "function"
    },
    {
      "inputs": [
        {
          "internalType": "address",
          "name": "owner",
          "type": "address"
        },
        {
          "internalType": "address",
          "name": "spender",
          "type": "address"
        }
      ],
      "name": "allowance",
      "outputs": [
        {
          "internalType": "uint256",
          "name": "",
          "type": "uint256"
        }
      ],
      "stateMutability": "view",
      "type": "function"
    },
    {
      "inputs": [
        {
          "internalType": "address",
          "name": "spender",
          "type": "address"
        },
        {
          "internalType": "uint256",
          "name": "amount",
          "type": "uint256"
        }
      ],
      "name": "approve",
      "outputs": [
        {
          "internalType": "bool",
          "name": "",
          "type": "bool"
        }
      ],
      "stateMutability": "nonpayable",
      "type": "function"
    },
    {
      "inputs": [],
      "name": "authority",
      "outputs": [
        {
          "internalType": "contract IOlympusAuthority",
          "name": "",
          "type": "address"
        }
      ],
      "stateMutability": "view",
      "type": "function"
    },
    {
      "inputs": [
        {
          "internalType": "address",
          "name": "account",
          "type": "address"
        }
      ],
      "name": "balanceOf",
      "outputs": [
        {
          "internalType": "uint256",
          "name": "",
          "type": "uint256"
        }
      ],
      "stateMutability": "view",
      "type": "function"
    },
    {
      "inputs": [
        {
          "internalType": "uint256",
          "name": "amount",
          "type": "uint256"
        }
      ],
      "name": "burn",
      "outputs": [],
      "stateMutability": "nonpayable",
      "type": "function"
    },
    {
      "inputs": [
        {
          "internalType": "address",
          "name": "account_",
          "type": "address"
        },
        {
          "internalType": "uint256",
          "name": "amount_",
          "type": "uint256"
        }
      ],
      "name": "burnFrom",
      "outputs": [],
      "stateMutability": "nonpayable",
      "type": "function"
    },
    {
      "inputs": [],
      "name": "decimals",
      "outputs": [
        {
          "internalType": "uint8",
          "name": "",
          "type": "uint8"
        }
      ],
      "stateMutability": "view",
      "type": "function"
    },
    {
      "inputs": [
        {
          "internalType": "address",
          "name": "spender",
          "type": "address"
        },
        {
          "internalType": "uint256",
          "name": "subtractedValue",
          "type": "uint256"
        }
      ],
      "name": "decreaseAllowance",
      "outputs": [
        {
          "internalType": "bool",
          "name": "",
          "type": "bool"
        }
      ],
      "stateMutability": "nonpayable",
      "type": "function"
    },
    {
      "inputs": [
        {
          "internalType": "address",
          "name": "spender",
          "type": "address"
        },
        {
          "internalType": "uint256",
          "name": "addedValue",
          "type": "uint256"
        }
      ],
      "name": "increaseAllowance",
      "outputs": [
        {
          "internalType": "bool",
          "name": "",
          "type": "bool"
        }
      ],
      "stateMutability": "nonpayable",
      "type": "function"
    },
    {
      "inputs": [
        {
          "internalType": "address",
          "name": "account_",
          "type": "address"
        },
        {
          "internalType": "uint256",
          "name": "amount_",
          "type": "uint256"
        }
      ],
      "name": "mint",
      "outputs": [],
      "stateMutability": "nonpayable",
      "type": "function"
    },
    {
      "inputs": [],
      "name": "name",
      "outputs": [
        {
          "internalType": "string",
          "name": "",
          "type": "string"
        }
      ],
      "stateMutability": "view",
      "type": "function"
    },
    {
      "inputs": [
        {
          "internalType": "address",
          "name": "owner",
          "type": "address"
        }
      ],
      "name": "nonces",
      "outputs": [
        {
          "internalType": "uint256",
          "name": "",
          "type": "uint256"
        }
      ],
      "stateMutability": "view",
      "type": "function"
    },
    {
      "inputs": [
        {
          "internalType": "address",
          "name": "owner",
          "type": "address"
        },
        {
          "internalType": "address",
          "name": "spender",
          "type": "address"
        },
        {
          "internalType": "uint256",
          "name": "value",
          "type": "uint256"
        },
        {
          "internalType": "uint256",
          "name": "deadline",
          "type": "uint256"
        },
        {
          "internalType": "uint8",
          "name": "v",
          "type": "uint8"
        },
        {
          "internalType": "bytes32",
          "name": "r",
          "type": "bytes32"
        },
        {
          "internalType": "bytes32",
          "name": "s",
          "type": "bytes32"
        }
      ],
      "name": "permit",
      "outputs": [],
      "stateMutability": "nonpayable",
      "type": "function"
    },
    {
      "inputs": [
        {
          "internalType": "contract IOlympusAuthority",
          "name": "_newAuthority",
          "type": "address"
        }
      ],
      "name": "setAuthority",
      "outputs": [],
      "stateMutability": "nonpayable",
      "type": "function"
    },
    {
      "inputs": [],
      "name": "symbol",
      "outputs": [
        {
          "internalType": "string",
          "name": "",
          "type": "string"
        }
      ],
      "stateMutability": "view",
      "type": "function"
    },
    {
      "inputs": [],
      "name": "totalSupply",
      "outputs": [
        {
          "internalType": "uint256",
          "name": "",
          "type": "uint256"
        }
      ],
      "stateMutability": "view",
      "type": "function"
    },
    {
      "inputs": [
        {
          "internalType": "address",
          "name": "recipient",
          "type": "address"
        },
        {
          "internalType": "uint256",
          "name": "amount",
          "type": "uint256"
        }
      ],
      "name": "transfer",
      "outputs": [
        {
          "internalType": "bool",
          "name": "",
          "type": "bool"
        }
      ],
      "stateMutability": "nonpayable",
      "type": "function"
    },
    {
      "inputs": [
        {
          "internalType": "address",
          "name": "sender",
          "type": "address"
        },
        {
          "internalType": "address",
          "name": "recipient",
          "type": "address"
        },
        {
          "internalType": "uint256",
          "name": "amount",
          "type": "uint256"
        }
      ],
      "name": "transferFrom",
      "outputs": [
        {
          "internalType": "bool",
          "name": "",
          "type": "bool"
        }
      ],
      "stateMutability": "nonpayable",
      "type": "function"
    }
  ],
  "transactionHash": "0x51425b87fd3ca1cd9721f0d8134a15da2aec95e0e469e244346fe3b0253a1ad8",
  "args": [
    "0xa359FFF2D67c5F29c3f764f5EF23Ad174a2A616A"
  ],
  "solcInputHash": "c11c2ee64510471a09c1ebad4051e611",
  "bytecode": "0x7f6e71edae12b1b97f4d1f60370fef10105fa2faae0126114a169c64845d6126c9610140526101a0604052600c6101608190526b15539055551213d49256915160a21b61018090815262000057916006919062000215565b503480156200006557600080fd5b50604051620019ab380380620019ab8339810160408190526200008891620002bb565b80604051806040016040528060078152602001664f6c796d70757360c81b81525080604051806040016040528060018152602001603160f81b815250604051806040016040528060078152602001664f6c796d70757360c81b815250604051806040016040528060038152602001624f484d60e81b815250600982600390805190602001906200011a92919062000215565b5081516200013090600490602085019062000215565b5060ff166080908152845160209586012084519486019490942060e08590526101008190524660c0818152604080517f8b73c3c69bb8fe3d512ecc4cf759cc79239f7b179b0ffacaa9a75d522b39400f818b01819052818301999099526060810194909452938301919091523060a080840191909152835180840382018152929091019283905281519190960120909452505061012052600780546001600160a01b0319166001600160a01b03851690811790915591507f2f658b440c35314f52658ea8a740e05b284cdc84dc9ae01e891f21b8933e7cad90600090a250506200032a565b8280546200022390620002ed565b90600052602060002090601f01602090048101928262000247576000855562000292565b82601f106200026257805160ff191683800117855562000292565b8280016001018555821562000292579182015b828111156200029257825182559160200191906001019062000275565b50620002a0929150620002a4565b5090565b5b80821115620002a05760008155600101620002a5565b600060208284031215620002ce57600080fd5b81516001600160a01b0381168114620002e657600080fd5b9392505050565b600181811c908216806200030257607f821691505b602082108114156200032457634e487b7160e01b600052602260045260246000fd5b50919050565b60805160a05160c05160e0516101005161012051610140516116266200038560003960006106ed01526000610b3901526000610b8801526000610b6301526000610ae401526000610b0c0152600061019301526116266000f3fe608060405234801561001057600080fd5b50600436106101215760003560e01c806370a08231116100ad578063a457c2d711610071578063a457c2d71461026a578063a9059cbb1461027d578063bf7e214f14610290578063d505accf146102bb578063dd62ed3e146102ce57600080fd5b806370a082311461020057806379cc6790146102295780637a9e5e4b1461023c5780637ecebe001461024f57806395d89b411461026257600080fd5b8063313ce567116100f4578063313ce5671461018c5780633644e515146101bd57806339509351146101c557806340c10f19146101d857806342966c68146101ed57600080fd5b806306fdde0314610126578063095ea7b31461014457806318160ddd1461016757806323b872dd14610179575b600080fd5b61012e610307565b60405161013b919061122c565b60405180910390f35b610157610152366004611296565b610399565b604051901515815260200161013b565b6002545b60405190815260200161013b565b6101576101873660046112c2565b6103af565b60405160ff7f000000000000000000000000000000000000000000000000000000000000000016815260200161013b565b61016b610418565b6101576101d3366004611296565b610427565b6101eb6101e6366004611296565b61045d565b005b6101eb6101fb366004611303565b610501565b61016b61020e36600461131c565b6001600160a01b031660009081526020819052604090205490565b6101eb610237366004611296565b61050e565b6101eb61024a36600461131c565b610518565b61016b61025d36600461131c565b61060e565b61012e61062e565b610157610278366004611296565b61063d565b61015761028b366004611296565b61068c565b6007546102a3906001600160a01b031681565b6040516001600160a01b03909116815260200161013b565b6101eb6102c9366004611339565b610699565b61016b6102dc3660046113b0565b6001600160a01b03918216600090815260016020908152604080832093909416825291909152205490565b606060038054610316906113e9565b80601f0160208091040260200160405190810160405280929190818152602001828054610342906113e9565b801561038f5780601f106103645761010080835404028352916020019161038f565b820191906000526020600020905b81548152906001019060200180831161037257829003601f168201915b5050505050905090565b60006103a63384846107fd565b50600192915050565b60006103bc848484610922565b61040e8433610409856040518060600160405280602881526020016115a9602891396001600160a01b038a1660009081526001602090815260408083203384529091529020549190610aa5565b6107fd565b5060019392505050565b6000610422610adf565b905090565b3360008181526001602090815260408083206001600160a01b038716845290915281205490916103a69185906104099086610bd6565b600754604051633d1bb33160e21b81523360048201526001600160a01b039091169063f46eccc490602401602060405180830381865afa1580156104a5573d6000803e3d6000fd5b505050506040513d601f19601f820116820180604052508101906104c9919061141e565b6006906104f25760405162461bcd60e51b81526004016104e99190611440565b60405180910390fd5b506104fd8282610c3c565b5050565b61050b3382610d1b565b50565b6104fd8282610e1f565b600760009054906101000a90046001600160a01b03166001600160a01b0316630c340a246040518163ffffffff1660e01b8152600401602060405180830381865afa15801561056b573d6000803e3d6000fd5b505050506040513d601f19601f8201168201806040525081019061058f91906114e8565b6001600160a01b0316336001600160a01b0316146006906105c35760405162461bcd60e51b81526004016104e99190611440565b50600780546001600160a01b0319166001600160a01b0383169081179091556040517f2f658b440c35314f52658ea8a740e05b284cdc84dc9ae01e891f21b8933e7cad90600090a250565b6001600160a01b0381166000908152600560205260408120545b92915050565b606060048054610316906113e9565b60006103a63384610409856040518060600160405280602581526020016115f5602591393360009081526001602090815260408083206001600160a01b038d1684529091529020549190610aa5565b60006103a6338484610922565b834211156106e95760405162461bcd60e51b815260206004820152601d60248201527f45524332305065726d69743a206578706972656420646561646c696e6500000060448201526064016104e9565b60007f00000000000000000000000000000000000000000000000000000000000000008888886107188c610e85565b6040805160208101969096526001600160a01b0394851690860152929091166060840152608083015260a082015260c0810186905260e001604051602081830303815290604052805190602001209050600061077382610eaf565b9050600061078382878787610efd565b9050896001600160a01b0316816001600160a01b0316146107e65760405162461bcd60e51b815260206004820152601e60248201527f45524332305065726d69743a20696e76616c6964207369676e6174757265000060448201526064016104e9565b6107f18a8a8a6107fd565b50505050505050505050565b6001600160a01b03831661085f5760405162461bcd60e51b8152602060048201526024808201527f45524332303a20617070726f76652066726f6d20746865207a65726f206164646044820152637265737360e01b60648201526084016104e9565b6001600160a01b0382166108c05760405162461bcd60e51b815260206004820152602260248201527f45524332303a20617070726f766520746f20746865207a65726f206164647265604482015261737360f01b60648201526084016104e9565b6001600160a01b0383811660008181526001602090815260408083209487168084529482529182902085905590518481527f8c5be1e5ebec7d5bd14f71427d1e84f3dd0314c0f7b2291e5b200ac8c7c3b92591015b60405180910390a3505050565b6001600160a01b0383166109865760405162461bcd60e51b815260206004820152602560248201527f45524332303a207472616e736665722066726f6d20746865207a65726f206164604482015264647265737360d81b60648201526084016104e9565b6001600160a01b0382166109e85760405162461bcd60e51b815260206004820152602360248201527f45524332303a207472616e7366657220746f20746865207a65726f206164647260448201526265737360e81b60648201526084016104e9565b610a2581604051806060016040528060268152602001611583602691396001600160a01b0386166000908152602081905260409020549190610aa5565b6001600160a01b038085166000908152602081905260408082209390935590841681522054610a549082610bd6565b6001600160a01b038381166000818152602081815260409182902094909455518481529092918616917fddf252ad1be2c89b69c2b068fc378daa952ba7f163c4a11628f55a4df523b3ef9101610915565b60008184841115610ac95760405162461bcd60e51b81526004016104e9919061122c565b506000610ad6848661151b565b95945050505050565b6000467f0000000000000000000000000000000000000000000000000000000000000000811415610b31577f000000000000000000000000000000000000000000000000000000000000000091505090565b5050604080517f00000000000000000000000000000000000000000000000000000000000000006020808301919091527f0000000000000000000000000000000000000000000000000000000000000000828401527f000000000000000000000000000000000000000000000000000000000000000060608301524660808301523060a0808401919091528351808403909101815260c0909201909252805191012090565b600080610be38385611532565b905083811015610c355760405162461bcd60e51b815260206004820152601b60248201527f536166654d6174683a206164646974696f6e206f766572666c6f77000000000060448201526064016104e9565b9392505050565b6001600160a01b038216610c925760405162461bcd60e51b815260206004820152601f60248201527f45524332303a206d696e7420746f20746865207a65726f20616464726573730060448201526064016104e9565b600254610c9f9082610bd6565b6002556001600160a01b038216600090815260208190526040902054610cc59082610bd6565b6001600160a01b038316600081815260208181526040808320949094559251848152919290917fddf252ad1be2c89b69c2b068fc378daa952ba7f163c4a11628f55a4df523b3ef91015b60405180910390a35050565b6001600160a01b038216610d7b5760405162461bcd60e51b815260206004820152602160248201527f45524332303a206275726e2066726f6d20746865207a65726f206164647265736044820152607360f81b60648201526084016104e9565b610db881604051806060016040528060228152602001611561602291396001600160a01b0385166000908152602081905260409020549190610aa5565b6001600160a01b038316600090815260208190526040902055600254610dde9082610f25565b6002556040518181526000906001600160a01b038416907fddf252ad1be2c89b69c2b068fc378daa952ba7f163c4a11628f55a4df523b3ef90602001610d0f565b6000610e69826040518060600160405280602481526020016115d1602491396001600160a01b03861660009081526001602090815260408083203384529091529020549190610aa5565b9050610e768333836107fd565b610e808383610d1b565b505050565b6001600160a01b0381166000908152600560205260409020805490610ea981610f67565b50919050565b6000610628610ebc610adf565b8360405161190160f01b6020820152602281018390526042810182905260009060620160405160208183030381529060405280519060200120905092915050565b6000806000610f0e87878787610f84565b91509150610f1b81611071565b5095945050505050565b6000610c3583836040518060400160405280601e81526020017f536166654d6174683a207375627472616374696f6e206f766572666c6f770000815250610aa5565b6001816000016000828254610f7c9190611532565b909155505050565b6000807f7fffffffffffffffffffffffffffffff5d576e7357a4501ddfe92f46681b20a0831115610fbb5750600090506003611068565b8460ff16601b14158015610fd357508460ff16601c14155b15610fe45750600090506004611068565b6040805160008082526020820180845289905260ff881692820192909252606081018690526080810185905260019060a0016020604051602081039080840390855afa158015611038573d6000803e3d6000fd5b5050604051601f1901519150506001600160a01b03811661106157600060019250925050611068565b9150600090505b94509492505050565b60008160048111156110855761108561154a565b141561108e5750565b60018160048111156110a2576110a261154a565b14156110f05760405162461bcd60e51b815260206004820152601860248201527f45434453413a20696e76616c6964207369676e6174757265000000000000000060448201526064016104e9565b60028160048111156111045761110461154a565b14156111525760405162461bcd60e51b815260206004820152601f60248201527f45434453413a20696e76616c6964207369676e6174757265206c656e6774680060448201526064016104e9565b60038160048111156111665761116661154a565b14156111bf5760405162461bcd60e51b815260206004820152602260248201527f45434453413a20696e76616c6964207369676e6174757265202773272076616c604482015261756560f01b60648201526084016104e9565b60048160048111156111d3576111d361154a565b141561050b5760405162461bcd60e51b815260206004820152602260248201527f45434453413a20696e76616c6964207369676e6174757265202776272076616c604482015261756560f01b60648201526084016104e9565b600060208083528351808285015260005b818110156112595785810183015185820160400152820161123d565b8181111561126b576000604083870101525b50601f01601f1916929092016040019392505050565b6001600160a01b038116811461050b57600080fd5b600080604083850312156112a957600080fd5b82356112b481611281565b946020939093013593505050565b6000806000606084860312156112d757600080fd5b83356112e281611281565b925060208401356112f281611281565b929592945050506040919091013590565b60006020828403121561131557600080fd5b5035919050565b60006020828403121561132e57600080fd5b8135610c3581611281565b600080600080600080600060e0888a03121561135457600080fd5b873561135f81611281565b9650602088013561136f81611281565b95506040880135945060608801359350608088013560ff8116811461139357600080fd5b9699959850939692959460a0840135945060c09093013592915050565b600080604083850312156113c357600080fd5b82356113ce81611281565b915060208301356113de81611281565b809150509250929050565b600181811c908216806113fd57607f821691505b60208210811415610ea957634e487b7160e01b600052602260045260246000fd5b60006020828403121561143057600080fd5b81518015158114610c3557600080fd5b600060208083526000845481600182811c91508083168061146257607f831692505b85831081141561148057634e487b7160e01b85526022600452602485fd5b87860183815260200181801561149d57600181146114ae576114d9565b60ff198616825287820196506114d9565b60008b81526020902060005b868110156114d3578154848201529085019089016114ba565b83019750505b50949998505050505050505050565b6000602082840312156114fa57600080fd5b8151610c3581611281565b634e487b7160e01b600052601160045260246000fd5b60008282101561152d5761152d611505565b500390565b6000821982111561154557611545611505565b500190565b634e487b7160e01b600052602160045260246000fdfe45524332303a206275726e20616d6f756e7420657863656564732062616c616e636545524332303a207472616e7366657220616d6f756e7420657863656564732062616c616e636545524332303a207472616e7366657220616d6f756e74206578636565647320616c6c6f77616e636545524332303a206275726e20616d6f756e74206578636565647320616c6c6f77616e636545524332303a2064656372656173656420616c6c6f77616e63652062656c6f77207a65726fa164736f6c634300080a000a",
  "devdoc": {
    "kind": "dev",
    "methods": {
      "DOMAIN_SEPARATOR()": {
        "details": "See {IERC20Permit-DOMAIN_SEPARATOR}."
      },
      "nonces(address)": {
        "details": "See {IERC20Permit-nonces}."
      },
      "permit(address,address,uint256,uint256,uint8,bytes32,bytes32)": {
        "details": "See {IERC20Permit-permit}."
      }
    },
    "version": 1
  },
  "userdoc": {
    "kind": "user",
    "methods": {},
    "version": 1
  },
  "storageLayout": {
    "storage": [
      {
        "astId": 22288,
        "contract": "contracts/OlympusERC20.sol:OlympusERC20Token",
        "label": "_balances",
        "offset": 0,
        "slot": "0",
        "type": "t_mapping(t_address,t_uint256)"
      },
      {
        "astId": 22294,
        "contract": "contracts/OlympusERC20.sol:OlympusERC20Token",
        "label": "_allowances",
        "offset": 0,
        "slot": "1",
        "type": "t_mapping(t_address,t_mapping(t_address,t_uint256))"
      },
      {
        "astId": 22296,
        "contract": "contracts/OlympusERC20.sol:OlympusERC20Token",
        "label": "_totalSupply",
        "offset": 0,
        "slot": "2",
        "type": "t_uint256"
      },
      {
        "astId": 22298,
        "contract": "contracts/OlympusERC20.sol:OlympusERC20Token",
        "label": "_name",
        "offset": 0,
        "slot": "3",
        "type": "t_string_storage"
      },
      {
        "astId": 22300,
        "contract": "contracts/OlympusERC20.sol:OlympusERC20Token",
        "label": "_symbol",
        "offset": 0,
        "slot": "4",
        "type": "t_string_storage"
      },
      {
        "astId": 22771,
        "contract": "contracts/OlympusERC20.sol:OlympusERC20Token",
        "label": "_nonces",
        "offset": 0,
        "slot": "5",
        "type": "t_mapping(t_address,t_struct(Counter)16044_storage)"
      },
      {
        "astId": 23622,
        "contract": "contracts/OlympusERC20.sol:OlympusERC20Token",
        "label": "UNAUTHORIZED",
        "offset": 0,
        "slot": "6",
        "type": "t_string_storage"
      },
      {
        "astId": 23625,
        "contract": "contracts/OlympusERC20.sol:OlympusERC20Token",
        "label": "authority",
        "offset": 0,
        "slot": "7",
        "type": "t_contract(IOlympusAuthority)15018"
      }
    ],
    "types": {
      "t_address": {
        "encoding": "inplace",
        "label": "address",
        "numberOfBytes": "20"
      },
      "t_contract(IOlympusAuthority)15018": {
        "encoding": "inplace",
        "label": "contract IOlympusAuthority",
        "numberOfBytes": "20"
      },
      "t_mapping(t_address,t_mapping(t_address,t_uint256))": {
        "encoding": "mapping",
        "key": "t_address",
        "label": "mapping(address => mapping(address => uint256))",
        "numberOfBytes": "32",
        "value": "t_mapping(t_address,t_uint256)"
      },
      "t_mapping(t_address,t_struct(Counter)16044_storage)": {
        "encoding": "mapping",
        "key": "t_address",
        "label": "mapping(address => struct Counters.Counter)",
        "numberOfBytes": "32",
        "value": "t_struct(Counter)16044_storage"
      },
      "t_mapping(t_address,t_uint256)": {
        "encoding": "mapping",
        "key": "t_address",
        "label": "mapping(address => uint256)",
        "numberOfBytes": "32",
        "value": "t_uint256"
      },
      "t_string_storage": {
        "encoding": "bytes",
        "label": "string",
        "numberOfBytes": "32"
      },
      "t_struct(Counter)16044_storage": {
        "encoding": "inplace",
        "label": "struct Counters.Counter",
        "members": [
          {
            "astId": 16043,
            "contract": "contracts/OlympusERC20.sol:OlympusERC20Token",
            "label": "_value",
            "offset": 0,
            "slot": "0",
            "type": "t_uint256"
          }
        ],
        "numberOfBytes": "32"
      },
      "t_uint256": {
        "encoding": "inplace",
        "label": "uint256",
        "numberOfBytes": "32"
      }
    }
  }
}