{
  "address": "0xBaE7DA942EA417F9FBd5dAa304AdCEFcAe454Ae3",
  "abi": [
    {
      "inputs": [
        {
          "internalType": "address",
          "name": "_ohm",
          "type": "address"
        },
        {
          "internalType": "address",
          "name": "_sOHM",
          "type": "address"
        },
        {
          "internalType": "address",
          "name": "_gOHM",
          "type": "address"
        },
        {
          "internalType": "uint256",
          "name": "_epochLength",
          "type": "uint256"
        },
        {
          "internalType": "uint256",
          "name": "_firstEpochNumber",
          "type": "uint256"
        },
        {
          "internalType": "uint256",
          "name": "_firstEpochTime",
          "type": "uint256"
        },
        {
          "internalType": "address",
          "name": "_authority",
          "type": "address"
        }
      ],
      "stateMutability": "nonpayable",
      "type": "constructor"
    },
    {
      "anonymous": false,
      "inputs": [
        {
          "indexed": true,
          "internalType": "contract IOlympusAuthority",
          "name": "authority",
          "type": "address"
        }
      ],
      "name": "AuthorityUpdated",
      "type": "event"
    },
    {
      "anonymous": false,
      "inputs": [
        {
          "indexed": false,
          "internalType": "address",
          "name": "distributor",
          "type": "address"
        }
      ],
      "name": "DistributorSet",
      "type": "event"
    },
    {
      "anonymous": false,
      "inputs": [
        {
          "indexed": false,
          "internalType": "uint256",
          "name": "warmup",
          "type": "uint256"
        }
      ],
      "name": "WarmupSet",
      "type": "event"
    },
    {
      "inputs": [],
      "name": "OHM",
      "outputs": [
        {
          "internalType": "contract IERC20",
          "name": "",
          "type": "address"
        }
      ],
      "stateMutability": "view",
      "type": "function"
    },
    {
      "inputs": [],
      "name": "authority",
      "outputs": [
        {
          "internalType": "contract IOlympusAuthority",
          "name": "",
          "type": "address"
        }
      ],
      "stateMutability": "view",
      "type": "function"
    },
    {
      "inputs": [
        {
          "internalType": "address",
          "name": "_to",
          "type": "address"
        },
        {
          "internalType": "bool",
          "name": "_rebasing",
          "type": "bool"
        }
      ],
      "name": "claim",
      "outputs": [
        {
          "internalType": "uint256",
          "name": "",
          "type": "uint256"
        }
      ],
      "stateMutability": "nonpayable",
      "type": "function"
    },
    {
      "inputs": [],
      "name": "distributor",
      "outputs": [
        {
          "internalType": "contract IDistributor",
          "name": "",
          "type": "address"
        }
      ],
      "stateMutability": "view",
      "type": "function"
    },
    {
      "inputs": [],
      "name": "epoch",
      "outputs": [
        {
          "internalType": "uint256",
          "name": "length",
          "type": "uint256"
        },
        {
          "internalType": "uint256",
          "name": "number",
          "type": "uint256"
        },
        {
          "internalType": "uint256",
          "name": "end",
          "type": "uint256"
        },
        {
          "internalType": "uint256",
          "name": "distribute",
          "type": "uint256"
        }
      ],
      "stateMutability": "view",
      "type": "function"
    },
    {
      "inputs": [],
      "name": "forfeit",
      "outputs": [
        {
          "internalType": "uint256",
          "name": "",
          "type": "uint256"
        }
      ],
      "stateMutability": "nonpayable",
      "type": "function"
    },
    {
      "inputs": [],
      "name": "gOHM",
      "outputs": [
        {
          "internalType": "contract IgOHM",
          "name": "",
          "type": "address"
        }
      ],
      "stateMutability": "view",
      "type": "function"
    },
    {
      "inputs": [],
      "name": "index",
      "outputs": [
        {
          "internalType": "uint256",
          "name": "",
          "type": "uint256"
        }
      ],
      "stateMutability": "view",
      "type": "function"
    },
    {
      "inputs": [],
      "name": "rebase",
      "outputs": [
        {
          "internalType": "uint256",
          "name": "",
          "type": "uint256"
        }
      ],
      "stateMutability": "nonpayable",
      "type": "function"
    },
    {
      "inputs": [],
      "name": "sOHM",
      "outputs": [
        {
          "internalType": "contract IsOHM",
          "name": "",
          "type": "address"
        }
      ],
      "stateMutability": "view",
      "type": "function"
    },
    {
      "inputs": [],
      "name": "secondsToNextEpoch",
      "outputs": [
        {
          "internalType": "uint256",
          "name": "",
          "type": "uint256"
        }
      ],
      "stateMutability": "view",
      "type": "function"
    },
    {
      "inputs": [
        {
          "internalType": "contract IOlympusAuthority",
          "name": "_newAuthority",
          "type": "address"
        }
      ],
      "name": "setAuthority",
      "outputs": [],
      "stateMutability": "nonpayable",
      "type": "function"
    },
    {
      "inputs": [
        {
          "internalType": "address",
          "name": "_distributor",
          "type": "address"
        }
      ],
      "name": "setDistributor",
      "outputs": [],
      "stateMutability": "nonpayable",
      "type": "function"
    },
    {
      "inputs": [
        {
          "internalType": "uint256",
          "name": "_warmupPeriod",
          "type": "uint256"
        }
      ],
      "name": "setWarmupLength",
      "outputs": [],
      "stateMutability": "nonpayable",
      "type": "function"
    },
    {
      "inputs": [
        {
          "internalType": "address",
          "name": "_to",
          "type": "address"
        },
        {
          "internalType": "uint256",
          "name": "_amount",
          "type": "uint256"
        },
        {
          "internalType": "bool",
          "name": "_rebasing",
          "type": "bool"
        },
        {
          "internalType": "bool",
          "name": "_claim",
          "type": "bool"
        }
      ],
      "name": "stake",
      "outputs": [
        {
          "internalType": "uint256",
          "name": "",
          "type": "uint256"
        }
      ],
      "stateMutability": "nonpayable",
      "type": "function"
    },
    {
      "inputs": [],
      "name": "supplyInWarmup",
      "outputs": [
        {
          "internalType": "uint256",
          "name": "",
          "type": "uint256"
        }
      ],
      "stateMutability": "view",
      "type": "function"
    },
    {
      "inputs": [],
      "name": "toggleLock",
      "outputs": [],
      "stateMutability": "nonpayable",
      "type": "function"
    },
    {
      "inputs": [
        {
          "internalType": "address",
          "name": "_to",
          "type": "address"
        },
        {
          "internalType": "uint256",
          "name": "_amount",
          "type": "uint256"
        },
        {
          "internalType": "bool",
          "name": "_trigger",
          "type": "bool"
        },
        {
          "internalType": "bool",
          "name": "_rebasing",
          "type": "bool"
        }
      ],
      "name": "unstake",
      "outputs": [
        {
          "internalType": "uint256",
          "name": "amount_",
          "type": "uint256"
        }
      ],
      "stateMutability": "nonpayable",
      "type": "function"
    },
    {
      "inputs": [
        {
          "internalType": "address",
          "name": "_to",
          "type": "address"
        },
        {
          "internalType": "uint256",
          "name": "_amount",
          "type": "uint256"
        }
      ],
      "name": "unwrap",
      "outputs": [
        {
          "internalType": "uint256",
          "name": "sBalance_",
          "type": "uint256"
        }
      ],
      "stateMutability": "nonpayable",
      "type": "function"
    },
    {
      "inputs": [
        {
          "internalType": "address",
          "name": "",
          "type": "address"
        }
      ],
      "name": "warmupInfo",
      "outputs": [
        {
          "internalType": "uint256",
          "name": "deposit",
          "type": "uint256"
        },
        {
          "internalType": "uint256",
          "name": "gons",
          "type": "uint256"
        },
        {
          "internalType": "uint256",
          "name": "expiry",
          "type": "uint256"
        },
        {
          "internalType": "bool",
          "name": "lock",
          "type": "bool"
        }
      ],
      "stateMutability": "view",
      "type": "function"
    },
    {
      "inputs": [],
      "name": "warmupPeriod",
      "outputs": [
        {
          "internalType": "uint256",
          "name": "",
          "type": "uint256"
        }
      ],
      "stateMutability": "view",
      "type": "function"
    },
    {
      "inputs": [
        {
          "internalType": "address",
          "name": "_to",
          "type": "address"
        },
        {
          "internalType": "uint256",
          "name": "_amount",
          "type": "uint256"
        }
      ],
      "name": "wrap",
      "outputs": [
        {
          "internalType": "uint256",
          "name": "gBalance_",
          "type": "uint256"
        }
      ],
      "stateMutability": "nonpayable",
      "type": "function"
    }
  ],
  "transactionHash": "0x45603ca4aed6cc097967c3492f99afb01350074eaa11ab3d2b7f1ed29e706f2b",
  "args": [
    "0x4d33BDfa6A0C4DBF913b33E2415D0F6FC1d2425F",
    "0x9ae6C2F75038Cce7Ed73B4724F934B2a2F76E4c2",
    "0x3F6b053dFa7879A9AF7b11Ed22Ea56DB49ee7ecD",
    "1000",
    "767",
    "1639430907",
    "0xc6030F3Cc578F93Dc438c6a51AcabE81f45b358D"
  ],
  "solcInputHash": "415a74e64dcc6d1bfdf3e859001f9a3c",
  "bytecode": "0x610120604052600c60e08190526b15539055551213d49256915160a21b610100908152620000319160009190620001f1565b503480156200003f57600080fd5b506040516200213c3803806200213c8339810160408190526200006291620002b4565b600180546001600160a01b0319166001600160a01b0383169081179091556040518291907f2f658b440c35314f52658ea8a740e05b284cdc84dc9ae01e891f21b8933e7cad90600090a2506001600160a01b038716620000fd5760405162461bcd60e51b81526020600482015260116024820152705a65726f20616464726573733a204f484d60781b60448201526064015b60405180910390fd5b6001600160a01b038088166080528616620001505760405162461bcd60e51b81526020600482015260126024820152715a65726f20616464726573733a20734f484d60701b6044820152606401620000f4565b6001600160a01b0380871660a0528516620001a35760405162461bcd60e51b81526020600482015260126024820152715a65726f20616464726573733a20674f484d60701b6044820152606401620000f4565b506001600160a01b0390931660c052604080516080810182528381526020810183905290810184905260006060909101819052600292909255600355600491909155600555506200036b9050565b828054620001ff906200032e565b90600052602060002090601f0160209004810192826200022357600085556200026e565b82601f106200023e57805160ff19168380011785556200026e565b828001600101855582156200026e579182015b828111156200026e57825182559160200191906001019062000251565b506200027c92915062000280565b5090565b5b808211156200027c576000815560010162000281565b80516001600160a01b0381168114620002af57600080fd5b919050565b600080600080600080600060e0888a031215620002d057600080fd5b620002db8862000297565b9650620002eb6020890162000297565b9550620002fb6040890162000297565b9450606088015193506080880151925060a088015191506200032060c0890162000297565b905092959891949750929550565b600181811c908216806200034357607f821691505b602082108114156200036557634e487b7160e01b600052602260045260246000fd5b50919050565b60805160a05160c051611cf9620004436000396000818161014c015281816104a80152818161052001528181610b0e01528181610b960152818161108b01528181611127015281816116e601526117d5015260008181610190015281816103ac0152818161042d015281816105a4015281816109f701528181610ab901528181610d5501528181610f820152818161104d015281816112dc015281816113fe01526116a20152600081816102e101528181610c1f01528181610cfa01528181610f090152818161119a01526115090152611cf96000f3fe608060405234801561001057600080fd5b50600436106101425760003560e01c80639483c1d7116100b8578063bf7e214f1161007c578063bf7e214f1461031e578063bfe1092814610331578063d866c9d814610344578063deac361a14610357578063f3d86e4a14610360578063ff9413d81461036857600080fd5b80639483c1d7146102c1578063990966d5146102c9578063a6c41fec146102dc578063af14052c14610303578063bf376c7a1461030b57600080fd5b80636746f4c21161010a5780636746f4c2146101e357806375619ab51461023d5780637a9e5e4b14610252578063900cf0cf146102655780639238d5921461029b57806392fd2daf146102ae57600080fd5b80630cd3058514610147578063150799251461018b57806320138641146101b25780632986c0e5146101c857806339f47693146101d0575b600080fd5b61016e7f000000000000000000000000000000000000000000000000000000000000000081565b6040516001600160a01b0390911681526020015b60405180910390f35b61016e7f000000000000000000000000000000000000000000000000000000000000000081565b6101ba61038f565b604051908152602001610182565b6101ba610429565b6101ba6101de366004611a16565b610489565b61021b6101f1366004611a42565b60076020526000908152604090208054600182015460028301546003909301549192909160ff1684565b6040805194855260208501939093529183015215156060820152608001610182565b61025061024b366004611a42565b6105d1565b005b610250610260366004611a42565b6106db565b60025460035460045460055461027b9392919084565b604080519485526020850193909352918301526060820152608001610182565b6102506102a9366004611a5f565b6107d1565b6101ba6102bc366004611a86565b6108b2565b6101ba610a82565b6101ba6102d7366004611abf565b610a92565b61016e7f000000000000000000000000000000000000000000000000000000000000000081565b6101ba610d2a565b6101ba610319366004611a16565b61103e565b60015461016e906001600160a01b031681565b60065461016e906001600160a01b031681565b6101ba610352366004611abf565b61118b565b6101ba60085481565b6101ba611482565b610250336000908152600760205260409020600301805460ff19811660ff90911615179055565b600954604051637965d56d60e01b81526000916001600160a01b037f00000000000000000000000000000000000000000000000000000000000000001691637965d56d916103e39160040190815260200190565b602060405180830381865afa158015610400573d6000803e3d6000fd5b505050506040513d601f19601f820116820180604052508101906104249190611b12565b905090565b60007f00000000000000000000000000000000000000000000000000000000000000006001600160a01b0316632986c0e56040518163ffffffff1660e01b8152600401602060405180830381865afa158015610400573d6000803e3d6000fd5b604051632770a7eb60e21b8152336004820152602481018290526000907f00000000000000000000000000000000000000000000000000000000000000006001600160a01b031690639dc29fac90604401600060405180830381600087803b1580156104f457600080fd5b505af1158015610508573d6000803e3d6000fd5b505060405163150490ed60e31b8152600481018590527f00000000000000000000000000000000000000000000000000000000000000006001600160a01b0316925063a82487689150602401602060405180830381865afa158015610571573d6000803e3d6000fd5b505050506040513d601f19601f820116820180604052508101906105959190611b12565b90506105cb6001600160a01b037f0000000000000000000000000000000000000000000000000000000000000000168483611537565b92915050565b600160009054906101000a90046001600160a01b03166001600160a01b0316630c340a246040518163ffffffff1660e01b8152600401602060405180830381865afa158015610624573d6000803e3d6000fd5b505050506040513d601f19601f820116820180604052508101906106489190611b2b565b6001600160a01b0316336001600160a01b0316146000906106855760405162461bcd60e51b815260040161067c9190611b48565b60405180910390fd5b50600680546001600160a01b0319166001600160a01b0383169081179091556040519081527f86719c518c7d99ac94b3d405d462ea876ba5cd0a978461dc9a7c9862a9485886906020015b60405180910390a150565b600160009054906101000a90046001600160a01b03166001600160a01b0316630c340a246040518163ffffffff1660e01b8152600401602060405180830381865afa15801561072e573d6000803e3d6000fd5b505050506040513d601f19601f820116820180604052508101906107529190611b2b565b6001600160a01b0316336001600160a01b0316146000906107865760405162461bcd60e51b815260040161067c9190611b48565b50600180546001600160a01b0319166001600160a01b0383169081179091556040517f2f658b440c35314f52658ea8a740e05b284cdc84dc9ae01e891f21b8933e7cad90600090a250565b600160009054906101000a90046001600160a01b03166001600160a01b0316630c340a246040518163ffffffff1660e01b8152600401602060405180830381865afa158015610824573d6000803e3d6000fd5b505050506040513d601f19601f820116820180604052508101906108489190611b2b565b6001600160a01b0316336001600160a01b03161460009061087c5760405162461bcd60e51b815260040161067c9190611b48565b5060088190556040518181527fac17d51c35ac71d3eddc155985908430e88946d51e2f6093e93c1c0aba08f6c4906020016106d0565b6001600160a01b03821660009081526007602090815260408083208151608081018352815481526001820154938101939093526002810154918301919091526003015460ff1615156060820181905261096c576001600160a01b038416331461096c5760405162461bcd60e51b815260206004820152602660248201527f45787465726e616c20636c61696d7320666f72206163636f756e7420617265206044820152651b1bd8dad95960d21b606482015260840161067c565b6040810151600354108015906109855750604081015115155b15610a78576001600160a01b038416600090815260076020908152604082208281556001810183905560028101929092556003909101805460ff191690558101516009546109d291611644565b6009556020810151604051637965d56d60e01b81526004810191909152610a709085907f00000000000000000000000000000000000000000000000000000000000000006001600160a01b031690637965d56d90602401602060405180830381865afa158015610a46573d6000803e3d6000fd5b505050506040513d601f19601f82011682018060405250810190610a6a9190611b12565b8561168d565b9150506105cb565b5060009392505050565b6004546000906104249042611644565b8260008315610aa657610aa3610d2a565b90505b8215610af257610ae16001600160a01b037f00000000000000000000000000000000000000000000000000000000000000001633308861184a565b610aeb8282611965565b9150610c0a565b604051632770a7eb60e21b8152336004820152602481018690527f00000000000000000000000000000000000000000000000000000000000000006001600160a01b031690639dc29fac90604401600060405180830381600087803b158015610b5a57600080fd5b505af1158015610b6e573d6000803e3d6000fd5b505060405163150490ed60e31b815260048101859052610c0792508391506001600160a01b037f0000000000000000000000000000000000000000000000000000000000000000169063a824876890602401602060405180830381865afa158015610bdd573d6000803e3d6000fd5b505050506040513d601f19601f82011682018060405250810190610c019190611b12565b90611965565b91505b6040516370a0823160e01b81523060048201527f00000000000000000000000000000000000000000000000000000000000000006001600160a01b0316906370a0823190602401602060405180830381865afa158015610c6e573d6000803e3d6000fd5b505050506040513d601f19601f82011682018060405250810190610c929190611b12565b821115610ced5760405162461bcd60e51b8152602060048201526024808201527f496e73756666696369656e74204f484d2062616c616e636520696e20636f6e746044820152631c9858dd60e21b606482015260840161067c565b610d216001600160a01b037f0000000000000000000000000000000000000000000000000000000000000000168784611537565b50949350505050565b6000804260028001541161103957600554600354604051630163b36d60e21b81526001600160a01b037f0000000000000000000000000000000000000000000000000000000000000000169263058ecdb492610d9192600401918252602082015260400190565b6020604051808303816000875af1158015610db0573d6000803e3d6000fd5b505050506040513d601f19601f82011682018060405250810190610dd49190611b12565b50600254600454610de491611965565b60045560038054906000610df783611c06565b90915550506006546001600160a01b031615610ef157600660009054906101000a90046001600160a01b03166001600160a01b031663e4fc6b6d6040518163ffffffff1660e01b8152600401600060405180830381600087803b158015610e5d57600080fd5b505af1158015610e71573d6000803e3d6000fd5b50505050600660009054906101000a90046001600160a01b03166001600160a01b031663e7187e8a6040518163ffffffff1660e01b81526004016020604051808303816000875af1158015610eca573d6000803e3d6000fd5b505050506040513d601f19601f82011682018060405250810190610eee9190611b12565b90505b6040516370a0823160e01b81523060048201526000907f00000000000000000000000000000000000000000000000000000000000000006001600160a01b0316906370a0823190602401602060405180830381865afa158015610f58573d6000803e3d6000fd5b505050506040513d601f19601f82011682018060405250810190610f7c9190611b12565b905060007f00000000000000000000000000000000000000000000000000000000000000006001600160a01b0316639358928b6040518163ffffffff1660e01b8152600401602060405180830381865afa158015610fde573d6000803e3d6000fd5b505050506040513d601f19601f820116820180604052508101906110029190611b12565b905061100e8184611965565b821161101e576000600555611036565b6110328361102c8484611644565b90611644565b6005555b50505b919050565b60006110756001600160a01b037f00000000000000000000000000000000000000000000000000000000000000001633308561184a565b6040516319a948db60e21b8152600481018390527f00000000000000000000000000000000000000000000000000000000000000006001600160a01b0316906366a5236c90602401602060405180830381865afa1580156110da573d6000803e3d6000fd5b505050506040513d601f19601f820116820180604052508101906110fe9190611b12565b6040516340c10f1960e01b81526001600160a01b038581166004830152602482018390529192507f0000000000000000000000000000000000000000000000000000000000000000909116906340c10f1990604401600060405180830381600087803b15801561116d57600080fd5b505af1158015611181573d6000803e3d6000fd5b5050505092915050565b60006111c26001600160a01b037f00000000000000000000000000000000000000000000000000000000000000001633308761184a565b6111d46111cd610d2a565b8590611965565b93508180156111e35750600854155b156111fa576111f385858561168d565b905061147a565b6001600160a01b03851660009081526007602090815260409182902082516080810184528154815260018201549281019290925260028101549282019290925260039091015460ff161515606082018190526112b9576001600160a01b03861633146112b95760405162461bcd60e51b815260206004820152602860248201527f45787465726e616c206465706f7369747320666f72206163636f756e7420617260448201526719481b1bd8dad95960c21b606482015260840161067c565b6040805160808101909152815181906112d29088611965565b81526020016113747f00000000000000000000000000000000000000000000000000000000000000006001600160a01b0316631bd39674896040518263ffffffff1660e01b815260040161132891815260200190565b602060405180830381865afa158015611345573d6000803e3d6000fd5b505050506040513d601f19601f820116820180604052508101906113699190611b12565b602085015190611965565b815260085460035460209092019161138b91611965565b815260608381015115156020928301526001600160a01b038981166000908152600784526040908190208551815593850151600185015584810151600285015593909101516003909201805460ff19169215159290921790915590516306f4e59d60e21b815260048101879052611472917f00000000000000000000000000000000000000000000000000000000000000001690631bd3967490602401602060405180830381865afa158015611445573d6000803e3d6000fd5b505050506040513d601f19601f820116820180604052508101906114699190611b12565b60095490611965565b600955508390505b949350505050565b3360008181526007602081815260408084208151608081018352815481526001820180548286019081526002840180549584019590955260038401805460ff8116151560608601529989529690955291869055908590559084905560ff19909416909155516009549192916114f691611644565b6009558051611531906001600160a01b037f000000000000000000000000000000000000000000000000000000000000000016903390611537565b51919050565b604080516001600160a01b038481166024830152604480830185905283518084039091018152606490920183526020820180516001600160e01b031663a9059cbb60e01b17905291516000928392908716916115939190611c51565b6000604051808303816000865af19150503d80600081146115d0576040519150601f19603f3d011682016040523d82523d6000602084013e6115d5565b606091505b50915091508180156115ff5750805115806115ff5750808060200190518101906115ff9190611c6d565b61163d5760405162461bcd60e51b815260206004820152600f60248201526e1514905394d1915497d19052531151608a1b604482015260640161067c565b5050505050565b600061168683836040518060400160405280601e81526020017f536166654d6174683a207375627472616374696f6e206f766572666c6f7700008152506119c4565b9392505050565b600081156116d0576116c96001600160a01b037f0000000000000000000000000000000000000000000000000000000000000000168585611537565b5081611686565b6040516319a948db60e21b8152600481018490527f00000000000000000000000000000000000000000000000000000000000000006001600160a01b0316906340c10f1990869083906366a5236c90602401602060405180830381865afa15801561173f573d6000803e3d6000fd5b505050506040513d601f19601f820116820180604052508101906117639190611b12565b6040516001600160e01b031960e085901b1681526001600160a01b0390921660048301526024820152604401600060405180830381600087803b1580156117a957600080fd5b505af11580156117bd573d6000803e3d6000fd5b50506040516319a948db60e21b8152600481018690527f00000000000000000000000000000000000000000000000000000000000000006001600160a01b031692506366a5236c9150602401602060405180830381865afa158015611826573d6000803e3d6000fd5b505050506040513d601f19601f8201168201806040525081019061147a9190611b12565b604080516001600160a01b0385811660248301528481166044830152606480830185905283518084039091018152608490920183526020820180516001600160e01b03166323b872dd60e01b17905291516000928392908816916118ae9190611c51565b6000604051808303816000865af19150503d80600081146118eb576040519150601f19603f3d011682016040523d82523d6000602084013e6118f0565b606091505b509150915081801561191a57508051158061191a57508080602001905181019061191a9190611c6d565b61195d5760405162461bcd60e51b81526020600482015260146024820152731514905394d1915497d19493d357d1905253115160621b604482015260640161067c565b505050505050565b6000806119728385611c8a565b9050838110156116865760405162461bcd60e51b815260206004820152601b60248201527f536166654d6174683a206164646974696f6e206f766572666c6f770000000000604482015260640161067c565b600081848411156119e85760405162461bcd60e51b815260040161067c9190611ca2565b5060006119f58486611cd5565b95945050505050565b6001600160a01b0381168114611a1357600080fd5b50565b60008060408385031215611a2957600080fd5b8235611a34816119fe565b946020939093013593505050565b600060208284031215611a5457600080fd5b8135611686816119fe565b600060208284031215611a7157600080fd5b5035919050565b8015158114611a1357600080fd5b60008060408385031215611a9957600080fd5b8235611aa4816119fe565b91506020830135611ab481611a78565b809150509250929050565b60008060008060808587031215611ad557600080fd5b8435611ae0816119fe565b9350602085013592506040850135611af781611a78565b91506060850135611b0781611a78565b939692955090935050565b600060208284031215611b2457600080fd5b5051919050565b600060208284031215611b3d57600080fd5b8151611686816119fe565b600060208083526000845481600182811c915080831680611b6a57607f831692505b858310811415611b8857634e487b7160e01b85526022600452602485fd5b878601838152602001818015611ba55760018114611bb657611be1565b60ff19861682528782019650611be1565b60008b81526020902060005b86811015611bdb57815484820152908501908901611bc2565b83019750505b50949998505050505050505050565b634e487b7160e01b600052601160045260246000fd5b6000600019821415611c1a57611c1a611bf0565b5060010190565b60005b83811015611c3c578181015183820152602001611c24565b83811115611c4b576000848401525b50505050565b60008251611c63818460208701611c21565b9190910192915050565b600060208284031215611c7f57600080fd5b815161168681611a78565b60008219821115611c9d57611c9d611bf0565b500190565b6020815260008251806020840152611cc1816040850160208701611c21565b601f01601f19169190910160400192915050565b600082821015611ce757611ce7611bf0565b50039056fea164736f6c634300080a000a",
  "devdoc": {
    "kind": "dev",
    "methods": {
      "claim(address,bool)": {
        "params": {
          "_rebasing": "bool",
          "_to": "address"
        },
        "returns": {
          "_0": "uint"
        }
      },
      "forfeit()": {
        "returns": {
          "_0": "uint"
        }
      },
      "index()": {
        "returns": {
          "_0": "uint"
        }
      },
      "rebase()": {
        "returns": {
          "_0": "uint256"
        }
      },
      "setDistributor(address)": {
        "params": {
          "_distributor": "address"
        }
      },
      "setWarmupLength(uint256)": {
        "params": {
          "_warmupPeriod": "uint"
        }
      },
      "stake(address,uint256,bool,bool)": {
        "params": {
          "_amount": "uint",
          "_claim": "bool",
          "_rebasing": "bool",
          "_to": "address"
        },
        "returns": {
          "_0": "uint"
        }
      },
      "unstake(address,uint256,bool,bool)": {
        "params": {
          "_amount": "uint",
          "_rebasing": "bool",
          "_to": "address",
          "_trigger": "bool"
        },
        "returns": {
          "amount_": "uint"
        }
      },
      "unwrap(address,uint256)": {
        "params": {
          "_amount": "uint",
          "_to": "address"
        },
        "returns": {
          "sBalance_": "uint"
        }
      },
      "wrap(address,uint256)": {
        "params": {
          "_amount": "uint",
          "_to": "address"
        },
        "returns": {
          "gBalance_": "uint"
        }
      }
    },
    "version": 1
  },
  "userdoc": {
    "kind": "user",
    "methods": {
      "claim(address,bool)": {
        "notice": "retrieve stake from warmup"
      },
      "forfeit()": {
        "notice": "forfeit stake and retrieve OHM"
      },
      "index()": {
        "notice": "returns the sOHM index, which tracks rebase growth"
      },
      "rebase()": {
        "notice": "trigger rebase if epoch over"
      },
      "secondsToNextEpoch()": {
        "notice": "seconds until the next epoch begins"
      },
      "setDistributor(address)": {
        "notice": "sets the contract address for LP staking"
      },
      "setWarmupLength(uint256)": {
        "notice": "set warmup period for new stakers"
      },
      "stake(address,uint256,bool,bool)": {
        "notice": "stake OHM to enter warmup"
      },
      "supplyInWarmup()": {
        "notice": "total supply in warmup"
      },
      "toggleLock()": {
        "notice": "prevent new deposits or claims from ext. address (protection from malicious activity)"
      },
      "unstake(address,uint256,bool,bool)": {
        "notice": "redeem sOHM for OHMs"
      },
      "unwrap(address,uint256)": {
        "notice": "convert _amount gOHM into sBalance_ sOHM"
      },
      "wrap(address,uint256)": {
        "notice": "convert _amount sOHM into gBalance_ gOHM"
      }
    },
    "version": 1
  },
  "storageLayout": {
    "storage": [
      {
        "astId": 22230,
        "contract": "contracts/Staking.sol:OlympusStaking",
        "label": "UNAUTHORIZED",
        "offset": 0,
        "slot": "0",
        "type": "t_string_storage"
      },
      {
        "astId": 22233,
        "contract": "contracts/Staking.sol:OlympusStaking",
        "label": "authority",
        "offset": 0,
        "slot": "1",
        "type": "t_contract(IOlympusAuthority)13998"
      },
      {
        "astId": 4109,
        "contract": "contracts/Staking.sol:OlympusStaking",
        "label": "epoch",
        "offset": 0,
        "slot": "2",
        "type": "t_struct(Epoch)4088_storage"
      },
      {
        "astId": 4112,
        "contract": "contracts/Staking.sol:OlympusStaking",
        "label": "distributor",
        "offset": 0,
        "slot": "6",
        "type": "t_contract(IDistributor)13698"
      },
      {
        "astId": 4117,
        "contract": "contracts/Staking.sol:OlympusStaking",
        "label": "warmupInfo",
        "offset": 0,
        "slot": "7",
        "type": "t_mapping(t_address,t_struct(Claim)4097_storage)"
      },
      {
        "astId": 4119,
        "contract": "contracts/Staking.sol:OlympusStaking",
        "label": "warmupPeriod",
        "offset": 0,
        "slot": "8",
        "type": "t_uint256"
      },
      {
        "astId": 4121,
        "contract": "contracts/Staking.sol:OlympusStaking",
        "label": "gonsInWarmup",
        "offset": 0,
        "slot": "9",
        "type": "t_uint256"
      }
    ],
    "types": {
      "t_address": {
        "encoding": "inplace",
        "label": "address",
        "numberOfBytes": "20"
      },
      "t_bool": {
        "encoding": "inplace",
        "label": "bool",
        "numberOfBytes": "1"
      },
      "t_contract(IDistributor)13698": {
        "encoding": "inplace",
        "label": "contract IDistributor",
        "numberOfBytes": "20"
      },
      "t_contract(IOlympusAuthority)13998": {
        "encoding": "inplace",
        "label": "contract IOlympusAuthority",
        "numberOfBytes": "20"
      },
      "t_mapping(t_address,t_struct(Claim)4097_storage)": {
        "encoding": "mapping",
        "key": "t_address",
        "label": "mapping(address => struct OlympusStaking.Claim)",
        "numberOfBytes": "32",
        "value": "t_struct(Claim)4097_storage"
      },
      "t_string_storage": {
        "encoding": "bytes",
        "label": "string",
        "numberOfBytes": "32"
      },
      "t_struct(Claim)4097_storage": {
        "encoding": "inplace",
        "label": "struct OlympusStaking.Claim",
        "members": [
          {
            "astId": 4090,
            "contract": "contracts/Staking.sol:OlympusStaking",
            "label": "deposit",
            "offset": 0,
            "slot": "0",
            "type": "t_uint256"
          },
          {
            "astId": 4092,
            "contract": "contracts/Staking.sol:OlympusStaking",
            "label": "gons",
            "offset": 0,
            "slot": "1",
            "type": "t_uint256"
          },
          {
            "astId": 4094,
            "contract": "contracts/Staking.sol:OlympusStaking",
            "label": "expiry",
            "offset": 0,
            "slot": "2",
            "type": "t_uint256"
          },
          {
            "astId": 4096,
            "contract": "contracts/Staking.sol:OlympusStaking",
            "label": "lock",
            "offset": 0,
            "slot": "3",
            "type": "t_bool"
          }
        ],
        "numberOfBytes": "128"
      },
      "t_struct(Epoch)4088_storage": {
        "encoding": "inplace",
        "label": "struct OlympusStaking.Epoch",
        "members": [
          {
            "astId": 4081,
            "contract": "contracts/Staking.sol:OlympusStaking",
            "label": "length",
            "offset": 0,
            "slot": "0",
            "type": "t_uint256"
          },
          {
            "astId": 4083,
            "contract": "contracts/Staking.sol:OlympusStaking",
            "label": "number",
            "offset": 0,
            "slot": "1",
            "type": "t_uint256"
          },
          {
            "astId": 4085,
            "contract": "contracts/Staking.sol:OlympusStaking",
            "label": "end",
            "offset": 0,
            "slot": "2",
            "type": "t_uint256"
          },
          {
            "astId": 4087,
            "contract": "contracts/Staking.sol:OlympusStaking",
            "label": "distribute",
            "offset": 0,
            "slot": "3",
            "type": "t_uint256"
          }
        ],
        "numberOfBytes": "128"
      },
      "t_uint256": {
        "encoding": "inplace",
        "label": "uint256",
        "numberOfBytes": "32"
      }
    }
  }
}