{
  "address": "0x84d13f1749AC603a72B3cdE2c433e898bF790FCD",
  "abi": [
    {
      "inputs": [
        {
          "internalType": "address",
          "name": "_OHM",
          "type": "address"
        }
      ],
      "stateMutability": "nonpayable",
      "type": "constructor"
    },
    {
      "inputs": [
        {
          "internalType": "address",
          "name": "_pair",
          "type": "address"
        }
      ],
      "name": "getKValue",
      "outputs": [
        {
          "internalType": "uint256",
          "name": "k_",
          "type": "uint256"
        }
      ],
      "stateMutability": "view",
      "type": "function"
    },
    {
      "inputs": [
        {
          "internalType": "address",
          "name": "_pair",
          "type": "address"
        }
      ],
      "name": "getTotalValue",
      "outputs": [
        {
          "internalType": "uint256",
          "name": "_value",
          "type": "uint256"
        }
      ],
      "stateMutability": "view",
      "type": "function"
    },
    {
      "inputs": [
        {
          "internalType": "address",
          "name": "_pair",
          "type": "address"
        }
      ],
      "name": "markdown",
      "outputs": [
        {
          "internalType": "uint256",
          "name": "",
          "type": "uint256"
        }
      ],
      "stateMutability": "view",
      "type": "function"
    },
    {
      "inputs": [
        {
          "internalType": "address",
          "name": "_pair",
          "type": "address"
        },
        {
          "internalType": "uint256",
          "name": "amount_",
          "type": "uint256"
        }
      ],
      "name": "valuation",
      "outputs": [
        {
          "internalType": "uint256",
          "name": "_value",
          "type": "uint256"
        }
      ],
      "stateMutability": "view",
      "type": "function"
    }
  ],
  "transactionHash": "0x9dc3c9a3fce6d7c70c509edc1b422a85798477610f210097465d27ae818ca3ff",
  "args": [
    "0xc3593B4A74433A396Fe46eAEfD5F872AefcCE246"
  ],
  "solcInputHash": "c11c2ee64510471a09c1ebad4051e611",
  "bytecode": "0x60a060405234801561001057600080fd5b5060405161114538038061114583398101604081905261002f9161008e565b6001600160a01b03811661007d5760405162461bcd60e51b81526020600482015260116024820152705a65726f20616464726573733a204f484d60781b604482015260640160405180910390fd5b6001600160a01b03166080526100be565b6000602082840312156100a057600080fd5b81516001600160a01b03811681146100b757600080fd5b9392505050565b60805161105e6100e760003960008181610131015281816101d301526102bb015261105e6000f3fe608060405234801561001057600080fd5b506004361061004c5760003560e01c806332da80a3146100515780634249719f14610076578063490084ef14610089578063686375491461009c575b600080fd5b61006461005f366004610d27565b6100af565b60405190815260200160405180910390f35b610064610084366004610d44565b610367565b610064610097366004610d27565b610403565b6100646100aa366004610d27565b6106ad565b6000806000836001600160a01b0316630902f1ac6040518163ffffffff1660e01b8152600401606060405180830381865afa1580156100f2573d6000803e3d6000fd5b505050506040513d601f19601f820116820180604052508101906101169190610d87565b506001600160701b031691506001600160701b0316915060007f00000000000000000000000000000000000000000000000000000000000000006001600160a01b0316856001600160a01b0316630dfe16816040518163ffffffff1660e01b8152600401602060405180830381865afa158015610197573d6000803e3d6000fd5b505050506040513d601f19601f820116820180604052508101906101bb9190610dd7565b6001600160a01b031614156101d15750806102aa565b7f00000000000000000000000000000000000000000000000000000000000000006001600160a01b0316856001600160a01b031663d21220a76040518163ffffffff1660e01b8152600401602060405180830381865afa158015610239573d6000803e3d6000fd5b505050506040513d601f19601f8201168201806040525081019061025d9190610dd7565b6001600160a01b0316146102a75760405162461bcd60e51b815260206004820152600c60248201526b24b73b30b634b2103830b4b960a11b60448201526064015b60405180910390fd5b50815b61035e6102b6866106ad565b6103587f00000000000000000000000000000000000000000000000000000000000000006001600160a01b031663313ce5676040518163ffffffff1660e01b8152600401602060405180830381865afa158015610317573d6000803e3d6000fd5b505050506040513d601f19601f8201168201806040525081019061033b9190610df4565b61034690600a610f09565b610351906002610f18565b84906106d1565b90610757565b95945050505050565b600080610373846106ad565b90506000846001600160a01b03166318160ddd6040518163ffffffff1660e01b8152600401602060405180830381865afa1580156103b5573d6000803e3d6000fd5b505050506040513d601f19601f820116820180604052508101906103d99190610f37565b905061035e670de0b6b3a76400006103586103fc6103f78886610799565b6108d4565b85906106d1565b600080826001600160a01b0316630dfe16816040518163ffffffff1660e01b8152600401602060405180830381865afa158015610444573d6000803e3d6000fd5b505050506040513d601f19601f820116820180604052508101906104689190610dd7565b6001600160a01b031663313ce5676040518163ffffffff1660e01b8152600401602060405180830381865afa1580156104a5573d6000803e3d6000fd5b505050506040513d601f19601f820116820180604052508101906104c99190610df4565b60ff1690506000836001600160a01b031663d21220a76040518163ffffffff1660e01b8152600401602060405180830381865afa15801561050e573d6000803e3d6000fd5b505050506040513d601f19601f820116820180604052508101906105329190610dd7565b6001600160a01b031663313ce5676040518163ffffffff1660e01b8152600401602060405180830381865afa15801561056f573d6000803e3d6000fd5b505050506040513d601f19601f820116820180604052508101906105939190610df4565b60ff1690506000610612856001600160a01b031663313ce5676040518163ffffffff1660e01b8152600401602060405180830381865afa1580156105db573d6000803e3d6000fd5b505050506040513d601f19601f820116820180604052508101906105ff9190610df4565b60ff1661060c85856108f4565b90610953565b9050600080866001600160a01b0316630902f1ac6040518163ffffffff1660e01b8152600401606060405180830381865afa158015610655573d6000803e3d6000fd5b505050506040513d601f19601f820116820180604052508101906106799190610d87565b506001600160701b0391821693501690506106a261069884600a610f50565b61035884846106d1565b979650505050505050565b60006106cb60026106c56106c085610403565b610995565b906106d1565b92915050565b6000826106e0575060006106cb565b60006106ec8385610f18565b9050826106f98583610f72565b146107505760405162461bcd60e51b815260206004820152602160248201527f536166654d6174683a206d756c7469706c69636174696f6e206f766572666c6f6044820152607760f81b606482015260840161029e565b9392505050565b600061075083836040518060400160405280601a81526020017f536166654d6174683a206469766973696f6e206279207a65726f000000000000815250610a00565b604080516020810190915260008152600082116108075760405162461bcd60e51b815260206004820152602660248201527f4669786564506f696e743a3a6672616374696f6e3a206469766973696f6e206260448201526579207a65726f60d01b606482015260840161029e565b8261082157506040805160208101909152600081526106cb565b71ffffffffffffffffffffffffffffffffffff83116108c357600061084a83607086901b610f72565b90506001600160e01b038111156108a35760405162461bcd60e51b815260206004820152601e60248201527f4669786564506f696e743a3a6672616374696f6e3a206f766572666c6f770000604482015260640161029e565b6040518060200160405280826001600160e01b03168152509150506106cb565b600061084a84600160701b85610a64565b80516000906106cb906612725dd1d243ab906001600160e01b0316610f72565b6000806109018385610f86565b9050838110156107505760405162461bcd60e51b815260206004820152601b60248201527f536166654d6174683a206164646974696f6e206f766572666c6f770000000000604482015260640161029e565b600061075083836040518060400160405280601e81526020017f536166654d6174683a207375627472616374696f6e206f766572666c6f770000815250610b21565b600060038211156109f157508060006109b96109b2836002610757565b60016108f4565b90505b818110156109eb578091506109e46109dd6109d78584610757565b836108f4565b6002610757565b90506109bc565b50919050565b81156109fb575060015b919050565b60008183610a215760405162461bcd60e51b815260040161029e9190610f9e565b506000610a2e8486610f72565b9050610a3a8486610ff3565b610a448286610f18565b610a4e9190610f86565b8514610a5c57610a5c611007565b949350505050565b6000806000610a738686610b52565b9150915060008480610a8757610a87610f5c565b868809905082811115610aa257610a9f60018361101d565b91505b610aac818461101d565b925081610ac757610abd8584610f72565b9350505050610750565b848210610b165760405162461bcd60e51b815260206004820152601a60248201527f46756c6c4d6174683a2046554c4c4449565f4f564552464c4f57000000000000604482015260640161029e565b6106a2838387610b94565b60008184841115610b455760405162461bcd60e51b815260040161029e9190610f9e565b50600061035e848661101d565b600080806000198486099050610b688486610f18565b9250610b74838261101d565b915082811015610b8c57610b8960018361101d565b91505b509250929050565b600080610ba083611034565b83169050610bae8184610f72565b9250610bba8186610f72565b945080610bc681611034565b610bd09190610f72565b610bdb906001610f86565b610be59085610f18565b610bef9086610f86565b94506001610bfd8185610f18565b610c0890600261101d565b610c129082610f18565b9050610c1e8185610f18565b610c2990600261101d565b610c339082610f18565b9050610c3f8185610f18565b610c4a90600261101d565b610c549082610f18565b9050610c608185610f18565b610c6b90600261101d565b610c759082610f18565b9050610c818185610f18565b610c8c90600261101d565b610c969082610f18565b9050610ca28185610f18565b610cad90600261101d565b610cb79082610f18565b9050610cc38185610f18565b610cce90600261101d565b610cd89082610f18565b9050610ce48185610f18565b610cef90600261101d565b610cf99082610f18565b9050610d058187610f18565b9695505050505050565b6001600160a01b0381168114610d2457600080fd5b50565b600060208284031215610d3957600080fd5b813561075081610d0f565b60008060408385031215610d5757600080fd5b8235610d6281610d0f565b946020939093013593505050565b80516001600160701b03811681146109fb57600080fd5b600080600060608486031215610d9c57600080fd5b610da584610d70565b9250610db360208501610d70565b9150604084015163ffffffff81168114610dcc57600080fd5b809150509250925092565b600060208284031215610de957600080fd5b815161075081610d0f565b600060208284031215610e0657600080fd5b815160ff8116811461075057600080fd5b634e487b7160e01b600052601160045260246000fd5b600181815b80851115610b8c578160001904821115610e4e57610e4e610e17565b80851615610e5b57918102915b93841c9390800290610e32565b600082610e77575060016106cb565b81610e84575060006106cb565b8160018114610e9a5760028114610ea457610ec0565b60019150506106cb565b60ff841115610eb557610eb5610e17565b50506001821b6106cb565b5060208310610133831016604e8410600b8410161715610ee3575081810a6106cb565b610eed8383610e2d565b8060001904821115610f0157610f01610e17565b029392505050565b600061075060ff841683610e68565b6000816000190483118215151615610f3257610f32610e17565b500290565b600060208284031215610f4957600080fd5b5051919050565b60006107508383610e68565b634e487b7160e01b600052601260045260246000fd5b600082610f8157610f81610f5c565b500490565b60008219821115610f9957610f99610e17565b500190565b600060208083528351808285015260005b81811015610fcb57858101830151858201604001528201610faf565b81811115610fdd576000604083870101525b50601f01601f1916929092016040019392505050565b60008261100257611002610f5c565b500690565b634e487b7160e01b600052600160045260246000fd5b60008282101561102f5761102f610e17565b500390565b6000600160ff1b82141561104a5761104a610e17565b506000039056fea164736f6c634300080a000a",
  "devdoc": {
    "kind": "dev",
    "methods": {},
    "version": 1
  },
  "userdoc": {
    "kind": "user",
    "methods": {},
    "version": 1
  },
  "storageLayout": {
    "storage": [],
    "types": null
  }
}